:100000000C9436000C945E000C945E000C945E0020
:100010000C945E000C945E000C945E000C945E00E8
:100020000C945E000C945E000C945E000C945E00D8
:100030000C945E000C945E000C945E000C945E00C8
:100040000C94F9010C945E000C9469020C94430228
:100050000C945E000C945E000C945E000C945E00A8
:100060000C945E000C945E009B025B0411241FBE86
:10007000CFEFD8E0DEBFCDBF21E0ACE3B1E001C0FF
:100080001D92AC3EB207E1F711E0A0E0B1E0EAE07A
:10009000FEE002C005900D92AC33B107D9F710E035
:1000A000C5E3D0E004C02197FE010E94F604C433EA
:1000B000D107C9F70E94CB020C94F8060C940000FB
:1000C0003FB7F8948091410190914201A091430182
:1000D000B091440126B5A89B05C02F3F19F00196A9
:1000E000A11DB11D3FBFBA2FA92F982F8827820FBE
:1000F000911DA11DB11DBC01CD0142E0660F771F0E
:10010000881F991F4A95D1F708950895CF92DF92DD
:10011000EF92FF920F931F93CF93DF936C017A01BD
:100120008B01C0E0D0E0CE15DF0581F0D8016D91E4
:100130008D01D601ED91FC910190F081E02DC60179
:100140000995892B11F02196EECF7E01C701DF9131
:10015000CF911F910F91FF90EF90DF90CF90089576
:1001600080E090E00895FC01538D448D252F30E010
:10017000842F90E0821B930B541710F0CF960895B4
:1001800001970895FC01918D828D981761F0828D01
:10019000DF01A80FB11D5D968C91928D9F5F9F73BB
:1001A000928F90E008958FEF9FEF0895FC01918D5D
:1001B000828D981731F0828DE80FF11D858D90E0CA
:1001C00008958FEF9FEF0895FC01918D228D892F67
:1001D00090E0805C9F4F821B91098F73992708954F
:1001E00085E491E00E94E40021E0892B09F420E0FD
:1001F000822F0895FC01848DDF01A80FB11DA35A41
:10020000BF4F2C91848D90E001968F739927848F36
:10021000A689B7892C93A089B1898C918370806459
:100220008C93938D848D981306C00288F389E02DFA
:1002300080818F7D80830895EF92FF920F931F93AB
:10024000CF93DF93EC0181E0888F9B8D8C8D981389
:1002500005C0E889F989808185FD26C0F62E0B8DC1
:1002600010E00F5F1F4F0F731127E02E8C8DE812E7
:100270000CC00FB607FCFACFE889F989808185FFA9
:10028000F5CFCE010E94FA00F1CF8B8DFE01E80F71
:10029000F11DE35AFF4FF0829FB7F8940B8FEA8964
:1002A000FB89808180620AC09FB7F894EE89FF893C
:1002B0006083E889F98980818370806480839FBF2F
:1002C00081E090E0DF91CF911F910F91FF90EF902F
:1002D0000895CF93DF93EC01888D8823C9F0EA89D4
:1002E000FB89808185FD05C0A889B9898C9186FD2F
:1002F0000FC00FB607FCF5CF808185FFF2CFA8892C
:10030000B9898C9185FFEDCFCE010E94FA00E7CF2D
:10031000DF91CF91089580E090E0892B29F00E9431
:10032000F00081110C9400000895009769F0FC0121
:1003300001900020E9F73197AF01481B590BBC0130
:1003400085E491E00C94860080E090E008950E949E
:10035000E3060F931F93CF93DF93EC01888199817C
:10036000009729F02A813B812617370788F48B01F3
:100370006F5F7F4F0E941D06009761F0998388830D
:100380001B830A832C813D81232B11F4FC011082F5
:1003900081E001C080E0DF91CF911F910F9108951E
:1003A000CF93DF93EC01198218821B821A821D827F
:1003B0001C8260E070E00E94A901288139818111CE
:1003C0000FC02115310519F0C9010E949405198249
:1003D00018821D821C821B821A82DF91CF910895A0
:1003E0001D821C826DE271E0C901DF91CF910C94F6
:1003F000F1061F920F920FB60F9211242F933F9385
:100400008F939F93AF93BF9380913D0190913E0155
:10041000A0913F01B091400130913C0123E0230FB6
:100420002D3720F40196A11DB11D05C026E8230F2C
:100430000296A11DB11D20933C0180933D01909334
:100440003E01A0933F01B093400180914101909102
:100450004201A0914301B09144010196A11DB11D3B
:100460008093410190934201A0934301B0934401D2
:10047000BF91AF919F918F913F912F910F900FBEA0
:100480000F901F9018951F920F920FB60F92112484
:100490002F933F934F935F936F937F938F939F938C
:1004A000AF93BF93EF93FF9385E491E00E94FA002E
:1004B000FF91EF91BF91AF919F918F917F916F913C
:1004C0005F914F913F912F910F900FBE0F901F9012
:1004D00018951F920F920FB60F9211242F938F939E
:1004E0009F93EF93FF93E0915501F0915601808126
:1004F000E0915B01F0915C0182FD12C090818091DE
:100500005E018F5F8F7320915F01821751F0E09140
:100510005E01F0E0EB5BFE4F958F80935E0101C0C2
:100520008081FF91EF919F918F912F910F900FBE3E
:100530000F901F901895E5E4F1E01382128288EE87
:1005400093E0A0E0B0E084839583A683B7838BE03B
:1005500091E09183808385EC90E09587848784EC9B
:1005600090E09787868780EC90E0918B808B81EC80
:1005700090E0938B828B82EC90E0958B848B86EC61
:1005800090E0978B868B118E128E138E148E82EED6
:1005900091E00C94D001CF93DF93CDB7DEB7A9974C
:1005A0000FB6F894DEBF0FBECDBF789484B58260DD
:1005B00084BD84B5816084BD85B5826085BD85B507
:1005C000816085BD80916E00816080936E00109285
:1005D0008100809181008260809381008091810000
:1005E0008160809381008091800081608093800091
:1005F0008091B10084608093B1008091B0008160EF
:100600008093B00080917A00846080937A0080911A
:100610007A00826080937A0080917A008160809372
:100620007A0080917A00806880937A001092C100ED
:10063000E0915501F091560182E08083E0915101F3
:10064000F09152011082E0915301F09154018FEC2E
:10065000808310925D01E0915901F0915A0186E08A
:100660008083E0915701F0915801808180618083FF
:10067000E0915701F0915801808188608083E0917A
:100680005701F0915801808180688083E091570183
:10069000F091580180818F7D80839AE0892E912C82
:1006A000A12CB12CCE0182960E94D0018091000134
:1006B000882351F089E191E00E9495018BE291E05D
:1006C0000E9495011092000185E491E00E94E400EF
:1006D000181619060CF0D9C0CE0101960E94D0015F
:1006E00085E491E00E94E400892BD1F385E491E058
:1006F0000E94E400181619060CF05BC085E491E036
:100700000E94C200182F0E9460002B013C0188E269
:10071000C82ED12CE12CF12C0E946000DC01CB0111
:1007200084199509A609B709883E9340A105B1052A
:1007300098F321E0C21AD108E108F10888EE480ECA
:1007400083E0581E611C711CC114D104E104F10442
:1007500019F71A3031F1612F85E491E00E941C01F4
:100760008BE291E00E94950118A719A6ED80FE800A
:10077000FFEFEF1AFF0AB701CE0101960E94A9010F
:10078000882309F4B3CF29813A818D819E81BE01EE
:10079000685D7F4F820F931F0E94F106FE82ED82FB
:1007A000A5CF8EE291E00E9495018BE291E00E943C
:1007B00095018AA19BA1009741F069817A81611519
:1007C000710509F069C00E94940589819A819BA3F3
:1007D0008AA38B819C819DA38CA38D819E819FA3E5
:1007E0008EA31A82198289819A810E9494058AA116
:1007F0009BA1009719F00E94610403C060E070E0C3
:10080000CB016F5F7F4F6B01770FEE08FF08F7FE9C
:1008100020C06DE285E491E00E941C01222733276D
:10082000A9012C193D094E095F0919A2CE01819633
:100830007C01CA01B901A50194010E94D404605D44
:10084000F70162937F01211531054105510589F7B3
:1008500015C0A701960119A2CE0181967C01CA019B
:10086000B901A50194010E94D404605DF70162936F
:100870007F01211531054105510589F7C7010E9406
:1008800095018BE291E00E9495018AA19BA10E94B3
:1008900094050E948B0106CF4CA15DA12D813E8164
:1008A0004217530708F48FCF0E94F1068D819E8175
:1008B0009FA38EA398CF8091E2019091E3010C94C5
:1008C00094051F93FC0199278827BC01E894119196
:1008D0001032E9F3193010F01E30C8F31B3251F01A
:1008E0001D3249F4689406C00E948804610F711D8E
:1008F000811D911D119110531A30B0F33EF4909563
:100900008095709561957F4F8F4F9F4F1F910895F0
:10091000592F482F372F262F660F771F881F991FB3
:10092000660F771F881F991F620F731F841F951F03
:10093000660F771F881F991F08952F923F924F923D
:100940005F926F927F928F929F92AF92BF92CF925F
:10095000DF92EF92FF920F931F93CF93DF93CDB768
:10096000DEB7CA1BDB0B0FB6F894DEBF0FBECDBFE0
:1009700009942A88398848885F846E847D848C84B1
:100980009B84AA84B984C884DF80EE80FD800C81BA
:100990001B81AA81B981CE0FD11D0FB6F894DEBF9D
:1009A0000FBECDBFED010895A1E21A2EAA1BBB1BFD
:1009B000FD010DC0AA1FBB1FEE1FFF1FA217B3072B
:1009C000E407F50720F0A21BB30BE40BF50B661F41
:1009D000771F881F991F1A9469F760957095809505
:1009E00090959B01AC01BD01CF010895EE0FFF1F53
:1009F0000590F491E02D09940F931F93CF93DF930B
:100A00008230910510F482E090E0E091EA01F091EB
:100A1000EB0120E030E0A0E0B0E0309719F1408138
:100A200051810281138148175907C8F0841795072F
:100A300069F4109731F012960C93129713961C9349
:100A400027C00093EA011093EB0122C02115310564
:100A500019F04217530718F49A01BD01EF01DF01A5
:100A6000F801DBCF21153105F9F0281B390B2430B3
:100A7000310580F48A819B816115710521F0FB01AC
:100A80009383828304C09093EB018093EA01FE017B
:100A9000329644C0FE01E20FF31F819391932250DE
:100AA0003109398328833AC02091E8013091E90166
:100AB000232B41F420910301309104013093E9018B
:100AC0002093E801209101013091020121153105A7
:100AD00041F42DB73EB74091050150910601241B0A
:100AE000350BE091E801F091E901E217F307A0F47A
:100AF0002E1B3F0B2817390778F0AC014E5F5F4F74
:100B00002417350748F04E0F5F1F5093E9014093BB
:100B1000E8018193919302C0E0E0F0E0CF01DF9122
:100B2000CF911F910F910895CF93DF93009709F410
:100B300081C0FC01329713821282A091EA01B09128
:100B4000EB01109781F420813181820F931F209156
:100B5000E8013091E9012817390751F5F093E901CF
:100B6000E093E80167C0ED0120E030E0CE17DF0739
:100B700040F44A815B819E0141155105F1F0EA0183
:100B8000F5CFD383C28340815181840F951FC8174D
:100B9000D90759F488819981840F951F0296918312
:100BA00080838A819B81938382832115310529F477
:100BB000F093EB01E093EA013DC0E901FB83EA8396
:100BC00049915991C40FD51FEC17FD0761F480813D
:100BD0009181840F951F0296E90199838883828110
:100BE00093819B838A83E0E0F0E012968D919C9143
:100BF0001397009719F0FD01DC01F7CF8D919C91BF
:100C000011979D012E5F3F4F820F931F2091E801A6
:100C10003091E9012817390769F4309729F41092C7
:100C2000EB011092EA0102C013821282B093E90133
:100C3000A093E801DF91CF910895A0E0B0E0E3E256
:100C4000F6E00C94A104EC01009721F4CB010E9482
:100C5000FC04B4C0FC01E60FF71F9C0122503109CF
:100C6000E217F30708F4A8C0D9010D911C91119760
:100C700006171707B0F00530110508F49BC0C8012E
:100C800004978617970708F495C002501109061BB0
:100C9000170B019311936D937C93CF010E949405E0
:100CA00089C05B01A01AB10A4C01800E911EA0916F
:100CB000EA01B091EB01612C712CE12CF12C109721
:100CC00009F446C08D919C911197A815B905B1F50D
:100CD0006C0142E0C40ED11CCA14DB0478F14C0153
:100CE0008A189B08640142E0C40ED11C1296BC9085
:100CF00012971396AC91B5E0CB16D10440F0B282B6
:100D0000A38391828082D9016D937C9309C00E5F89
:100D10001F4F800F911FF90191838083EB2DFA2FD4
:100D2000E114F10431F0D7011396FC93EE9312977E
:100D300041C0F093EB01E093EA013CC068167906EC
:100D400008F43C017D0112960D90BC91A02DB7CF07
:100D50008091E8019091E90188169906E1F4661600
:100D60007706C8F48091010190910201009741F447
:100D70008DB79EB74091050150910601841B950BDC
:100D8000E817F907C8F4F093E901E093E801F901E5
:100D9000718360830FC0CB010E94FC047C0100972B
:100DA00059F0A801BE010E94E806CE010E949405F8
:100DB000C70104C0CE0102C080E090E0CDB7DEB72D
:100DC000EEE00C94BD0481E090E0F8940C94F806F9
:100DD000FB01DC0102C001900D9241505040D8F758
:100DE0000895FB01DC0101900D920020E1F70895C8
:100DF00010E0C5E3D0E004C0FE010E94F604219695
:0A0E0000C633D107C9F7F894FFCFFD
:100E0A00010000EC018000000000001C018600B314
:100E1A00006901E400C200D600696E73697261203C
:100E2A00756D206E756D65726F3A000D0A00666FFA
:0C0E3A006920696775616C2061200A0066
:00000001FF
