:100000000C9467000C948F000C948F000C948F005C
:100010000C948F000C948F000C94D1050C948F00DD
:100020000C948F000C948F000C948F000C948F0014
:100030000C948F000C948F000C948F000C948F0004
:100040000C9474030C948F000C94C4020C949E02C4
:100050000C948F000C948F000C948F000C948F00E4
:100060000C948F000C948F001F0B1F0B1F0B580B51
:10007000430B520B1F0B1F0B580B430B00000008C8
:10008000000201000003040700000000000000005F
:1000900000000000250028002B00000000002400C4
:1000A00027002A00040404040404040402020202D7
:1000B000020203030303030301020408102040802B
:1000C000010204081020010204081020860C1124EB
:1000D0001FBECFEFD8E0DEBFCDBF11E0A0E0B1E0A2
:1000E000E2E4F1E202C005900D92A236B107D9F721
:1000F00022E0A2E6B1E001C01D92A039B207E1F70B
:1001000010E0C7E6D0E004C02197FE010E94630F13
:10011000C636D107C9F70E947A0B0C949F100C9435
:100120000000E0912A02F0912B028081811103C02E
:100130008FEF9FEF0CC0E0912A02F0912B02058017
:10014000F681E02D0680F781E02D828193819093E6
:100150006801809367010895CF93DF93CDB7DEB731
:10016000A1970FB6F894DEBF0FBECDBF12E388E1B2
:1001700091E00E94150319A218A3CE0180960E9457
:10018000150386E291E00E94150360E08CE00E9476
:10019000270361E08BE00E94270360E08AE00E9471
:1001A000270361E089E00E9427038091620190911A
:1001B0006301019690936301809362010E94C005E0
:1001C00060E08DE790E00E94AB080E945807811123
:1001D000CECF0E949B06CBCF89E291E00E9415030F
:1001E00086E291E00E94150360E08CE00E94270304
:1001F00060E08BE00E94270360E08AE00E94270312
:1002000061E089E00E9427030E94C00560E08EE360
:1002100090E00E94AB080E9458078111DDCF0E9438
:100220009B06DACF80916601882309F10FB6F89416
:100230000F92E0913A02F0913B02C681D781CE0144
:1002400002960E94D40580916F02815080936F02C4
:10025000809166018150809366010F900FBE8F8957
:10026000988D0E941509CE010E941509DBCF80915F
:100270004702823010F00E949B060E949202D2CF69
:100280000F931F938CE00E94F6028BE00E94F6020F
:100290008AE00E94F60289E00E94F602EBE8F1E0B3
:1002A000A089B18982E08C93A485B5851C92A6852E
:1002B000B7858FEC8C93108EA489B58986E08C93DA
:1002C000A289B3898C9180618C93A289B3898C9126
:1002D00088608C93A289B3898C9180688C93028802
:1002E000F389E02D80818F7D808300E010E022E0A3
:1002F00040E850E06BE371E08CEA90E00E94B00DC2
:1003000023E040E850E068E471E08CEE90E00E9469
:10031000B00D1F910F910895CF92DF92EF92FF924F
:100320000F931F93CF93DF936C017A018B01C0E091
:10033000D0E0CE15DF0581F0D8016D918D01D60199
:10034000ED91FC910190F081E02DC6010995892B7A
:1003500011F02196EECF7E01C701DF91CF911F9161
:100360000F91FF90EF90DF90CF900895089580E077
:1003700090E00895FC01538D448D252F30E0842FAB
:1003800090E0821B930B541710F0CF9608950197BD
:100390000895FC01918D828D981761F0828DDF01A7
:1003A000A80FB11D5D968C91928D9F5F9F73928F68
:1003B00090E008958FEF9FEF0895FC01918D828D5D
:1003C000981731F0828DE80FF11D858D90E008952A
:1003D0008FEF9FEF0895FC01918D228D892F90E082
:1003E000805C9F4F821B91098F73992708958BE83A
:1003F00091E00E94EB0121E0892B09F420E0822F9B
:100400000895FC01848DDF01A80FB11DA35ABF4FD1
:100410002C91848D90E001968F739927848FA68903
:10042000B7892C93A089B1898C91837080648C9357
:10043000938D848D981306C00288F389E02D808106
:100440008F7D80830895EF92FF920F931F93CF9338
:10045000DF93EC0181E0888F9B8D8C8D981305C014
:10046000E889F989808185FD26C0F62E0B8D10E084
:100470000F5F1F4F0F731127E02E8C8DE8120CC0F9
:100480000FB607FCFACFE889F989808185FFF5CF9F
:10049000CE010E940102F1CF8B8DFE01E80FF11D0C
:1004A000E35AFF4FF0829FB7F8940B8FEA89FB89DC
:1004B000808180620AC09FB7F894EE89FF896083CB
:1004C000E889F98980818370806480839FBF81E09F
:1004D00090E0DF91CF911F910F91FF90EF900895E1
:1004E000CF93DF93EC01888D8823C9F0EA89FB89DB
:1004F000808185FD05C0A889B9898C9186FD0FC0D2
:100500000FB607FCF5CF808185FFF2CFA889B989A6
:100510008C9185FFEDCFCE010E940102E7CFDF91E4
:10052000CF91089580E090E0892B29F00E94F70197
:1005300081110C94000008950E948A101F920F925E
:100540000FB60F9211242F933F934F935F936F93A6
:100550007F938F939F93AF93BF93EF93FF938BE81A
:1005600091E00E940102FF91EF91BF91AF919F91A5
:100570008F917F916F915F914F913F912F910F904C
:100580000FBE0F901F9018951F920F920FB60F92EB
:1005900011242F938F939F93EF93FF93E0919B01EF
:1005A000F0919C018081E091A101F091A20182FD76
:1005B00012C090818091A4018F5F8F732091A5015B
:1005C000821751F0E091A401F0E0E557FE4F958FBE
:1005D0008093A40101C08081FF91EF919F918F9141
:1005E0002F910F900FBE0F901F90189590E0FC0177
:1005F000E854FF4F2491FC01EC55FF4F8491882370
:1006000099F090E0880F991FFC01E656FF4FA591E5
:10061000B491FC01E057FF4F859194918FB7F89406
:10062000EC91E22BEC938FBF0895009769F0FC01E9
:1006300001900020E9F73197AF01481B590BBC012D
:100640008BE891E00C948C0180E090E0089590E0BC
:10065000FC01E458FF4F2491FC01E854FF4F349112
:10066000FC01EC55FF4FE491EE2309F43CC022233A
:1006700039F1233091F038F42130A9F0223001F51E
:1006800084B58F7D12C0273091F02830A1F024303E
:10069000B9F4809180008F7D03C0809180008F77B6
:1006A000809380000DC084B58F7784BD09C0809190
:1006B000B0008F7703C08091B0008F7D8093B00031
:1006C000F0E0EE0FFF1FE057FF4FA591B4919FB7E9
:1006D000F894611104C08C913095382302C0EC91DC
:1006E0003E2B3C939FBF08951F920F920FB60F921F
:1006F00011242F933F938F939F93AF93BF93809138
:10070000750290917602A0917702B09178023091B3
:10071000740223E0230F2D3720F40196A11DB11D93
:1007200005C026E8230F0296A11DB11D2093740277
:100730008093750290937602A0937702B09378022B
:100740008091700290917102A0917202B091730237
:100750000196A11DB11D8093700290937102A09328
:100760007202B0937302BF91AF919F918F913F91AD
:100770002F910F900FBE0F901F9018950F920FB6EC
:10078000F8940F921F9211242F923F924F925F92F2
:100790006F927F928F929F92AF92BF92CF92DF9291
:1007A000EF92FF920F931F932F933F934F935F937B
:1007B0006F937F938F939F93AF93BF93CF93DF9369
:1007C000EF93FF93A0916D02B0916E020DB60D9262
:1007D0000EB60D9213BE809185018111F3C08091F8
:1007E00088019091890101969093890180938801F5
:1007F000009799F520912A0230912B02409128020E
:100800005091290250932B0240932A0230932902DF
:100810002093280220918A012F5F20938A01E09182
:100820002A02F0912B022081211107C02FEF3FEF08
:10083000309368012093670110C0E0912A02F09183
:100840002B020580F681E02D0680F781E02D2281C4
:1008500033813093680120936701209167013091C3
:1008600068018217930708F49CC020E019E0E0912A
:100870002A02F0912B023081311107C08FEF9FEFD8
:1008800090936801809367018DC0E0912A02F091F6
:100890002B020580F681E02D0680F781E02D428154
:1008A00053818417950728F450936801409367019A
:1008B00079C0AF014E5F5F4FA285B38564817581BA
:1008C000E680F780EB01FD82EC82C681D7817B83D5
:1008D0006A8311966D917C9112974617570721F400
:1008E0001296DC93CE931197138612863C91315069
:1008F0003C933C91A489B5891097F9F0668577857A
:10090000E088F188EB01FD82EC82C089D1897B838C
:100910006A831196ED90FC901297BF01645F7F4F40
:10092000E616F70621F41296DC93CE931197158AFA
:10093000148A3C9131503C933C91A68930916B02D2
:100940003A1710F4A0936B021A9FD0011124BD0135
:10095000695B7D4F7B01DB011196CD91DC91129794
:10096000D583C4836C817D81778366836C817D812F
:10097000DB0113965C934E9312975D834C83F38651
:10098000E286E70138813F5F3883A0916D02B09124
:100990006E02468956963C91431708F468CF21E0D1
:1009A00066CF20E0E0916D02F0916E02E689D9E019
:1009B000ED9FF0011124E95BFD4F8081823040F012
:1009C00021E006C0809164018F5F8093640120E084
:1009D00080916501811103C0222309F466C08091D2
:1009E0008501882321F081E0809365015EC010922B
:1009F0006501A0916D02B0916E02E0916D02F091DF
:100A00006E022D913C918789908D82179307A8F0F3
:100A100080916D0290916E0280916D0290916E02B4
:100A2000259A2D9A2FEF67EA71E6215060407040B9
:100A3000E1F700C000001D9AF5CF80916B0269E0DC
:100A400001C08150482F50E0649F9001659F300D98
:100A50001124F901E95BFD4F9081992391F3A18164
:100A6000B28112960D90BC91A02DB283A183265B1A
:100A70003D4FA217B30731F412962D913C91139775
:100A80003283218399E0949FF001959FF00D11240A
:100A9000E95BFD4F0180F281E02D268137813093A3
:100AA0006E0220936D0280936B02A0916D02B09153
:100AB0006E02CD91CDBFDD91DEBFFF91EF91DF9151
:100AC000CF91BF91AF919F918F917F916F915F91E6
:100AD0004F913F912F911F910F91FF90EF90DF90D9
:100AE000CF90BF90AF909F908F907F906F905F90CE
:100AF0004F903F902F901F900F900FBE0F90089532
:100B0000FC01DB010FB6F8940F92409188015091DF
:100B100089012D913C9111972F3F8FEF380701F1FB
:100B20008181928160918A017081761719F048174E
:100B30005907C0F4481B590B4217530770F4241B84
:100B4000350B2D933C9380918A018083809188019D
:100B5000909189019283818303C01D921C9202C0EF
:100B600080E001C081E00F900FBE08950FB6F894A9
:100B70000F9280918801909189010F900FBE089586
:100B8000809185018F5F8093850108950FB6F89459
:100B90000F92FC01928D0F900FBE81E0911180E0C9
:100BA00008950E94BE031895CF93DF93FC01A085A2
:100BB000B1858281938124813581EC013D832C8331
:100BC000C481D5819B838A8311968D919C911297C4
:100BD000E817F90721F41296DC93CE93119711864A
:100BE00010868C9181508C938C91DF91CF910895D8
:100BF000CF93DF939C01FB01DC011196CD91DC9139
:100C00001297D383C2838C819D81958384838C8149
:100C10009D81DC0113967C936E9312977D836C8388
:100C200031872087F90180818F5F8083DF91CF91A9
:100C300008950F931F93CF93DF93DC011596ED91E9
:100C4000FC911697C681D7818E01045F1F4FC801A2
:100C50000E94D40580918501811114C00A501109A8
:100C6000C8010E94D4058E8990916B02981710F4E8
:100C700080936B02B9E08B9FC0011124B801895B9E
:100C80009D4F03C0B8018EE392E00E94F805E09109
:100C90006D02F0916E029E898689891720F481E0A9
:100CA0008093650101C080E0DF91CF911F910F918A
:100CB0000895EF92FF920F931F93CF93DF93EC0170
:100CC0000FB6F8940F921E8D7C0181E1E80EF11CA5
:100CD00001E011165CF48989882341F0C7010E9464
:100CE00019068111009365011150F3CF8FEF8E8F9C
:100CF0000F900FBE0FB6F8940F921D8D7E0188E005
:100D0000E80EF11C01E011165CF48885882341F09F
:100D1000C7010E9419068111009365011150F3CF9C
:100D20008FEF8D8F0F900FBEDF91CF911F910F919D
:100D3000FF90EF9008950F920FB6F8940F921F92C4
:100D400011242F923F924F925F926F927F928F92D7
:100D50009F92AF92BF92CF92DF92EF92FF920F934A
:100D60001F932F933F934F935F936F937F938F9333
:100D70009F93AF93BF93CF93DF93EF93FF93A09194
:100D80006D02B0916E020DB60D920EB60D9280916D
:100D90008501882321F081E0809365015EC0109277
:100DA0006501A0916D02B0916E02E0916D02F0912B
:100DB0006E022D913C918789908D82179307A8F040
:100DC00080916D0290916E0280916D0290916E0201
:100DD000259A2D9A2FEF87EA91E621508040904086
:100DE000E1F700C000001D9AF5CF80916B0269E029
:100DF00001C08150482F50E0649F9001659F300DE5
:100E00001124F901E95BFD4F9081992391F3A181B0
:100E1000B28112960D90BC91A02DB283A183265B66
:100E20003D4FA217B30731F412962D913C911397C1
:100E30003283218399E0949FF001959FF00D112456
:100E4000E95BFD4F0180F281E02D268137813093EF
:100E50006E0220936D0280936B02A0916D02B0919F
:100E60006E02CD91CDBFDD91DEBFFF91EF91DF919D
:100E7000CF91BF91AF919F918F917F916F915F9132
:100E80004F913F912F911F910F91FF90EF90DF9025
:100E9000CF90BF90AF909F908F907F906F905F901A
:100EA0004F903F902F901F900F900FBE0F9008957E
:100EB0008F929F92AF92BF92CF92DF92EF92FF926A
:100EC0000F931F93CF93DF930FB6F8940F928091F7
:100ED000850181508093850180918501882311F0DF
:100EE00080E0F2C080916F028823D1F3C0E0D0E0AF
:100EF00029E0F22EEE24E39480913E02882351F102
:100F0000E0914302F0914402C681D781CE010C9654
:100F10000E94D4058E010E5F1F4FC8010E94D405A8
:100F20008E8990916B02981710F480936B02F89E53
:100F3000C0011124B801895B9D4F0E94F805E09122
:100F40006D02F0916E029E8986899817A8F2E09250
:100F50006501D2CFCD2B11F00E949100E090640189
:100F6000EE2009F4A9C089E0982E88248394CC242B
:100F7000CA94DC2C8091850181118CC0C0918801BC
:100F8000D09189012196D0938901C093880120973F
:100F9000B9F480912A0290912B022091280230917D
:100FA000290230932B0220932A02909329028093E6
:100FB000280280918A018F5F80938A010E949100AC
:100FC0008091670190916801F12CC817D90708F446
:100FD00051C0E0912A02F0912B028081811105C05D
:100FE000D0926801C092670145C0E0912A02F09159
:100FF0002B020580F681E02D06811781D80112961B
:101000008D919C911397C817D90728F49093680184
:10101000809367012FC05801B2E0AB0EB11CC5012F
:101020000E94D405F80184899589892B21F0C80193
:101030000C960E94D405D80156968C9190916B0223
:10104000981710F480936B02989EC0011124B5018B
:10105000895B9D4F0E94F805E0916D02F0916E0250
:10106000D80156969C918689981708F4B2CFFF2430
:10107000F394AFCFE0916D02F0916E02E6899E9EEF
:10108000F0011124E95BFD4F8081823048F0FF249C
:10109000F39406C0809164018F5F80936401F12C0A
:1010A00080916501811101C0F11080926501EA947F
:1010B000E11060CF1092640180916501882309F4EA
:1010C0000FCF0E949B0681E00F900FBEDF91CF9162
:1010D0001F910F91FF90EF90DF90CF90BF90AF9056
:1010E0009F908F9008950F931F93CF93DF938C0160
:1010F000FB01808191818F3F2FEF920721F4E8015E
:10110000AF81B8850EC0D801139612962D913C91EF
:101110001397E901488159818417950710F0D90187
:10112000F4CF12968D919C91139793838283EC0157
:10113000FD83EC83B583A4831396FC93EE931297FF
:1011400011870087F80180818F5F8083DF91CF91C5
:101150001F910F910895FF920F931F93CF93DF93E9
:10116000EC01F62E009188011091890180916D02A9
:1011700090916E0202960E94D405CF3F8FEFD80760
:1011800089F4FF2079F060916D0270916E026E5FBC
:101190007F4F8CE292E0DF91CF911F910F91FF90F2
:1011A0000C94F805C00FD11FE0916D02F0916E0212
:1011B000D383C28360916D0270916E02C017D10714
:1011C00068F480912802909129026E5F7F4FDF9131
:1011D000CF911F910F91FF900C94730880912A0278
:1011E00090912B026E5F7F4F0E9473088091670180
:1011F00090916801C817D90720F4D0936801C09373
:101200006701DF91CF911F910F91FF900895FC012D
:101210000396928381832FEF3FEF3483238396835A
:1012200085839087878310820895CF93DF930097FB
:1012300051F0EC010E94C005CE010E940110DF9127
:10124000CF910C945807DF91CF910895CF93DF93FE
:10125000EC010E94C005CE010E94690FEC010E94C2
:101260005807209769F4259A2D9A2FEF80E792E08E
:10127000215080409040E1F700C000001D9AF5CF5A
:10128000CE01DF91CF910895FC0173836283918732
:1012900080874617570778F0421B530B8485958546
:1012A00048175907C8F4BF016E5F7F4F80916B01EB
:1012B00090916C010DC04217530718F46217730721
:1012C00058F4BF016E5F7F4F80916D0190916E0168
:1012D0000E94730880E0089581E00895EF92FF92E4
:1012E0000F931F93CF93DF93E0916D01F0916E0107
:1012F0008081882369F10580F681E02D00811181CC
:10130000C681D7817E0182E0E80EF11CC7010E94F0
:10131000D405E889F989CE0109958A8982FFE4CF4D
:101320008C859D85800F911F0817190760F49B839A
:101330008A83D987C887B70180916D0190916E012A
:101340000E947308D1CFB801CE010E943A0FCCCFD2
:1013500080916B0190916C0190936E0180936D016F
:10136000F0936C01E0936B01DF91CF911F910F918E
:10137000FF90EF900895CF93DF93CDB7DEB72A9714
:101380000FB6F894DEBF0FBECDBFE0916D01F091B6
:101390006E01F080FF2031F00580F681E02D0081A4
:1013A000118102C000E010E00E94C0050E94B60555
:1013B0006C018091690190916A01C816D90620F4E8
:1013C0000E946E0981E001C080E0D0926A01C09263
:1013D0006901811179C0FF20A9F1C016D106D0F1B1
:1013E0000E945807E0916D01F0916E010580F68131
:1013F000E02DE680F780C70102960E94D405D70150
:1014000052968C91529782FF12C01C966D917C91DE
:101410001D97600F711F9801A601C7010E94440922
:10142000882341F0B801C7010E943A0F03C08E7FA4
:10143000F701828BD7015096ED91FC915197C7012E
:101440000995C6C0E0916B01F0916C018081BB24CD
:10145000B3948111B12CE0908601F09087010FB612
:10146000F8940F92F701858D8F3F09F4158ED701FF
:101470005E968C915E978F3F11F45E961C920F9052
:101480000FBEF701828D811115C060916D027091C0
:101490006E02645F7F4FC70141960E94F805B1104C
:1014A00004C0C8018C199D0902C08FEF9FEF6B2DFE
:1014B0000E94AB08C7010E9459060E94580781117B
:1014C00087C00E949B0684C00E94580781C081117A
:1014D00009C080918A018E83809188019091890151
:1014E00098878F830F900FBE0E94C0050FB6F894A7
:1014F0000F92D8015D968C915D978F3F11F45D96A8
:101500001C92F801868D8F3F09F4168E0F900FBE46
:10151000BE01675F7F4FCE0106960E948005811154
:10152000DDC0C8010E94C605882309F4D1C0E98442
:10153000FA8460916D0270916E02645F7F4FC60104
:101540000E94730861E0C7010E94AB08C8010E94B5
:1015500059060E945807882309F4B7C081E00FB6E6
:10156000F8940F92F801F28CFF2009F4A6C0448D84
:1015700041113AC0FA94F801F28E808581114EC073
:101580000F900FBEF980F7FC23C00C811D81D8019C
:101590001A968D919C911B97892B21F0C801029678
:1015A0000E94D4050E94B6056C018091690190915A
:1015B0006A01C816D90610F40E946E09D0926A0119
:1015C000C0926901EF2DFF0CFF0BEA30F10580F1AD
:1015D00000918601109187011A86198680E06801C2
:1015E000B1E1CB0ED11CBBCF50E086819781840F37
:1015F000951F97838683248135818217930720F076
:101600008081918197838683D80116966D917C9114
:101610001797CE0101960E948F10ACCFC801089693
:101620000E941906882309F4ABCF0E949B06A8CF1D
:10163000EC5CFF4FD80152968C910C94630F816043
:10164000F801828BEA80FB80648575856E0D7F1DB5
:101650009701A601C8010E944409882309F4B8CF64
:10166000D8015096ED91FC915197C8010995F80168
:10167000828982FFADCF648575856E0D7F1DC8019F
:101680000E943A0FA5CF8160F801828B6A817B812D
:10169000758764876C0D7D1D9601A601C8010E94A7
:1016A000440996CF81FD04C0C8010E94150990CF5E
:1016B0008E7FD80152968C938BCF29853A85232B28
:1016C00009F005CF0F900FBE60CE0E949B0646CF5B
:1016D000C8010E9459060E94580740CFC8010E94C5
:1016E00059060E945807C8010E94C605882309F4BC
:1016F00035CF4BCE789484B5826084BD84B581604B
:1017000084BD85B5826085BD85B5816085BD8091CC
:101710006E00816080936E00109281008091810044
:10172000826080938100809181008160809381003C
:10173000809180008160809380008091B1008460FE
:101740008093B1008091B00081608093B00080915F
:101750007A00846080937A0080917A00826080931E
:101760007A0080917A00816080937A0080917A007B
:10177000806880937A001092C1000E94400103E8C3
:1017800011E020E040EC50E065E571E082E191E09D
:101790000E94B00D813009F0B4C00FB6F8940F92DA
:1017A0008091860190918701892B09F050C088E7CC
:1017B00091E00E9407098FE691E00E94070988E7FF
:1017C00091E090936E0180936D018FE691E090938C
:1017D0006C0180936B0181E590E00E942609EC0189
:1017E000009789F14F96998388838AE08B8F85E0F3
:1017F0008C8F0FB6F8940F92488159818B8D6C8D28
:101800009A01869F200D311D11243D832C831A8E51
:101810005B834A8390E00197689F9001699F300D38
:101820001124CA01820F931F9F838E838FEF8D8FA8
:101830008E8FCE0108960E940709CE0141960E9424
:1018400007090F900FBED0938701C09386010F90B8
:101850000FBE8091860190918701892B09F451C0B8
:1018600001E811E023E045E550E06AE571E08BEB2B
:1018700099E00E94B00D813009F043C0F8942FEF39
:101880003FEF309368012093670180936C021092C0
:10189000890110928801A89590EC88E10FB6F89420
:1018A000A895809360000FBE90936000A0916D0298
:1018B000B0916E02CD91CDBFDD91DEBFFF91EF9172
:1018C000DF91CF91BF91AF919F918F917F916F9158
:1018D0005F914F913F912F911F910F91FF90EF904A
:1018E000DF90CF90BF90AF909F908F907F906F9040
:1018F0005F904F903F902F901F900F900FBE0F90D2
:1019000008950E9440010E949202FDCFEBE8F1E0B1
:101910001382128288EE93E0A0E0B0E08483958386
:10192000A683B7838AE091E09183808385EC90E081
:101930009587848784EC90E09787868780EC90E099
:10194000918B808B81EC90E0938B828B82EC90E08A
:10195000958B848B86EC90E0978B868B118E128E04
:10196000138E148E0895AF92BF92CF92DF92EF92B2
:10197000FF920F931F93CF93DF9300D000D01F925D
:10198000CDB7DEB78C017B011D821C8280E068012F
:1019900098E0C90ED11C0FB6F8940F92F801228D71
:1019A000938D291708F06DC0D28C448D41113FC032
:1019B00080819181892B09F052C0F801E480F58083
:1019C000E114F10411F480E02EC0F70182A18150EE
:1019D00082A3268991A12917B1F38111F4CF570170
:1019E000F2E0AF0EB11CC5010E94D405F70181A140
:1019F000868B482F50E024E030E0241B350B3587E0
:101A0000248790916B02981710F480936B0229E061
:101A1000249FC001259F900D1124B501895B9D4F26
:101A20000E94F80581E0F8011582148219C050E087
:101A3000B701F801828193810E948F10F801248DF3
:101A400082819381820F911D9383828324813581CA
:101A50008217930720F0808191819383828380E0B5
:101A6000D394F801D28E9189992321F0C80141962F
:101A70000E94190681110E949B060F900FBE81E003
:101A80005FC02C813D81232B19F40F900FBE57C0EE
:101A9000811109C080918A01898380918801909188
:101AA00089019B838A830F900FBE0E94C0050FB6E9
:101AB000F8940F92F801858D8F3F09F4158EF80187
:101AC000868D8F3F09F4168E0F900FBEBE016C5F9E
:101AD0007F4FCE0101960E94800581112BC00FB669
:101AE000F8940F92F801928D838D0F900FBE98138A
:101AF0001BC0AC80BD8060916D0270916E02645F0E
:101B00007F4FC6010E94730861E0C5010E94AB08C7
:101B1000C8010E9459060E945807882311F081E0ED
:101B20003ACF0E949B06FBCFC8010E9459060E9433
:101B30005807F5CFC8010E9459060E94580780E057
:101B40000F900F900F900F900F90DF91CF911F91FA
:101B50000F91FF90EF90DF90CF90BF90AF900895DE
:101B60007F928F929F92AF92BF92CF92DF92EF922D
:101B7000FF920F931F93CF93DF93782EA92E6B01C3
:101B8000EA01B22ECA010E9426094C01892B09F4F0
:101B900062C188E290E00E9426097C010097E9F08A
:101BA000DC0158969C928E925797AE0165EA70E0E0
:101BB000C4010E9498102197D7015796ED91FC918E
:101BC0005897EC0FFD1FC114D104D9F0B701675E1F
:101BD0007F4FD601C601089607C0C4010E941509AF
:101BE0003AC1A817B90749F09D014D91EB014993FE
:101BF000BE01E90128812111F4CFD70190961C92F2
:101C000002C0E701198E8B2D843008F083E0D701E4
:101C100056968C93569791968C93919792961C9288
:101C200092971B961C921E921A9755961C921E9282
:101C300054971996FC92EE92189724E030E0E9014F
:101C4000C81BD1091D96DC93CE931C975396FC922A
:101C5000EE92529793961D921D921D921C9296970A
:101C600097961C9291E19083DF01119782E28C9309
:101C7000119723E32C9311977C921197AC921197B3
:101C80001C92119720E82C9311971C92119722E037
:101C90002C93119723E02C93119724E02C93119708
:101CA00025E02C93119726E02C93119727E02C9395
:101CB000119728E02C93119729E02C93119720E19C
:101CC0002C9311979C93119792E19C93119793E118
:101CD0009C93119794E19C93119795E19C93119794
:101CE00096E19C93119797E19C93119798E19C93AF
:101CF000119799E19C93119790E29C93119791E22F
:101D00009C9311978C93119783E28C9311971C925B
:101D100011971C92119786E28C93119787E28C930E
:101D2000119788E28C93119789E28C93119780E345
:101D30008C93119781E38C93B697E701F983E8833D
:101D40000115110519F0F801F182E0820FB6F8943F
:101D50000F9280916F028F5F80936F0280916D026E
:101D600090916E02892BD1F5F0926E02E0926D0295
:101D700080916F02813009F043C087E492E00E94B5
:101D8000070980E592E00E94070989E592E00E9438
:101D9000070982E692E00E94070982E892E00E9429
:101DA000070989E792E00E9407098EE392E00E940A
:101DB000070985E392E00E9407098CE292E00E9405
:101DC000070982E892E090932B0280932A0289E728
:101DD00092E0909329028093280212C080916C02B5
:101DE00081110EC0E0916D02F0916E029689D701CB
:101DF00056968C91891720F0F0926E02E0926D0257
:101E000080918B028F5F80938B02E7018E89909186
:101E10006B02981710F480936B02D9E08D9FC0017C
:101E20001124B7016E5F7F4F895B9D4F0E94F805BB
:101E30000F900FBE80916C02882359F0E0916D02E3
:101E4000F0916E029689F7018689981710F40E9426
:101E50009B0681E001C08FEFDF91CF911F910F9121
:101E6000FF90EF90DF90CF90BF90AF909F908F90BA
:101E70007F900895CF93DF9300D000D01F92CDB70D
:101E8000DEB79C018091860190918701009761F0F7
:101E900019827B836A833D832C8320916C022223E9
:101EA00029F02091850102C080E005C0BE016F5F6E
:101EB0007F4F0E94B30C0F900F900F900F900F90D8
:101EC000DF91CF910895EE0FFF1F0590F491E02D63
:101ED00009940F931F93CF93DF938230910510F4F1
:101EE00082E090E0E0918E02F0918F0220E030E0FD
:101EF000A0E0B0E0309719F1408151810281138157
:101F000048175907C8F08417950769F4109731F0FE
:101F100012960C93129713961C9327C000938E026F
:101F200010938F0222C02115310519F04217530773
:101F300018F49A01BD01EF01DF01F801DBCF211593
:101F40003105F9F0281B390B2430310580F48A81E2
:101F50009B816115710521F0FB019383828304C08D
:101F600090938F0280938E02FE01329644C0FE0150
:101F7000E20FF31F81939193225031093983288313
:101F80003AC020918C0230918D02232B41F4209194
:101F900002013091030130938D0220938C02209135
:101FA0000001309101012115310541F42DB73EB7F3
:101FB0004091040150910501241B350BE0918C02E6
:101FC000F0918D02E217F307A0F42E1B3F0B2817A8
:101FD000390778F0AC014E5F5F4F2417350748F0A2
:101FE0004E0F5F1F50938D0240938C02819391930B
:101FF00002C0E0E0F0E0CF01DF91CF911F910F919F
:102000000895CF93DF93009709F481C0FC013297C4
:1020100013821282A0918E02B0918F02109781F4E8
:1020200020813181820F931F20918C0230918D028B
:102030002817390751F5F0938D02E0938C0267C0A1
:10204000ED0120E030E0CE17DF0740F44A815B81EC
:102050009E0141155105F1F0EA01F5CFD383C2830A
:1020600040815181840F951FC817D90759F4888181
:102070009981840F951F0296918380838A819B8129
:10208000938382832115310529F4F0938F02E09325
:102090008E023DC0E901FB83EA8349915991C40F47
:1020A000D51FEC17FD0761F480819181840F951F86
:1020B0000296E90199838883828193819B838A8335
:1020C000E0E0F0E012968D919C911397009719F043
:1020D000FD01DC01F7CF8D919C9111979D012E5F41
:1020E0003F4F820F931F20918C0230918D02281751
:1020F000390769F4309729F410928F0210928E02FA
:1021000002C013821282B0938D02A0938C02DF91E1
:10211000CF91089581E090E0F8940C949F10FB011A
:10212000DC0102C001900D9241505040D8F7089553
:10213000DC0101C06D9341505040E0F70895F894E0
:02214000FFCFCF
:102142000000900280000000000023028C01BA010E
:102152007002EB01C901DD01536567756972467250
:10216200656E746520000D0A00766972616E646F97
:1021720020612064697265697461005365677569DD
:10218200724672656E746500566972617244697254
:10219200656974610049444C4500546D7220537660
:0221A2006300D8
:107E0000112484B714BE81FFF0D085E080938100F7
:107E100082E08093C00088E18093C10086E0809377
:107E2000C20080E18093C4008EE0C9D0259A86E02C
:107E300020E33CEF91E0309385002093840096BBD3
:107E4000B09BFECF1D9AA8958150A9F7CC24DD24C4
:107E500088248394B5E0AB2EA1E19A2EF3E0BF2EE7
:107E6000A2D0813461F49FD0082FAFD0023811F036
:107E7000013811F484E001C083E08DD089C08234E0
:107E800011F484E103C0853419F485E0A6D080C0E4
:107E9000853579F488D0E82EFF2485D0082F10E0AE
:107EA000102F00270E291F29000F111F8ED06801E7
:107EB0006FC0863521F484E090D080E0DECF843638
:107EC00009F040C070D06FD0082F6DD080E0C81688
:107ED00080E7D80618F4F601B7BEE895C0E0D1E017
:107EE00062D089930C17E1F7F0E0CF16F0E7DF06D8
:107EF00018F0F601B7BEE89568D007B600FCFDCFD4
:107F0000A601A0E0B1E02C9130E011968C91119780
:107F100090E0982F8827822B932B1296FA010C0160
:107F200087BEE89511244E5F5F4FF1E0A038BF0790
:107F300051F7F601A7BEE89507B600FCFDCF97BE46
:107F4000E89526C08437B1F42ED02DD0F82E2BD052
:107F50003CD0F601EF2C8F010F5F1F4F84911BD097
:107F6000EA94F801C1F70894C11CD11CFA94CF0C13
:107F7000D11C0EC0853739F428D08EE10CD085E9AC
:107F80000AD08FE07ACF813511F488E018D01DD067
:107F900080E101D065CF982F8091C00085FFFCCF94
:107FA0009093C60008958091C00087FFFCCF809118
:107FB000C00084FD01C0A8958091C6000895E0E648
:107FC000F0E098E1908380830895EDDF803219F02E
:107FD00088E0F5DFFFCF84E1DECF1F93182FE3DFCA
:107FE0001150E9F7F2DF1F91089580E0E8DFEE27F6
:047FF000FF270994CA
:027FFE00040479
:0400000300007E007B
:00000001FF
