:100000000C9453000C947B000C947B000C947B00AC
:100010000C947B000C947B000C947B000C947B0074
:100020000C947B000C947B000C947B000C947B0064
:100030000C947B000C94E9030C947B000C947B00E3
:100040000C9447030C947B000C94B7030C9491031D
:100050000C947B000C947B000C947B000C947B0034
:100060000C947B000C947B0000000000250028000D
:100070002B0000000000240027002A0004040404D0
:100080000404040402020202020203030303030342
:10009000010204081020408001020408102001021F
:1000A00004081020960611241FBECFEFD8E0DEBF53
:1000B000CDBF11E0A0E0B1E0ECE5F2E102C00590B7
:1000C0000D92A833B107D9F723E0A8E3B1E001C04E
:1000D0001D92AC37B207E1F710E0C3E5D0E004C0F1
:1000E0002197FE010E942109C235D107C9F70E945C
:1000F00010040C942C090C9400003FB7F8948091E4
:10010000DB029091DC02A091DD02B091DE0226B507
:10011000A89B05C02F3F19F00196A11DB11D3FBF3F
:10012000BA2FA92F982F8827820F911DA11DB11DCD
:10013000BC01CD0142E0660F771F881F991F4A95C9
:10014000D1F70895CF92DF92EF92FF920F931F9312
:10015000CF93DF936C017A018B01C0E0D0E0CE1524
:10016000DF0581F0D8016D918D01D601ED91FC91F3
:100170000190F081E02DC6010995892B11F021969F
:10018000EECF7E01C701DF91CF911F910F91FF90BC
:10019000EF90DF90CF900895089580E090E008956B
:1001A000FC01538D448D252F30E0842F90E0821B7D
:1001B000930B541710F0CF96089501970895FC0102
:1001C000918D828D981761F0828DDF01A80FB11D8E
:1001D0005D968C91928D9F5F9F73928F90E00895B2
:1001E0008FEF9FEF0895FC01918D828D981731F06C
:1001F000828DE80FF11D858D90E008958FEF9FEFC0
:100200000895FC01918D228D892F90E0805C9F4F95
:10021000821B91098F73992708958FED92E00E94B8
:10022000010121E0892B09F420E0822F0895FC01CF
:10023000848DDF01A80FB11DA35ABF4F2C91848D6F
:1002400090E001968F739927848FA689B7892C93A4
:10025000A089B1898C91837080648C93938D848DF7
:10026000981306C00288F389E02D80818F7D8083FA
:100270000895EF92FF920F931F93CF93DF93EC01BA
:1002800081E0888F9B8D8C8D981305C0E889F98952
:10029000808185FD26C0F62E0B8D10E00F5F1F4F6D
:1002A0000F731127E02E8C8DE8120CC00FB607FCDF
:1002B000FACFE889F989808185FFF5CFCE010E94C8
:1002C0001701F1CF8B8DFE01E80FF11DE35AFF4FAF
:1002D000F0829FB7F8940B8FEA89FB898081806256
:1002E0000AC09FB7F894EE89FF896083E889F9898D
:1002F00080818370806480839FBF81E090E0DF9184
:10030000CF911F910F91FF90EF900895CF93DF93BE
:10031000EC01888D8823C9F0EA89FB89808185FDFD
:1003200005C0A889B9898C9186FD0FC00FB607FC5E
:10033000F5CF808185FFF2CFA889B9898C9185FF9F
:10034000EDCFCE010E941701E7CFDF91CF91089545
:1003500080E090E0892B29F00E940D0181110C941E
:1003600000000895009769F0FC0101900020E9F772
:100370003197AF01481B590BBC018FED92E00C94F3
:10038000A20080E090E008952F923F924F925F92FA
:100390006F927F928F929F92AF92BF92CF92DF9295
:1003A000EF92FF920F931F93CF93DF93CDB7DEB7FA
:1003B000A4970FB6F894DEBF0FBECDBF4B015C0112
:1003C000F42E9B01AC010E94FA08882319F082E107
:1003D00091E027C024013501E89477F82FEF3FEF33
:1003E0004FE75FE7C301B2010E94FA0881110DC017
:1003F0002FEF3FEF4FE75FE7C301B2010E943007E5
:1004000018161CF486E191E00CC02FEF3FEF4FE788
:100410005FE4C501B4010E94880818162CF48AE133
:1004200091E00E94B201B8C02FEF3FEF4FE75FECC1
:10043000C501B4010E94300787FDF1CF20E030E014
:10044000A901C501B4010E94300787FF0BC06DE20E
:100450008FED92E00E9439013C01B7FAB094B7F8F1
:10046000B09402C0612C712C10E060E070E080E07C
:100470009FE3F11641F020E030E040E251E40E94B9
:1004800035071F5FF6CFA50194010E94C4064B01FA
:100490005C010E94A7076AA3C72ED82EE92E19A2D5
:1004A000262F372F482F592F8E010F5D1F4F0BA37B
:1004B0001CA39AE0292E312C412C512CCA01B901E0
:1004C000A20191010E94FF08605DF80162938F0113
:1004D000211531054105510589F7CF010E94B2016F
:1004E0008301080F191FFF2009F455C06AA17C2D54
:1004F0008D2D9E2D0E94D6079B01AC01C501B40134
:100500000E94C3064B015C016EE28FED92E00E94F7
:100510003901080F191F8AE0282E312C412C512C4B
:1005200020E030E040E251E4C501B4010E948D08B2
:100530004B015C010E94A7079B0140E050E019A21B
:10054000CBA0DCA0762E3AA3642EE52ECA01B90119
:10055000A20191010E94FF08605DF60162936F01A4
:10056000211531054105510589F7CF010E94B201DE
:10057000080F191F672D7AA1862D9E2D0E94D60780
:100580009B01AC01C501B4010E94C3064B015C0193
:10059000FA94F110C5CFC801A4960FB6F894DEBF47
:1005A0000FBECDBFDF91CF911F910F91FF90EF90C4
:1005B000DF90CF90BF90AF909F908F907F906F9083
:1005C0005F904F903F902F900895CF92DF92EF92DF
:1005D000FF9220913801309139018091D0029091A1
:1005E000D102281739070CF045C00E947D0080E435
:1005F00080937C0080917A00806480937A0080915F
:100600007A0086FDFCCF609178008091790070E0DF
:10061000782B072E000C880B990B0E94D8072AE034
:1006200038E240EA5BE30E948D086B017C010E9486
:100630007D008091380190913901FC01EE0FFF1F80
:10064000EE0FFF1FE05CFE4FC082D182E282F38298
:100650000196909339018093380142E0C701B601B9
:100660000E94C4018EE191E0FF90EF90DF90CF9067
:100670000C94B20181E090E09093D5028093D40273
:10068000FF90EF90DF90CF9008950E9427091F926E
:100690000F920FB60F9211242F933F938F939F9336
:1006A000AF93BF938091D7029091D802A091D902C5
:1006B000B091DA023091D60223E0230F2D3720F4D7
:1006C0000196A11DB11D05C026E8230F0296A11DAC
:1006D000B11D2093D6028093D7029093D802A093A5
:1006E000D902B093DA028091DB029091DC02A091F2
:1006F000DD02B091DE020196A11DB11D8093DB02E7
:100700009093DC02A093DD02B093DE02BF91AF9123
:100710009F918F913F912F910F900FBE0F901F903F
:1007200018951F920F920FB60F9211242F933F939B
:100730004F935F936F937F938F939F93AF93BF93E9
:10074000EF93FF938FED92E00E941701FF91EF91DD
:10075000BF91AF919F918F917F916F915F914F91D9
:100760003F912F910F900FBE0F901F9018951F92E1
:100770000F920FB60F9211242F938F939F93EF93A5
:10078000FF93E091EF02F091F0028081E091F50299
:10079000F091F60282FD12C090818091F8028F5F85
:1007A0008F732091F902821751F0E091F802F0E086
:1007B000E152FD4F958F8093F80201C08081FF9137
:1007C000EF919F918F912F910F900FBE0F901F90DF
:1007D00018951F920F920FB60F9211242F933F93EB
:1007E0004F935F936F937F938F939F93AF93BF9339
:1007F000EF93FF93E0913E01F0913F010995FF9146
:10080000EF91BF91AF919F918F917F916F915F9188
:100810004F913F912F910F900FBE0F901F90189501
:10082000CF93DF93CDB7DEB72A970FB6F894DEBF2C
:100830000FBECDBF789484B5826084BD84B58160DD
:1008400084BD85B5826085BD85B5816085BD80919B
:100850006E00816080936E00109281008091810013
:10086000826080938100809181008160809381000B
:10087000809180008160809380008091B1008460CD
:100880008093B1008091B00081608093B00080912E
:100890007A00846080937A0080917A0082608093ED
:1008A0007A0080917A00816080937A0080917A004A
:1008B000806880937A001092C100E091EF02F0917D
:1008C000F00282E08083E091EB02F091EC02108272
:1008D000E091ED02F091EE028FEC80831092F7022E
:1008E000E091F302F091F40286E08083E091F1025E
:1008F000F091F202808180618083E091F102F091B9
:10090000F202808188608083E091F102F091F2022E
:10091000808180688083E091F102F091F202808111
:100920008F7D808380917A00887F80937A001092F7
:10093000800080E18093810021E020933C018FB70B
:1009400080933D01F89480E49FE190933B01809374
:100950003A01909387008093860080913D018FBF7C
:1009600080918100887F80938100909181008091A7
:100970003C01982B9093810045EE52E050933F014B
:1009800040933E0120936F0090918100892B8093CA
:100990008100EEE9F0E02491EAE8F0E08491882318
:1009A000C9F090E0880F991FFC01EE58FF4F459168
:1009B0005491FC01E859FF4FA591B4919FB7F89469
:1009C000FA0180812095822380838C91E22FE82395
:1009D000EC939FBF82E390E09093D1028093D0028A
:1009E00010923901109238011092D5021092D4025F
:1009F0008091D4029091D502892B09F494C1809101
:100A0000D2029091D302892B09F08DC14DB75EB708
:100A10005E834D83F8946DB77EB76C5271090FB643
:100A2000F8947EBF0FBE6DBFEDB7FEB73196ADB780
:100A3000BEB711961D921D921D921C92149749E308
:100A40005CE767E47BE3448355836683778364E3F1
:100A50007EE28DE49CE3608771878287938780EADA
:100A60009EE5A3E4BDEB84879587A687B7874BE611
:100A700056EA63E87EEB408B518B628B738B63EE9F
:100A80007FE989E19FE3648B758B868B978B8BE67F
:100A900096EAA3E8BEEB808F918FA28FB38F40EAD6
:100AA0005EE563E47DEB448F558F668F778F64E35B
:100AB0007EE28DE49CE360A371A382A393A389E308
:100AC0009CE7A7E4BBE384A395A3A6A3B7A310A6C2
:100AD00011A612A613A62091D0023091D102ADB773
:100AE000BEB79C970FB6F894BEBF0FBEADBF4DB753
:100AF0005EB74F5F5F4F5A834983C901880F991FC3
:100B0000880F991F6DB77EB7681B790B0FB6F894E5
:100B10007EBF0FBE6DBFADB7BEB711963D01AC0134
:100B2000485D5F4F641B750B0FB6F8947EBF0FBE18
:100B30006DBFADB7BEB711965D014901B4E18B0E33
:100B4000911C805B9F4F4DB75EB7481B590B0FB68A
:100B5000F8945EBF0FBE4DBF6DB77EB76F5F7F4F1E
:100B60002B01BC82AB8260E471E0A301FA87E987C4
:100B7000A981BA81B886AF8280E090E01901EAE0ED
:100B80002E0E311C821593057CF58B3091055CF49B
:100B9000E985FA85C080D180E280F380CD92DD9234
:100BA000ED92FC9213978217930754F4FB01C080D7
:100BB000D180E280F380FA01C082D182E282F382A6
:100BC000EF81F8851192119211921192F887EF83BB
:100BD00001966C5F7F4F4C5F5F4FE985FA853496D5
:100BE000FA87E9871496CECF8201F20180E090E087
:100BF00020E030E088159905FCF48A309105ACF0CE
:100C00008215930594F4D901AA0FBB1FAA0FBB1F2D
:100C1000A60DB71D4D915D916D917C9140835183DF
:100C2000628373832F5F3F4F04C010821182128250
:100C3000138201963496DECF6501E12CF12CE2148B
:100C4000F30494F5D6014D905D906D907C90A98051
:100C5000BA80BCE2AB0EB11C4801F4016191719104
:100C6000819191914F01D5015E914E913E912E91CE
:100C70005D010E948D089B01AC01C301B2010E947D
:100C8000C4062B013C01E981FA81EA15FB0529F72D
:100C9000D6016D937D938D939D936D01BFEFEB1AFC
:100CA000FB0A0C5F1F4FCBCF81E291E00E94B201A3
:100CB0008EE291E00E94B2018EE191E00E94B201C9
:100CC00000E010E002151305CCF40115110521F028
:100CD00081E391E00E94B201EB81FC81619171910D
:100CE00081919191FC83EB8342E00E94C4018EE1EB
:100CF00091E00E94B2010F5F1F4FE4CF84E391E0C7
:100D00000E94B2018EE191E00E94B20141E050E008
:100D10005093D3024093D2026D817E810FB6F89436
:100D20007EBF0FBE6DBF0E94A80162CEEFEDF2E064
:100D30001382128288EE93E0A0E0B0E08483958372
:100D4000A683B78384E091E09183808385EC90E073
:100D50009587848784EC90E09787868780EC90E085
:100D6000918B808B81EC90E0938B828B82EC90E076
:100D7000958B848B86EC90E0978B868B118E128EF0
:100D8000138E148E08955058BB27AA270E94DB06A5
:100D90000C944E080E94400838F00E94470820F04A
:100DA00039F49F3F19F426F40C943D080EF4E095B5
:100DB000E7FB0C943708E92F0E945F0858F3BA1735
:100DC000620773078407950720F079F4A6F50C9461
:100DD00081080EF4E0950B2EBA2FA02D0B01B9015E
:100DE00090010C01CA01A0011124FF27591B99F0A1
:100DF000593F50F4503E68F11A16F040A22F232FAD
:100E0000342F4427585FF3CF469537952795A795FC
:100E1000F0405395C9F77EF41F16BA0B620B730BA3
:100E2000840BBAF09150A1F0FF0FBB1F661F771F14
:100E3000881FC2F70EC0BA0F621F731F841F48F4C9
:100E4000879577956795B795F7959E3F08F0B0CF52
:100E50009395880F08F09927EE0F97958795089539
:100E60000E94130808F481E008950E9449070C9439
:100E70004E080E94470858F00E94400840F029F4AC
:100E80005F3F29F00C94370851110C9482080C94A0
:100E90003D080E945F0868F39923B1F3552391F34D
:100EA000951B550BBB27AA2762177307840738F0D9
:100EB0009F5F5F4F220F331F441FAA1FA9F335D036
:100EC0000E2E3AF0E0E832D091505040E695001CEA
:100ED000CAF72BD0FE2F29D0660F771F881FBB1FA4
:100EE000261737074807AB07B0E809F0BB0B802D82
:100EF000BF01FF2793585F4F3AF09E3F510578F0AE
:100F00000C9437080C9482085F3FE4F3983ED4F3C6
:100F1000869577956795B795F7959F5FC9F7880F81
:100F2000911D9695879597F90895E1E0660F771FD3
:100F3000881FBB1F621773078407BA0720F0621B64
:100F4000730B840BBA0BEE1F88F7E09508950E948F
:100F5000670888F09F5798F0B92F9927B751B0F0DC
:100F6000E1F0660F771F881F991F1AF0BA95C9F72D
:100F700014C0B13091F00E948108B1E008950C9442
:100F80008108672F782F8827B85F39F0B93FCCF3F5
:100F9000869577956795B395D9F73EF490958095AA
:100FA000709561957F4F8F4F9F4F0895E89409C0CA
:100FB00097FB3EF490958095709561957F4F8F4F8C
:100FC0009F4F9923A9F0F92F96E9BB279395F695A2
:100FD000879577956795B795F111F8CFFAF4BB0F20
:100FE00011F460FF1BC06F5F7F4F8F4F9F4F16C084
:100FF000882311F096E911C0772321F09EE8872F0E
:10100000762F05C0662371F096E8862F70E060E0C9
:101010002AF09A95660F771F881FDAF7880F969542
:10102000879597F90895990F0008550FAA0BE0E8E6
:10103000FEEF16161706E807F907C0F0121613069A
:10104000E407F50798F0621B730B840B950B39F4DA
:101050000A2661F0232B242B252B21F408950A2640
:1010600009F4A140A6958FEF811D811D089597F980
:101070009F6780E870E060E008959FEF80EC08953E
:1010800000240A9416161706180609060895002467
:101090000A9412161306140605060895092E0394E1
:1010A000000C11F4882352F0BB0F40F4BF2B11F455
:1010B00060FF04C06F5F7F4F8F4F9F4F089557FDB4
:1010C0009058440F551F59F05F3F71F04795880FB6
:1010D00097FB991F61F09F3F79F08795089512164D
:1010E00013061406551FF2CF4695F1DF08C01616F9
:1010F00017061806991FF1CF8695710561050894AA
:101100000895E894BB2766277727CB0197F90895C0
:101110000E94130808F48FEF08950E94A0080C9411
:101120004E080E94400838F00E94470820F095239E
:1011300011F00C9437080C943D0811240C9482088B
:101140000E945F0870F3959FC1F3950F50E0551F03
:10115000629FF001729FBB27F00DB11D639FAA270C
:10116000F00DB11DAA1F649F6627B00DA11D661F5B
:10117000829F2227B00DA11D621F739FB00DA11D7C
:10118000621F839FA00D611D221F749F3327A00D36
:10119000611D231F849F600D211D822F762F6A2FD2
:1011A00011249F5750409AF0F1F088234AF0EE0F37
:1011B000FF1FBB1F661F771F881F91505040A9F764
:1011C0009E3F510580F00C9437080C9482085F3FD5
:1011D000E4F3983ED4F3869577956795B795F795A0
:1011E000E7959F5FC1F7FE2B880F911D9695879518
:1011F00097F908950E941308880B990B0895A1E2AE
:101200001A2EAA1BBB1BFD010DC0AA1FBB1FEE1F80
:10121000FF1FA217B307E407F50720F0A21BB30BCB
:10122000E40BF50B661F771F881F991F1A9469F747
:1012300060957095809590959B01AC01BD01CF01A3
:101240000895EE0FFF1F0590F491E02D099481E0C1
:0C12500090E0F8940C942C09F894FFCF67
:10125C00000000003901A200D00086010101DF006E
:10126C00F3006E616E00696E66006F7666000D0AA3
:10127C00005665746F72436F6E76203D20005B20C4
:08128C0000202000205D00009D
:107E0000112484B714BE81FFF0D085E080938100F7
:107E100082E08093C00088E18093C10086E0809377
:107E2000C20080E18093C4008EE0C9D0259A86E02C
:107E300020E33CEF91E0309385002093840096BBD3
:107E4000B09BFECF1D9AA8958150A9F7CC24DD24C4
:107E500088248394B5E0AB2EA1E19A2EF3E0BF2EE7
:107E6000A2D0813461F49FD0082FAFD0023811F036
:107E7000013811F484E001C083E08DD089C08234E0
:107E800011F484E103C0853419F485E0A6D080C0E4
:107E9000853579F488D0E82EFF2485D0082F10E0AE
:107EA000102F00270E291F29000F111F8ED06801E7
:107EB0006FC0863521F484E090D080E0DECF843638
:107EC00009F040C070D06FD0082F6DD080E0C81688
:107ED00080E7D80618F4F601B7BEE895C0E0D1E017
:107EE00062D089930C17E1F7F0E0CF16F0E7DF06D8
:107EF00018F0F601B7BEE89568D007B600FCFDCFD4
:107F0000A601A0E0B1E02C9130E011968C91119780
:107F100090E0982F8827822B932B1296FA010C0160
:107F200087BEE89511244E5F5F4FF1E0A038BF0790
:107F300051F7F601A7BEE89507B600FCFDCF97BE46
:107F4000E89526C08437B1F42ED02DD0F82E2BD052
:107F50003CD0F601EF2C8F010F5F1F4F84911BD097
:107F6000EA94F801C1F70894C11CD11CFA94CF0C13
:107F7000D11C0EC0853739F428D08EE10CD085E9AC
:107F80000AD08FE07ACF813511F488E018D01DD067
:107F900080E101D065CF982F8091C00085FFFCCF94
:107FA0009093C60008958091C00087FFFCCF809118
:107FB000C00084FD01C0A8958091C6000895E0E648
:107FC000F0E098E1908380830895EDDF803219F02E
:107FD00088E0F5DFFFCF84E1DECF1F93182FE3DFCA
:107FE0001150E9F7F2DF1F91089580E0E8DFEE27F6
:047FF000FF270994CA
:027FFE00040479
:0400000300007E007B
:00000001FF
