:100000000C9458000C9480000C9480000C94800098
:100010000C9480000C9480000C9480000C94800060
:100020000C9480000C9480000C9480000C94800050
:100030000C9480000C9480000C9480000C94800040
:100040000C94CA030C9480000C943A040C9414048D
:100050000C9480000C9480000C9480000C94800020
:100060000C946C040C948000000000002500280013
:100070002B00040404040404040402020202020229
:10008000030303030303010204081020408001025C
:1000900004081020010204081020000000080002DB
:1000A00001000003040700000000000000009A05A2
:1000B00011241FBECFEFD8E0DEBFCDBF11E0A0E01E
:1000C000B1E0E0E3FEE002C005900D92AA36B10770
:1000D000D9F722E0AAE6B1E001C01D92A03DB20727
:1000E000E1F710E0C8E5D0E004C02197FE010E94CE
:1000F0000B07C735D107C9F70E94D3050C94160723
:100100000C94000090E0FC01E656FF4F2491FC01A6
:10011000EA57FF4F3491FC01EE58FF4FE491EE2374
:10012000B1F1222339F1233091F038F42130A9F0D4
:10013000223001F584B58F7D12C0273091F0283030
:10014000A1F02430B9F4809180008F7D03C08091AC
:1001500080008F77809380000DC084B58F7784BD39
:1001600009C08091B0008F7703C08091B0008F7D6F
:100170008093B000F0E0EE0FFF1FE859FF4FA5910C
:10018000B4918FB7F894EC91E32BEC938FBF089563
:1001900030912602313208F04BC080910202811169
:1001A000FCCF9091250222E02093020221E02093CF
:1001B00001022FEF209300021092FF013093FE0105
:1001C000E5E0F2E0AEEDB1E020E0321721F0419140
:1001D0004D932F5FFACF1092DD012091DD01990F31
:1001E000922B9093DD019091DC01913061F410929B
:1001F000DC019091DD019093BB009091BC0093FDD8
:10020000F8CF95EC01C095EE9093BC00909102025E
:100210009230E1F3909100029F3F79F080910002CB
:10022000803241F080910002803331F084E005C0DB
:1002300081E003C082E001C083E0109204021092CA
:1002400026021092030208953FB7F8948091D801D6
:100250009091D901A091DA01B091DB0126B5A89B5C
:1002600005C02F3F19F00196A11DB11D3FBFBA2F48
:10027000A92F982F8827820F911DA11DB11DBC01A8
:10028000CD0142E0660F771F881F991F4A95D1F76D
:1002900008958F929F92AF92BF92CF92DF92EF928A
:1002A000FF926B017C010E9424014B015C01C1148F
:1002B000D104E104F104F1F00E942401DC01CB013E
:1002C00088199909AA09BB09883E9340A105B1057F
:1002D00070F321E0C21AD108E108F10888EE880E17
:1002E00083E0981EA11CB11CC114D104E104F104E7
:1002F00019F7DDCFFF90EF90DF90CF90BF90AF90D8
:100300009F908F90089508950895CF92DF92EF9275
:10031000FF920F931F93CF93DF936C017A018B01B0
:10032000C0E0D0E0CE15DF0581F0D8016D918D01E0
:10033000D601ED91FC910190F081E02DC601099567
:10034000892B11F02196EECF7E01C701DF91CF916D
:100350001F910F91FF90EF90DF90CF900895FC01D7
:10036000538D448D252F30E0842F90E0821B930B1A
:10037000541710F0CF96089501970895FC01918DC0
:10038000828D981761F0828DDF01A80FB11D5D96F7
:100390008C91928D9F5F9F73928F90E008958FEF65
:1003A0009FEF0895FC01918D828D981731F0828D19
:1003B000E80FF11D858D90E008958FEF9FEF089570
:1003C000FC01918D228D892F90E0805C9F4F821BD4
:1003D00091098F739927089587E292E00E94E001C6
:1003E00021E0892B09F420E0822F0895FC01848DFF
:1003F000DF01A80FB11DA35ABF4F2C91848D90E04F
:1004000001968F739927848FA689B7892C93A08929
:10041000B1898C91837080648C93938D848D9813B3
:1004200006C00288F389E02D80818F7D8083089546
:10043000EF92FF920F931F93CF93DF93EC0181E034
:10044000888F9B8D8C8D981305C0E889F9898081F0
:1004500085FD26C0F62E0B8D10E00F5F1F4F0F732A
:100460001127E02E8C8DE8120CC00FB607FCFACFD6
:10047000E889F989808185FFF5CFCE010E94F601D8
:10048000F1CF8B8DFE01E80FF11DE35AFF4FF08293
:100490009FB7F8940B8FEA89FB89808180620AC03C
:1004A0009FB7F894EE89FF896083E889F989808194
:1004B0008370806480839FBF81E090E0DF91CF9163
:1004C0001F910F91FF90EF900895CF93DF93EC0170
:1004D000888D8823C9F0EA89FB89808185FD05C064
:1004E000A889B9898C9186FD0FC00FB607FCF5CF9E
:1004F000808185FFF2CFA889B9898C9185FFEDCFE6
:10050000CE010E94F601E7CFDF91CF91089580E000
:1005100090E0892B29F00E94EC0181110C940000DD
:10052000089585ED8093BC008091BC0084FDFCCFD4
:100530001092020208954091AA01262F30E0240F64
:10054000311D21323105DCF4209102022430C9F43E
:10055000FC0180E090E0861758F43091AA012191C7
:10056000DC01A657BE4FA30FB11D2C930196F3CF0C
:100570008091AA01680F6093AA0180E0089581E04C
:10058000089582E008950895E091D2018091D1010B
:10059000E81730F4F0E0E659FE4F808190E00895CE
:1005A0008FEF9FEF08959091D2018091D10198171C
:1005B00050F4E92FF0E0E659FE4F208130E09F5FD4
:1005C0009093D20102C02FEF3FEFC90108958091AF
:1005D000D10190E02091D201821B91090895CF9220
:1005E000DF92EF92FF920F931F93CF93DF937C01E3
:1005F000CB018A0120910302222389F0EB016B01D8
:10060000C40ED51ECC15DD0569F06991D701ED91B9
:10061000FC910190F081E02DC7010995F3CF642F83
:100620000E949B02C801DF91CF911F910F91FF9013
:10063000EF90DF90CF900895CF93DF931F92CDB7C7
:10064000DEB76983209103022223D1F02091260294
:10065000203240F021E030E0FC013383228380E04F
:1006600090E015C080910402E82FF0E0EB5FFD4FB1
:10067000998190838F5F809304028093260205C046
:1006800061E0CE0101960E949B0281E090E00F9014
:10069000DF91CF910895089580E090E008950E9441
:1006A00011076115710579F0FB0101900020E9F750
:1006B0003197AF01461B570BDC01ED91FC91028095
:1006C000F381E02D099480E090E008958F929F924D
:1006D000AF92BF920F931F93CF93DF93CDB7DEB747
:1006E000A1970FB6F894DEBF0FBECDBF19A242305E
:1006F00008F44AE08E010F5D1F4F842E912CA12C2F
:10070000B12CA50194010E94E906E62FB901CA01A6
:1007100001501109EA3014F4E05D01C0E95CD80130
:10072000EC93232B242B252B61F7B80187E292E071
:100730000E945103A1960FB6F894DEBF0FBECDBF45
:10074000DF91CF911F910F91BF90AF909F908F90AD
:100750000895CF92DF92EF92FF92CF93DF936B01D8
:100760007C016DE287E292E00E941802EC016627AC
:100770007727CB016C197D098E099F094AE00E94F9
:1007800066038C0F9D1FDF91CF91FF90EF90DF905C
:10079000CF9008951F920F920FB60F9211242F93AE
:1007A0003F938F939F93AF93BF938091D401909188
:1007B000D501A091D601B091D7013091D30123E0AA
:1007C000230F2D3720F40196A11DB11D05C026E889
:1007D000230F0296A11DB11D2093D3018093D40154
:1007E0009093D501A093D601B093D7018091D80101
:1007F0009091D901A091DA01B091DB010196A11D80
:10080000B11D8093D8019093D901A093DA01B093E0
:10081000DB01BF91AF919F918F913F912F910F90ED
:100820000FBE0F901F9018951F920F920FB60F9248
:1008300011242F933F934F935F936F937F938F93E5
:100840009F93AF93BF93EF93FF9387E292E00E9451
:10085000F601FF91EF91BF91AF919F918F917F91A1
:100860006F915F914F913F912F910F900FBE0F901D
:100870001F9018951F920F920FB60F9211242F936D
:100880008F939F93EF93FF93E0913702F09138029B
:100890008081E0913D02F0913E0282FD12C0908184
:1008A000809140028F5F8F7320914102821751F037
:1008B000E0914002F0E0E95DFD4F958F80934002AA
:1008C00001C08081FF91EF919F918F912F910F90A7
:1008D0000FBE0F901F9018951F920F920FB60F9298
:1008E00011242F933F934F935F936F937F938F9335
:1008F0009F93AF93BF93EF93FF938091B900887F4D
:10090000803609F49CC068F5883209F45BC090F425
:10091000803109F454C038F4882309F4F6C08830D3
:1009200009F44DC0F6C0883109F44CC0803209F496
:100930005DC0EFC0803409F468C048F4803309F426
:1009400055C0883309F0E5C080930002D8C08035D7
:1009500009F44FC0883509F45DC0883409F0D9C066
:10096000D6C0883909F4C7C0A8F4883709F467C02D
:1009700038F4883609F463C0803709F460C0C9C010
:10098000883809F4B8C0803909F45FC0803809F0AC
:10099000C0C05BC0803B09F486C038F4803A09F4DB
:1009A00066C0883A09F47FC0B4C0803C09F4A7C08F
:1009B000883C09F4A4C0883B09F48AC0AAC080918D
:1009C000DD0110C09091FF018091FE01981770F534
:1009D000E091FF0181E08E0F8093FF01F0E0E25291
:1009E000FE4F80818093BB0085EC86C0809300021F
:1009F0008EC0E091FF0181E08E0F8093FF01809116
:100A0000BB00F0E0E252FE4F80839091FF018091A5
:100A1000FE016EC0E091FF0181E08E0F8093FF0127
:100A20008091BB00F0E0E252FE4F80838091010292
:100A300081116DC081E08093DC0184EA61C083E0B4
:100A4000809302021092CC01CFCF8091CC018032F2
:100A500008F051C0E091CC0181E08E0F8093CC0171
:100A60008091BB00F0E0E455FE4F8083BDCF85EC64
:100A70008093BC00109202028091CC01803230F44D
:100A8000E091CC01F0E0E455FE4F10826091CC0182
:100A900070E0E091CD01F091CE018CEA91E00995F2
:100AA0001092CC0136C084E0809302021092AB0118
:100AB0001092AA01E091CF01F091D00109958091A7
:100AC000AA01811105C081E08093AA0110928A01D8
:100AD000E091AB0181E08E0F8093AB01F0E0E6572F
:100AE000FE4F80818093BB009091AB018091AA0161
:100AF000981708F479CF85E88093BC000AC085EC8C
:100B00008093BC001092020204C0109200020E9466
:100B10009102FF91EF91BF91AF919F918F917F9142
:100B20006F915F914F913F912F910F900FBE0F905A
:100B30001F901895E7E2F2E01382128288EE93E0AC
:100B4000A0E0B0E084839583A683B78324E031E0FE
:100B50003183208325EC30E03587248724EC30E096
:100B60003787268720EC30E0318B208B21EC30E07A
:100B7000338B228B22EC30E0358B248B26EC30E05B
:100B8000378B268B118E128E138E148EE4ECF2E0CE
:100B90001382128284839583A683B78386E191E0D2
:100BA000918380830895789484B5826084BD84B5F0
:100BB000816084BD85B5826085BD85B5816085BD58
:100BC00080916E00816080936E0010928100809110
:100BD0008100826080938100809181008160809398
:100BE0008100809180008160809380008091B100BD
:100BF00084608093B1008091B00081608093B000E8
:100C000080917A00846080937A0080917A0082607B
:100C100080937A0080917A00816080937A0080913D
:100C20007A00806880937A001092C1001092D201FD
:100C30001092D10110920402109226021092020228
:100C400081E0809301021092DC0182E10E94820027
:100C500083E10E9482008091B9008E7F8093B90069
:100C60008091B9008D7F8093B90088E48093B800AB
:100C700085E48093BC0083E891E09093D001809359
:100C8000CF0184E891E09093CE018093CD01E09173
:100C90003702F091380282E08083E0913302F091D4
:100CA00034021082E0913502F09136028FEC80839D
:100CB00010923F02E0913B02F0913C0286E080837B
:100CC000E0913902F0913A02808180618083E09165
:100CD0003902F0913A02808188608083E091390284
:100CE000F0913A02808180688083E0913902F0912E
:100CF0003A0280818F7D8083C1E0D2E064E271E0BE
:100D000087E292E00E9451034AE068EC70E080E0E4
:100D100090E00E94660364E371E087E292E00E9443
:100D2000510369E471E087E292E00E945103C093AD
:100D30000302C093250210920402109226026CE472
:100D400071E084EC92E00E94510368EC84EC92E044
:100D50000E941C030E94C8006CE271E080E090E0F9
:100D60000E94490164E271E087E292E00E9451032F
:100D70004AE064E670E080E090E00E94660365E58A
:100D800071E087E292E00E94510369E471E087E23A
:100D900092E00E945103C0930302D0932502109267
:100DA0000402109226026CE471E084EC92E00E944E
:100DB000510364E684EC92E00E941C030E94C80088
:100DC00068EC70E080E090E00E9449010E94870298
:100DD00095CFA1E21A2EAA1BBB1BFD010DC0AA1FB5
:100DE000BB1FEE1FFF1FA217B307E407F50720F094
:100DF000A21BB30BE40BF50B661F771F881F991F0F
:100E00001A9469F760957095809590959B01AC0157
:100E1000BD01CF010895EE0FFF1F0590F491E02D65
:100E2000099481E090E0F8940C941607F894FFCFB1
:100E30000000000018028501AF016502E001BE015B
:100E4000D201000000001C03EF024C03C302E702C2
:100E5000D302C4024F206D657374726520656E768F
:100E6000696120006D732070617261206F2065736D
:100E7000637261766F203120000D0A0054656D7039
:100E80006F3D2020006D732070617261206F2065BE
:0A0E900073637261766F2032200058
:107E0000112484B714BE81FFF0D085E080938100F7
:107E100082E08093C00088E18093C10086E0809377
:107E2000C20080E18093C4008EE0C9D0259A86E02C
:107E300020E33CEF91E0309385002093840096BBD3
:107E4000B09BFECF1D9AA8958150A9F7CC24DD24C4
:107E500088248394B5E0AB2EA1E19A2EF3E0BF2EE7
:107E6000A2D0813461F49FD0082FAFD0023811F036
:107E7000013811F484E001C083E08DD089C08234E0
:107E800011F484E103C0853419F485E0A6D080C0E4
:107E9000853579F488D0E82EFF2485D0082F10E0AE
:107EA000102F00270E291F29000F111F8ED06801E7
:107EB0006FC0863521F484E090D080E0DECF843638
:107EC00009F040C070D06FD0082F6DD080E0C81688
:107ED00080E7D80618F4F601B7BEE895C0E0D1E017
:107EE00062D089930C17E1F7F0E0CF16F0E7DF06D8
:107EF00018F0F601B7BEE89568D007B600FCFDCFD4
:107F0000A601A0E0B1E02C9130E011968C91119780
:107F100090E0982F8827822B932B1296FA010C0160
:107F200087BEE89511244E5F5F4FF1E0A038BF0790
:107F300051F7F601A7BEE89507B600FCFDCF97BE46
:107F4000E89526C08437B1F42ED02DD0F82E2BD052
:107F50003CD0F601EF2C8F010F5F1F4F84911BD097
:107F6000EA94F801C1F70894C11CD11CFA94CF0C13
:107F7000D11C0EC0853739F428D08EE10CD085E9AC
:107F80000AD08FE07ACF813511F488E018D01DD067
:107F900080E101D065CF982F8091C00085FFFCCF94
:107FA0009093C60008958091C00087FFFCCF809118
:107FB000C00084FD01C0A8958091C6000895E0E648
:107FC000F0E098E1908380830895EDDF803219F02E
:107FD00088E0F5DFFFCF84E1DECF1F93182FE3DFCA
:107FE0001150E9F7F2DF1F91089580E0E8DFEE27F6
:047FF000FF270994CA
:027FFE00040479
:0400000300007E007B
:00000001FF
