:100000000C9453000C947B000C947B000C947B00AC
:100010000C947B000C947B000C947B000C947B0074
:100020000C947B000C947B000C947B000C947B0064
:100030000C947B000C941E040C947B000C947B00AD
:100040000C947C030C947B000C94EC030C94C6037E
:100050000C947B000C947B000C947B000C947B0034
:100060000C947B000C947B0000000000250028000D
:100070002B0000000000240027002A0004040404D0
:100080000404040402020202020203030303030342
:10009000010204081020408001020408102001021F
:1000A000040810203F0511241FBECFEFD8E0DEBFAB
:1000B000CDBF11E0A0E0B1E0E8EDFEE002C00590A8
:1000C0000D92AE32B107D9F721E0AEE2B1E001C046
:1000D0001D92AA3EB207E1F710E0C3E5D0E004C0EC
:1000E0002197FE010E945F07C235D107C9F70E9420
:1000F00045040C946A070C940000CF92DF92EF92B3
:10010000FF920F931F93CF93DF936C017A018B01C2
:10011000C0E0D0E0CE15DF0581F0D8016D918D01F2
:10012000D601ED91FC910190F081E02DC601099579
:10013000892B11F02196EECF7E01C701DF91CF917F
:100140001F910F91FF90EF90DF90CF900895089549
:1001500080E090E00895FC01538D448D252F30E020
:10016000842F90E0821B930B541710F0CF960895C4
:1001700001970895FC01918D828D981761F0828D11
:10018000DF01A80FB11D5D968C91928D9F5F9F73CB
:10019000928F90E008958FEF9FEF0895FC01918D6D
:1001A000828D981731F0828DE80FF11D858D90E0DA
:1001B00008958FEF9FEF0895FC01918D228D892F77
:1001C00090E0805C9F4F821B91098F73992708955F
:1001D0008DE491E00E94DC0021E0892B09F420E00D
:1001E000822F0895FC01848DDF01A80FB11DA35A51
:1001F000BF4F2C91848D90E001968F739927848F47
:10020000A689B7892C93A089B1898C918370806469
:100210008C93938D848D981306C00288F389E02D0A
:1002200080818F7D80830895EF92FF920F931F93BB
:10023000CF93DF93EC0181E0888F9B8D8C8D981399
:1002400005C0E889F989808185FD26C0F62E0B8DD1
:1002500010E00F5F1F4F0F731127E02E8C8DE812F7
:100260000CC00FB607FCFACFE889F989808185FFB9
:10027000F5CFCE010E94F200F1CF8B8DFE01E80F89
:10028000F11DE35AFF4FF0829FB7F8940B8FEA8974
:10029000FB89808180620AC09FB7F894EE89FF894C
:1002A0006083E889F98980818370806480839FBF3F
:1002B00081E090E0DF91CF911F910F91FF90EF903F
:1002C0000895CF93DF93EC01888D8823C9F0EA89E4
:1002D000FB89808185FD05C0A889B9898C9186FD3F
:1002E0000FC00FB607FCF5CF808185FFF2CFA8893C
:1002F000B9898C9185FFEDCFCE010E94F200E7CF46
:10030000DF91CF91089580E090E0892B29F00E9441
:10031000E80081110C9400000895009769F0FC0139
:1003200001900020E9F73197AF01481B590BBC0140
:100330008DE491E00C947D0080E090E008952F9290
:100340003F924F925F926F927F928F929F92AF9265
:10035000BF92CF92DF92EF92FF920F931F93CF93B2
:10036000DF93CDB7DEB7A2970FB6F894DEBF0FBE0E
:10037000CDBF80E480937C0080917A00806480937C
:100380007A0080917A0086FDFCCF609178008091A0
:10039000790070E0782B072E000C880B990B0E94D7
:1003A00016062AE038E240EA5BE30E94CB064B01E6
:1003B0005C0144E0C42E41E0D42E56E3E52E51E02A
:1003C000F52E62E4262E61E0362E00E010E0F60104
:1003D00081919191A191B1916F01F7012191319199
:1003E000419151917F01BC01CD0190580E94CB06F3
:1003F0002B013C01B801110F880B990B0E941606C6
:100400009B01AC01C301B2010E946D050E94DE0593
:100410008B012E143F04D9F620E030E0A901609151
:1004200036017091370180913801909139010E9415
:100430006D050E94DE05072E000C880B990B0E94AB
:1004400016066B017C0120E030E0A90160913A01C1
:1004500070913B0180913C0190913D010E94CB063F
:100460009B01AC01C701B6010E946D052B013C0147
:1004700020E030E0A90160913E0170913F01809140
:100480004001909141010E94CB066B017C01C301A8
:10049000B2010E94DE05072E000C880B990B0E940A
:1004A00016069B01AC01C701B6010E946D056B01E8
:1004B0007C01B801110F880B990B0E941606A5014B
:1004C00094010E946D052B013C01C701B6010E94F9
:1004D000DE05072E000C880B990B0E9416069B0167
:1004E000AC01C301B2010E946D056B017C018091DA
:1004F000340190913501009711F0019702C082E01C
:1005000090E09093350180933401880F991F880FF4
:10051000991FFC01EA5CFE4F80829182A282B38225
:10052000A7019601C701B6010E943807882319F078
:100530008EE191E01AC046015701E894B7F82FEF19
:100540003FEF4FE75FE7C501B4010E943807811113
:100550000FC02FEF3FEF4FE75FE7C501B4010E94E7
:10056000D90518162CF482E291E00E948D01A5C0F5
:100570002FEF3FEF4FE75FE4C701B6010E94C606C9
:1005800018161CF486E291E0F0CF2FEF3FEF4FE713
:100590005FECC701B6010E94D90587FDF3CF20E0CB
:1005A00030E0A901C701B6010E94D90587FF09C043
:1005B0006DE28DE491E00E941401F7FAF094F7F8EF
:1005C000F0942CEB37E346E055E3C701B6010E94F7
:1005D0006D054B015C010E94E5056B017C010E94E9
:1005E00014069B01AC01C501B4010E946C054B01CE
:1005F0005C0119A28E010F5D1F4F0AA3612E2AE034
:10060000222E312C412C512CC701B601A20191019F
:100610000E943D0769017A01605DF80162938F01D4
:10062000232B242B252B81F7CF010E948D016EE215
:100630008DE491E00E94140187E0F82E9AE0292EC3
:10064000312C412C512CFA94FF20B9F120E030E0FC
:1006500040E251E4C501B4010E94CB064B015C01AC
:100660000E94E5059B0140E050E019A20AA1162D69
:10067000762EC32ED42EE52ECA01B901A201910116
:100680000E943D07605DF80162938F0121153105DD
:100690004105510589F7CF010E948D01672D7C2D01
:1006A0008D2D9E2D0E9414069B01AC01C501B40145
:1006B0000E946C054B015C01C6CF8AE291E00E946A
:1006C0008D01A2960FB6F894DEBF0FBECDBFDF91AD
:1006D000CF911F910F91FF90EF90DF90CF90BF903F
:1006E000AF909F908F907F906F905F904F903F90D2
:1006F0002F9008950E9465071F920F920FB60F92D8
:1007000011242F933F938F939F93AF93BF93809127
:10071000490190914A01A0914B01B0914C01309157
:10072000480123E0230F2D3720F40196A11DB11DB0
:1007300005C026E8230F0296A11DB11D2093480194
:100740008093490190934A01A0934B01B0934C01CF
:100750008091440190914501A0914601B0914701DB
:100760000196A11DB11D8093440190934501A09372
:100770004601B0934701BF91AF919F918F913F91F7
:100780002F910F900FBE0F901F9018951F920F92F0
:100790000FB60F9211242F933F934F935F936F9354
:1007A0007F938F939F93AF93BF93EF93FF938DE4CA
:1007B00091E00E94F200FF91EF91BF91AF919F9164
:1007C0008F917F916F915F914F913F912F910F90FA
:1007D0000FBE0F901F9018951F920F920FB60F9299
:1007E00011242F938F939F93EF93FF93E0915D01DB
:1007F000F0915E018081E0916301F091640182FDDE
:1008000012C09081809166018F5F8F732091670184
:10081000821751F0E0916601F0E0E35BFE4F958FA7
:100820008093660101C08081FF91EF919F918F912C
:100830002F910F900FBE0F901F9018951F920F923F
:100840000FB60F9211242F933F934F935F936F93A3
:100850007F938F939F93AF93BF93EF93FF93E09119
:100860003201F09133010995FF91EF91BF91AF9162
:100870009F918F917F916F915F914F913F912F91B8
:100880000F900FBE0F901F901895789484B58260DA
:1008900084BD84B5816084BD85B5826085BD85B524
:1008A000816085BD80916E00816080936E001092A2
:1008B000810080918100826080938100809181001D
:1008C00081608093810080918000816080938000AE
:1008D0008091B10084608093B1008091B00081600C
:1008E0008093B00080917A00846080937A00809138
:1008F0007A00826080937A0080917A008160809390
:100900007A0080917A00806880937A001092C1000A
:10091000E0915D01F0915E0192E09083E0915901D8
:10092000F0915A011082E0915B01F0915C018FEC33
:10093000808310926501E0916101F091620186E08F
:100940008083E0915F01F09160018081806180830C
:10095000E0915F01F0916001808188608083E09187
:100960005F01F0916001808180688083E0915F0188
:10097000F091600180818F7D808380917A00887FF3
:1009800080937A001092800080E1809381009093A0
:1009900030018FB780933101F89480E197E2909312
:1009A0002F0180932E019093870080938600809181
:1009B00031018FBF80918100887F80938100909169
:1009C000810080913001982B909381002FE931E0D4
:1009D000309333012093320191E090936F00909116
:1009E0008100892B80938100EEE9F0E02491EAE810
:1009F000F0E084918823C1F090E0880F991FFC01FA
:100A0000EE58FF4FC591D491FC01E859FF4FA591D5
:100A1000B4919FB7F8948881E22FE0958E23888364
:100A20008C91E823EC939FBFC1E0D0E0809142011C
:100A300090914301892B01F51092360110923701F4
:100A4000109238011092390110923A0110923B0134
:100A500010923C0110923D0110923E0110923F0114
:100A60001092400110924101109235011092340110
:100A7000D0934301C09342010E948301D7CFEDE49C
:100A8000F1E01382128288EE93E0A0E0B0E084836C
:100A90009583A683B78380E191E09183808385EC81
:100AA00090E09587848784EC90E09787868780EC38
:100AB00090E0918B808B81EC90E0938B828B82EC29
:100AC00090E0958B848B86EC90E0978B868B118ED3
:100AD000128E138E148E08955058BB27AA270E9499
:100AE00084050C948C060E947E0638F00E948506D0
:100AF00020F039F49F3F19F426F40C947B060EF491
:100B0000E095E7FB0C947506E92F0E949D0658F3CB
:100B1000BA17620773078407950720F079F4A6F5E2
:100B20000C94BF060EF4E0950B2EBA2FA02D0B01EE
:100B3000B90190010C01CA01A0011124FF27591B22
:100B400099F0593F50F4503E68F11A16F040A22F28
:100B5000232F342F4427585FF3CF46953795279599
:100B6000A795F0405395C9F77EF41F16BA0B620B98
:100B7000730B840BBAF09150A1F0FF0FBB1F661FDF
:100B8000771F881FC2F70EC0BA0F621F731F841F22
:100B900048F4879577956795B795F7959E3F08F048
:100BA000B0CF9395880F08F09927EE0F979587950A
:100BB00008950E94510608F481E008950E94E50519
:100BC0006894B1110C94C00608950E94A50688F09F
:100BD0009F5798F0B92F9927B751B0F0E1F0660F01
:100BE000771F881F991F1AF0BA95C9F714C0B13042
:100BF00091F00E94BF06B1E008950C94BF06672FE4
:100C0000782F8827B85F39F0B93FCCF38695779570
:100C10006795B395D9F73EF4909580957095619559
:100C20007F4F8F4F9F4F0895E89409C097FB3EF484
:100C300090958095709561957F4F8F4F9F4F992329
:100C4000A9F0F92F96E9BB279395F69587957795A7
:100C50006795B795F111F8CFFAF4BB0F11F460FF67
:100C60001BC06F5F7F4F8F4F9F4F16C0882311F0BF
:100C700096E911C0772321F09EE8872F762F05C0D3
:100C8000662371F096E8862F70E060E02AF09A956E
:100C9000660F771F881FDAF7880F9695879597F963
:100CA0000895990F0008550FAA0BE0E8FEEF1616FD
:100CB0001706E807F907C0F012161306E407F50750
:100CC00098F0621B730B840B950B39F40A2661F0C4
:100CD000232B242B252B21F408950A2609F4A14067
:100CE000A6958FEF811D811D089597F99F6780E874
:100CF00070E060E008959FEF80EC089500240A946E
:100D00001616170618060906089500240A941216E6
:100D10001306140605060895092E0394000C11F419
:100D2000882352F0BB0F40F4BF2B11F460FF04C0C6
:100D30006F5F7F4F8F4F9F4F089557FD9058440F1F
:100D4000551F59F05F3F71F04795880F97FB991F2A
:100D500061F09F3F79F087950895121613061406E7
:100D6000551FF2CF4695F1DF08C016161706180674
:100D7000991FF1CF86957105610508940895E8944F
:100D8000BB2766277727CB0197F908950E94510664
:100D900008F48FEF08950E94DE060C948C060E94E2
:100DA0007E0638F00E94850620F0952311F00C9401
:100DB00075060C947B0611240C94C0060E949D06B7
:100DC00070F3959FC1F3950F50E0551F629FF0019E
:100DD000729FBB27F00DB11D639FAA27F00DB11DB7
:100DE000AA1F649F6627B00DA11D661F829F222740
:100DF000B00DA11D621F739FB00DA11D621F839FC7
:100E0000A00D611D221F749F3327A00D611D231F9C
:100E1000849F600D211D822F762F6A2F11249F57EA
:100E200050409AF0F1F088234AF0EE0FFF1FBB1FED
:100E3000661F771F881F91505040A9F79E3F5105AC
:100E400080F00C9475060C94C0065F3FE4F3983E66
:100E5000D4F3869577956795B795F795E7959F5F56
:100E6000C1F7FE2B880F911D9695879597F90895E8
:100E70000E945106880B990B0895A1E21A2EAA1B15
:100E8000BB1BFD010DC0AA1FBB1FEE1FFF1FA2173A
:100E9000B307E407F50720F0A21BB30BE40BF50B37
:100EA000661F771F881F991F1A9469F760957095C0
:100EB000809590959B01AC01BD01CF010895EE0F87
:100EC000FF1F0590F491E02D099481E090E0F894E3
:080ED0000C946A07F894FFCFAF
:100ED8000000803F4370023F000000000000000057
:100EE80014017D00AB006101DC00BA00CE006E6128
:0E0EF8006E00696E66006F7666000D0A0000DF
:00000001FF
