:100000000C9468000C9490000C9490000C94900058
:100010000C9490000C9490000C9490000C94900020
:100020000C9490000C9490000C9490000C94900010
:100030000C9490000C9490000C9490000C94900000
:100040000C9436040C9490000C94A6040C94800438
:100050000C9490000C9490000C9490000C949000E0
:100060000C9490000C949000005EBCE2613FDD8334
:10007000C29C7E20A3FD1F41009D23BE46DB65F888
:100080008C11AF32CA57E974000000002500280027
:100090002B0000000000240027002A0000000000C0
:1000A00023002600290004040404040404040202BA
:1000B00002020202030303030303010204081020E7
:1000C0004080010204081020010204081020D80416
:1000D00011241FBECFEFD8E0DEBFCDBF11E0A0E0FE
:1000E000B1E0E4E5F5E102C005900D92A232B1075E
:1000F000D9F721E0A2E2B1E001C01D92A13FB20711
:10010000E1F710E0C8E6D0E004C02197FE010E94AC
:100110009D0AC736D107C9F70E9477050C94A80A33
:100120000C94000008953FB7F89480912F019091AE
:100130003001A0913101B091320126B5A89B05C0D4
:100140002F3F19F00196A11DB11D3FBFBA2FA92F56
:10015000982F8827820F911DA11DB11DBC01CD01D3
:1001600042E0660F771F881F991F4A95D1F70895BF
:100170008F929F92AF92BF92CF92DF92EF92FF92B7
:100180006B017C010E9493004B015C01C114D104FE
:10019000E104F104F1F00E949300DC01CB01881925
:1001A0009909AA09BB09883E9340A105B10570F3DE
:1001B00021E0C21AD108E108F10888EE880E83E038
:1001C000981EA11CB11CC114D104E104F10419F75B
:1001D000DDCFFF90EF90DF90CF90BF90AF909F90DA
:1001E0008F900895CF92DF92EF92FF920F931F931B
:1001F000CF93DF936C017A018B01C0E0D0E0CE1584
:10020000DF0581F0D8016D918D01D601ED91FC9152
:100210000190F081E02DC6010995892B11F02196FE
:10022000EECF7E01C701DF91CF911F910F91FF901B
:10023000EF90DF90CF900895089580E090E00895CA
:10024000FC01538D448D252F30E0842F90E0821BDC
:10025000930B541710F0CF96089501970895FC0161
:10026000918D828D981761F0828DDF01A80FB11DED
:100270005D968C91928D9F5F9F73928F90E0089511
:100280008FEF9FEF0895FC01918D828D981731F0CB
:10029000828DE80FF11D858D90E008958FEF9FEF1F
:1002A0000895FC01918D228D892F90E0805C9F4FF5
:1002B000821B91098F739927089583E391E00E942F
:1002C000510121E0892B09F420E0822F0895FC01DF
:1002D000848DDF01A80FB11DA35ABF4F2C91848DCF
:1002E00090E001968F739927848FA689B7892C9304
:1002F000A089B1898C91837080648C93938D848D57
:10030000981306C00288F389E02D80818F7D808359
:100310000895EF92FF920F931F93CF93DF93EC0119
:1003200081E0888F9B8D8C8D981305C0E889F989B1
:10033000808185FD26C0F62E0B8D10E00F5F1F4FCC
:100340000F731127E02E8C8DE8120CC00FB607FC3E
:10035000FACFE889F989808185FFF5CFCE010E9427
:100360006701F1CF8B8DFE01E80FF11DE35AFF4FBE
:10037000F0829FB7F8940B8FEA89FB8980818062B5
:100380000AC09FB7F894EE89FF896083E889F989EC
:1003900080818370806480839FBF81E090E0DF91E3
:1003A000CF911F910F91FF90EF900895CF93DF931E
:1003B000EC01888D8823C9F0EA89FB89808185FD5D
:1003C00005C0A889B9898C9186FD0FC00FB607FCBE
:1003D000F5CF808185FFF2CFA889B9898C9185FFFF
:1003E000EDCFCE010E946701E7CFDF91CF91089555
:1003F00080E090E0892B29F00E945D0181110C942E
:1004000000000895DC0180E0615098F02D91982F54
:100410009227E92FEF70F0E0E859FF4F2491929571
:100420009F70E92FF0E0E858FF4FE491822F8E276C
:10043000EBCF0895FC0190810180F281E02DF894CA
:100440008181892B81832281892F80952823228392
:10045000A7E0B0E01197F1F7218182238183A3E225
:10046000B0E01197F1F780817894EFECF0E03197EC
:10047000F1F7982381E009F480E00895EF92FF926C
:100480000F931F93CF93DF937C0108E010E0C0E04F
:10049000D1E0C7010E941A028111CD2BDD0F01505E
:1004A0001109B9F78C2FDF91CF911F910F91FF9018
:1004B000EF900895FC0190810180F281E02D892F59
:1004C000809560FF12C0F89422818223828381810B
:1004D000892B8183A3E2B0E01197F1F78281982BF9
:1004E0009283789487ED90E011C0F8942281822362
:1004F00082838181892B8183AFEFB0E01197F1F77F
:100500008281982B928378948FE090E00197F1F7A5
:100510000895DF92EF92FF920F931F93CF93DF9393
:10052000EC01D62EE42E08E010E0FF24F39461E005
:100530008D2D8F2109F460E0CE010E945A02FF0C3C
:1005400001501109A1F7E11010C0F894E981FA8176
:1005500091818881809589238183E981FA819281C3
:1005600088818095892382837894DF91CF911F9130
:100570000F91FF90EF90DF900895EF92FF920F930D
:100580001F93CF93DF938C017B0140E065E50E94D0
:100590008902E70188E0E80EF11C699140E0C8019A
:1005A0000E948902CE15DF05C1F7DF91CF911F911F
:1005B0000F91FF90EF900895DC012C911196ED9131
:1005C000FC911297F8948181922F909589238183D1
:1005D00078948DE743E050E0815021F1DA011197E2
:1005E000F1F730813223C1F3F89482818923828329
:1005F0008181822B81837894ABE7B7E01197F1F783
:10060000F89481819823918383E191E00197F1F738
:100610008081282381E009F080E07894E3E6F6E029
:100620003197F1F70895EF92FF920F931F93CF93B5
:10063000DF937C018B01C0EDD1E08D819E810E9412
:10064000DC02B7018D819E810E94BD0240E06EEB0D
:100650008D819E810E9489028D819E810E943E0231
:10066000F80180838D819E810E943E02F801818382
:100670008D819E810E943E02F80182838D819E8140
:100680000E943E02F80183838D819E810E943E027A
:10069000F80184838D819E810E943E02F80185834A
:1006A0008D819E810E943E02F80186838D819E810C
:1006B0000E943E02F80187838D819E810E943E0246
:1006C000F80180878D819E81DF91CF911F910F91DD
:1006D000FF90EF900C94DC02CF93DF93CDB7DEB7A1
:1006E00029970FB6F894DEBF0FBECDBFBE016F5F76
:1006F0007F4F0E94130368E0CE0101960E94020220
:100700009985891311C08D818F3361F020F48F3169
:1007100059F489E00CC08F3519F08F3739F004C0D7
:100720008BE005C08AE003C080E001C08CE0299620
:100730000FB6F894DEBF0FBECDBFDF91CF91089505
:10074000BF92CF92DF92EF92FF920F931F93CF93BE
:10075000DF93EC016B018D85811105C0CE010E94F4
:10076000DC02811105C01B861D861C8680E060C0EE
:1007700040E060EFCE010E94890201E0E12CB12C43
:1007800011E0CE010E941A02F82ECE010E941A0238
:1007900091E0F91203C08130B1F434C02E2D30E065
:1007A000F8121BC08B85181738F4FE01E20FF31FF7
:1007B0008381802341F402C0811729F0F12C193084
:1007C00058F41C8709C0FE01EE0DF11D8381802BBA
:1007D0008383FF24F39409C0B12EFE01E20FF31FBF
:1007E0009381802F8095892383836F2DCE010E9472
:1007F0005A021F5F000F11F4E39401E087E08E15A9
:1008000008F0BFCF113408F4AECFBB86B11002C0E0
:1008100081E08D878B81882309F4A5CFDE011396B3
:10082000F6012B968D918193CA17DB07D9F781E0EA
:10083000DF91CF911F910F91FF90EF90DF90CF90BC
:10084000BF900895009769F0FC0101900020E9F73E
:100850003197AF01481B590BBC0183E391E00C9425
:10086000F20080E090E008950E94A30A1F920F9288
:100870000FB60F9211242F933F938F939F93AF93B3
:10088000BF9380912B0190912C01A0912D01B091EB
:100890002E0130912A0123E0230F2D3720F40196F9
:1008A000A11DB11D05C026E8230F0296A11DB11D93
:1008B00020932A0180932B0190932C01A0932D016A
:1008C000B0932E0180912F0190913001A0913101C0
:1008D000B09132010196A11DB11D80932F0190931B
:1008E0003001A0933101B0933201BF91AF919F913C
:1008F0008F913F912F910F900FBE0F901F901895E1
:100900001F920F920FB60F9211242F933F934F9384
:100910005F936F937F938F939F93AF93BF93EF9367
:10092000FF9383E391E00E946701FF91EF91BF91F4
:10093000AF919F918F917F916F915F914F913F9177
:100940002F910F900FBE0F901F9018951F920F922E
:100950000FB60F9211242F938F939F93EF93FF93D2
:10096000E0914301F09144018081E0914901F091CF
:100970004A0182FD12C0908180914C018F5F8F737C
:1009800020914D01821751F0E0914C01F0E0ED5CB7
:10099000FE4F958F80934C0101C08081FF91EF91B4
:1009A0009F918F912F910F900FBE0F901F901895D0
:1009B000CF93DF93109236011092350188EE93E0C9
:1009C000A0E0B0E08093370190933801A093390103
:1009D000B0933A0184E091E0909334018093330125
:1009E00085EC90E09093400180933F0184EC90E08F
:1009F000909342018093410180EC90E090934401F8
:100A00008093430181EC90E09093460180934501EF
:100A100082EC90E0909348018093470186EC90E04F
:100A200090934A018093490110924C0110924D011C
:100A300010924E0110924F01EDEBF0E02491E9EAA3
:100A4000F0E084918823C1F090E0880F991FFC01A9
:100A5000EE56FF4FC591D491FC01E857FF4FA59189
:100A6000B4919FB7F8948881E22FE0958E23888314
:100A70008C91E823EC939FBFEDEBF0E0E491E093E1
:100A8000E301E9EAF0E0E491F0E0EE0FFF1FE45645
:100A9000FF4F859194919093E5018093E40110922A
:100AA000EE011092F0011092EF01EEEEF1E01292E1
:100AB00081E0E63EF807D9F782E990E09093E20101
:100AC0008093E10183EE91E09093D6018093D5016C
:100AD0001092D4011092D00189E08093D10181E07D
:100AE0008093D2018093D301DF91CF910895CF936A
:100AF000DF93CDB7DEB7AA970FB6F894DEBF0FBE6F
:100B0000CDBF789484B5826084BD84B5816084BD96
:100B100085B5826085BD85B5816085BD80916E009B
:100B2000816080936E0010928100809181008260CC
:100B30008093810080918100816080938100809109
:100B400080008160809380008091B10084608093F8
:100B5000B1008091B00081608093B00080917A00F4
:100B6000846080937A0080917A00826080937A001A
:100B700080917A00816080937A0080917A00806809
:100B800080937A001092C100E0914301F0914401FA
:100B900082E08083E0913F01F09140011082E0917A
:100BA0004101F09142018FEC808310924B01E09162
:100BB0004701F091480186E08083E0914501F09182
:100BC0004601808180618083E0914501F09146017A
:100BD000808188608083E0914501F09146018081A9
:100BE00080688083E0914501F091460180818F7D8E
:100BF0008083E091D501F091D60113861586148685
:100C0000DF011B9633961E92AE17BF07E1F71092D5
:100C1000D401EE24E394BE016E5D7F4F8091D50137
:100C20009091D6010E94A003882309F45AC067E07E
:100C3000CE0182960E94020299A58913ECCF809181
:100C4000D001811127C08091D5019091D6010E94D9
:100C5000DC02BE016E5D7F4F8091D5019091D6017F
:100C60000E94BD0240E064EB8091D5019091D601D5
:100C70000E9489028091D5019091D6010E941A02AA
:100C8000F82E8091D5019091D6010E94DC02FF20C0
:100C900009F4EDC1BE016F5F7F4FCE0182960E94C5
:100CA0001303F090D1018AA1803109F4E3C1CE0190
:100CB00082960E946C038F1518F48091D10109C0AF
:100CC0008AA1803111F489E004C0CE0182960E948D
:100CD0006C038093D1018091D4018F5F8093D40104
:100CE0009ACFE091D501F091D6011386158614862E
:100CF000DF011B96CF0103961E928A179B07E1F72F
:100D000062E271E0CF010E94A003882329F067E02E
:100D100082E291E00E9402028091D5019091D60179
:100D20000E94DC0240E06CEC8091D5019091D601EC
:100D30000E9489024091D00164E48091D501909194
:100D4000D6010E9489028091D2018823E9F0809126
:100D5000D1018A3049F08B3061F0893079F46EE549
:100D600070E080E090E00EC06CEB70E080E090E01E
:100D700009C067E771E080E090E004C06EEE72E0C9
:100D800080E090E00E94B800BE016F5F7F4F82E27A
:100D900091E00E94130368E0CE0101960E940202D6
:100DA0009985891388C0E980FA8080912201823276
:100DB000B9F18832A9F1803109F084C01885612F1A
:100DC00070E08F81681B7109072E000C880B990B4E
:100DD0000E9454094B015C01612F70E080E090E0BB
:100DE0000E9452099B01AC01C501B4010E94B108E7
:100DF0004B015C01B70175956795072E000C880BB8
:100E0000990B0E94540920E030E040E85EE30E9424
:100E10003F089B01AC01C501B4010E94400846C0D7
:100E20008D818F3391F1A0F48F3109F04BC0B70160
:100E300033E0759567953A95E1F7072E000C880B1E
:100E4000990B0E94540920E030E040E05FE32CC0A1
:100E50008F3569F08F37B1F5B701FF0C880B990B0F
:100E60000E94540920E030E040E85DE31DC0B70176
:100E700075956795072E000C880B990B0E945409F5
:100E800020E030E040E05EE30FC0B7017595679564
:100E900075956795072E000C880B990B0E945409D5
:100EA00020E030E040E85EE30E94090A162F072F99
:100EB000B82EA92E07C0C12CD12C9EEFE92E92ECA2
:100EC000F92E04C0C12ED02EEB2CFA2CA7019601CE
:100ED000C701B6010E94760A882319F082E191E0E9
:100EE0001AC026013701E89477F82FEF3FEF4FE75C
:100EF0005FE7C301B2010E94760A81110FC02FEF94
:100F00003FEF4FE75FE7C301B2010E94AC0818163C
:100F10002CF486E191E00E9422049CC02FEF3FEF69
:100F20004FE75FE4C701B6010E94040A18161CF4DB
:100F30008AE191E0F0CF2FEF3FEF4FE75FECC70181
:100F4000B6010E94AC0887FDF3CF20E030E0A90194
:100F5000C701B6010E94AC0887FF09C06DE283E3B8
:100F600091E00E948901F7FAF094F7F8F0942AE0F2
:100F700037ED43EA5BE3C701B6010E9440086B010D
:100F80007C010E9423092B013C010E9452099B0114
:100F9000AC01C701B6010E943F086B017C0119A298
:100FA0001E0181E2280E311C2AA6832CC301B20146
:100FB0002AE030E040E050E00E947B0A29013A013B
:100FC000605DF10162931F01232B242B252B71F708
:100FD000CF010E9422046EE283E391E00E94890126
:100FE00083E0982E9A949920A9F120E030E040E225
:100FF00051E4C701B6010E94090A2B013C010E947D
:1010000023099B0140E050E019A22AA4382C6B016F
:101010007A01CA01B9012AE030E040E050E00E94C4
:101020007B0A605DF10162931F01211531054105C5
:10103000510579F7CF010E942204B601C7010E9431
:1010400052099B01AC01C301B2010E943F086B0130
:101050007C01C8CF8EE191E00E94220464EF71E030
:1010600080E090E00E94B8000E94F80155CEE09226
:10107000D00110CEF9E0FF1508F41FCE24CE505851
:10108000BB27AA270E9457080C94CA090E94BC09D2
:1010900038F00E94C30920F039F49F3F19F426F478
:1010A0000C94B9090EF4E095E7FB0C94B309E92F11
:1010B0000E94DB0958F3BA17620773078407950784
:1010C00020F079F4A6F50C94FD090EF4E0950B2EB2
:1010D000BA2FA02D0B01B90190010C01CA01A0018A
:1010E0001124FF27591B99F0593F50F4503E68F1E5
:1010F0001A16F040A22F232F342F4427585FF3CF26
:10110000469537952795A795F0405395C9F77EF4F6
:101110001F16BA0B620B730B840BBAF09150A1F03F
:10112000FF0FBB1F661F771F881FC2F70EC0BA0FC5
:10113000621F731F841F48F4879577956795B7954D
:10114000F7959E3F08F0B0CF9395880F08F0992748
:10115000EE0F9795879508950E948F0908F481E016
:1011600008950E94C5080C94CA090E94C30958F04A
:101170000E94BC0940F029F45F3F29F00C94B309A8
:1011800051110C94FE090C94B9090E94DB0968F313
:101190009923B1F3552391F3951B550BBB27AA2730
:1011A00062177307840738F09F5F5F4F220F331F6A
:1011B000441FAA1FA9F335D00E2E3AF0E0E832D032
:1011C00091505040E695001CCAF72BD0FE2F29D035
:1011D000660F771F881FBB1F261737074807AB0707
:1011E000B0E809F0BB0B802DBF01FF2793585F4F7C
:1011F0003AF09E3F510578F00C94B3090C94FE0927
:101200005F3FE4F3983ED4F3869577956795B7955D
:10121000F7959F5FC9F7880F911D9695879597F968
:101220000895E1E0660F771F881FBB1F62177307E1
:101230008407BA0720F0621B730B840BBA0BEE1FF6
:1012400088F7E09508950E94E30988F09F5798F089
:10125000B92F9927B751B0F0E1F0660F771F881FBB
:10126000991F1AF0BA95C9F714C0B13091F00E94D5
:10127000FD09B1E008950C94FD09672F782F8827A8
:10128000B85F39F0B93FCCF3869577956795B395FC
:10129000D9F73EF490958095709561957F4F8F4F6B
:1012A0009F4F0895E89409C097FB3EF49095809570
:1012B000709561957F4F8F4F9F4F9923A9F0F92F1C
:1012C00096E9BB279395F695879577956795B7959A
:1012D000F111F8CFFAF4BB0F11F460FF1BC06F5F80
:1012E0007F4F8F4F9F4F16C0882311F096E911C092
:1012F000772321F09EE8872F762F05C0662371F0B3
:1013000096E8862F70E060E02AF09A95660F771FC6
:10131000881FDAF7880F9695879597F90895990FA2
:101320000008550FAA0BE0E8FEEF16161706E807AF
:10133000F907C0F012161306E407F50798F0621BD0
:10134000730B840B950B39F40A2661F0232B242BA5
:10135000252B21F408950A2609F4A140A6958FEFC4
:10136000811D811D089597F99F6780E870E060E016
:1013700008959FEF80EC089500240A94161617062E
:1013800018060906089500240A9412161306140676
:1013900005060895092E0394000C11F4882352F0D9
:1013A000BB0F40F4BF2B11F460FF04C06F5F7F4F91
:1013B0008F4F9F4F089557FD9058440F551F59F078
:1013C0005F3F71F04795880F97FB991F61F09F3F32
:1013D00079F087950895121613061406551FF2CF5B
:1013E0004695F1DF08C0161617061806991FF1CFAB
:1013F00086957105610508940895E894BB276627D2
:101400007727CB0197F908950E948F0908F48FEF91
:1014100008950E941C0A0C94CA090E94BC0938F065
:101420000E94C30920F0952311F00C94B3090C9489
:10143000B90911240C94FE090E94DB0970F3959FF1
:10144000C1F3950F50E0551F629FF001729FBB27BB
:10145000F00DB11D639FAA27F00DB11DAA1F649F57
:101460006627B00DA11D661F829F2227B00DA11D0A
:10147000621F739FB00DA11D621F839FA00D611D90
:10148000221F749F3327A00D611D231F849F600DB1
:10149000211D822F762F6A2F11249F5750409AF0DA
:1014A000F1F088234AF0EE0FFF1FBB1F661F771F66
:1014B000881F91505040A9F79E3F510580F00C9431
:1014C000B3090C94FE095F3FE4F3983ED4F386958C
:1014D00077956795B795F795E7959F5FC1F7FE2BD1
:1014E000880F911D9695879597F908950E948F0909
:1014F000880B990B0895A1E21A2EAA1BBB1BFD01B4
:101500000DC0AA1FBB1FEE1FFF1FA217B307E407E2
:10151000F50720F0A21BB30BE40BF50B661F771F3A
:10152000881F991F1A9469F760957095809590951A
:101530009B01AC01BD01CF010895EE0FFF1F059087
:10154000F491E02D099481E090E0F8940C94A80ABD
:04155000F894FFCF3D
:10155400000000008901F2002001D60151012F0191
:1015640043016E616E00696E66006F7666000D0A57
:02157400000075
:107E0000112484B714BE81FFF0D085E080938100F7
:107E100082E08093C00088E18093C10086E0809377
:107E2000C20080E18093C4008EE0C9D0259A86E02C
:107E300020E33CEF91E0309385002093840096BBD3
:107E4000B09BFECF1D9AA8958150A9F7CC24DD24C4
:107E500088248394B5E0AB2EA1E19A2EF3E0BF2EE7
:107E6000A2D0813461F49FD0082FAFD0023811F036
:107E7000013811F484E001C083E08DD089C08234E0
:107E800011F484E103C0853419F485E0A6D080C0E4
:107E9000853579F488D0E82EFF2485D0082F10E0AE
:107EA000102F00270E291F29000F111F8ED06801E7
:107EB0006FC0863521F484E090D080E0DECF843638
:107EC00009F040C070D06FD0082F6DD080E0C81688
:107ED00080E7D80618F4F601B7BEE895C0E0D1E017
:107EE00062D089930C17E1F7F0E0CF16F0E7DF06D8
:107EF00018F0F601B7BEE89568D007B600FCFDCFD4
:107F0000A601A0E0B1E02C9130E011968C91119780
:107F100090E0982F8827822B932B1296FA010C0160
:107F200087BEE89511244E5F5F4FF1E0A038BF0790
:107F300051F7F601A7BEE89507B600FCFDCF97BE46
:107F4000E89526C08437B1F42ED02DD0F82E2BD052
:107F50003CD0F601EF2C8F010F5F1F4F84911BD097
:107F6000EA94F801C1F70894C11CD11CFA94CF0C13
:107F7000D11C0EC0853739F428D08EE10CD085E9AC
:107F80000AD08FE07ACF813511F488E018D01DD067
:107F900080E101D065CF982F8091C00085FFFCCF94
:107FA0009093C60008958091C00087FFFCCF809118
:107FB000C00084FD01C0A8958091C6000895E0E648
:107FC000F0E098E1908380830895EDDF803219F02E
:107FD00088E0F5DFFFCF84E1DECF1F93182FE3DFCA
:107FE0001150E9F7F2DF1F91089580E0E8DFEE27F6
:047FF000FF270994CA
:027FFE00040479
:0400000300007E007B
:00000001FF
