:100000000C9467000C948F000C948F000C948F005C
:100010000C948F000C948F000C94DC050C948F00D2
:100020000C948F000C948F000C948F000C948F0014
:100030000C948F000C948F000C948F000C948F0004
:100040000C947F030C948F000C94CF020C94A902A3
:100050000C948F000C948F000C948F000C948F00E4
:100060000C948F000C948F002A0B2A0B2A0B630B25
:100070004E0B5D0B2A0B2A0B630B4E0B0000000886
:10008000000201000003040700000000000000005F
:1000900000000000250028002B00000000002400C4
:1000A00027002A00040404040404040402020202D7
:1000B000020203030303030301020408102040802B
:1000C000010204081020010204081020910C1124E0
:1000D0001FBECFEFD8E0DEBFCDBF11E0A0E0B1E0A2
:1000E000E8E5F1E202C005900D92AE35B107D9F70F
:1000F00022E0AEE5B1E001C01D92AA38B207E1F7F7
:1001000010E0C7E6D0E004C02197FE010E946E0F08
:10011000C636D107C9F70E94850B0C94AA100C941F
:100120000000E0912402F09125028081811103C03A
:100130008FEF9FEF0CC0E0912402F0912502058023
:10014000F681E02D0680F781E02D828193819093E6
:10015000620180936101089560E08CE00E943203A7
:1001600060E08BE00E94320360E08AE00E9432038C
:1001700060E089E00C943203CF93DF93CDB7DEB714
:10018000A1970FB6F894DEBF0FBECDBF12E388E192
:1001900091E00E94200319A218A3CE0180960E942C
:1001A000200383E291E00E94200361E08CE00E9442
:1001B000320360E08BE00E94320361E08AE00E943B
:1001C000320360E089E00E9432030E94CB0560E0C8
:1001D0008DE790E00E94B6080E946307811102C07B
:1001E0000E94A6060E94AC00D2CF86E291E00E9457
:1001F000200383E291E00E94200361E08CE00E94F2
:10020000320360E08BE00E94320360E08AE00E94EB
:10021000320360E089E00E9432030E94CB0560E077
:100220008EE390E00E94B6080E946307811102C02D
:100230000E94A6060E94AC00D8CF8091600188235E
:1002400009F10FB6F8940F92E0913402F091350263
:10025000C681D781CE0102960E94DF058091690296
:100260008150809369028091600181508093600188
:100270000F900FBE8F89988D0E942009CE010E9499
:100280002009DBCF80914102823010F00E94A60647
:100290000E949D02D2CF0F931F938CE00E94010316
:1002A0008BE00E9401038AE00E94010389E00E9422
:1002B0000103E5E8F1E0A089B18982E08C93A4858F
:1002C000B5851C92A685B7858FEC8C93108EA4897A
:1002D000B58986E08C93A289B3898C9180618C93D7
:1002E000A289B3898C9188608C93A289B3898C91FF
:1002F00080688C930288F389E02D80818F7D8083D4
:1003000000E010E022E040E850E069E371E08CEBAF
:1003100090E00E94BB0D23E040E850E062E471E011
:1003200085EF90E00E94BB0D1F910F910895CF9231
:10033000DF92EF92FF920F931F93CF93DF936C01A5
:100340007A018B01C0E0D0E0CE15DF0581F0D80145
:100350006D918D01D601ED91FC910190F081E02D20
:10036000C6010995892B11F02196EECF7E01C701B8
:10037000DF91CF911F910F91FF90EF90DF90CF9081
:100380000895089580E090E00895FC01538D448D18
:10039000252F30E0842F90E0821B930B541710F030
:1003A000CF96089501970895FC01918D828D98173D
:1003B00061F0828DDF01A80FB11D5D968C91928D49
:1003C0009F5F9F73928F90E008958FEF9FEF089546
:1003D000FC01918D828D981731F0828DE80FF11D0F
:1003E000858D90E008958FEF9FEF0895FC01918D2A
:1003F000228D892F90E0805C9F4F821B91098F7323
:100400009927089585E891E00E94F60121E0892B63
:1004100009F420E0822F0895FC01848DDF01A80FEC
:10042000B11DA35ABF4F2C91848D90E001968F731C
:100430009927848FA689B7892C93A089B1898C913B
:10044000837080648C93938D848D981306C002888A
:10045000F389E02D80818F7D80830895EF92FF9254
:100460000F931F93CF93DF93EC0181E0888F9B8DD7
:100470008C8D981305C0E889F989808185FD26C097
:10048000F62E0B8D10E00F5F1F4F0F731127E02E1C
:100490008C8DE8120CC00FB607FCFACFE889F989F9
:1004A000808185FFF5CFCE010E940C02F1CF8B8DAC
:1004B000FE01E80FF11DE35AFF4FF0829FB7F89459
:1004C0000B8FEA89FB89808180620AC09FB7F8940C
:1004D000EE89FF896083E889F9898081837080646F
:1004E00080839FBF81E090E0DF91CF911F910F91BA
:1004F000FF90EF900895CF93DF93EC01888D8823D0
:10050000C9F0EA89FB89808185FD05C0A889B98980
:100510008C9186FD0FC00FB607FCF5CF808185FF5B
:10052000F2CFA889B9898C9185FFEDCFCE010E94C9
:100530000C02E7CFDF91CF91089580E090E0892B06
:1005400029F00E94020281110C94000008950E947B
:1005500095101F920F920FB60F9211242F933F9375
:100560004F935F936F937F938F939F93AF93BF93BB
:10057000EF93FF9385E891E00E940C02FF91EF91C9
:10058000BF91AF919F918F917F916F915F914F91AB
:100590003F912F910F900FBE0F901F9018951F92B3
:1005A0000F920FB60F9211242F938F939F93EF9377
:1005B000FF93E0919501F09196018081E0919B017C
:1005C000F0919C0182FD12C0908180919E018F5F0D
:1005D0008F7320919F01821751F0E0919E01F0E00E
:1005E000EB57FE4F958F80939E0101C08081FF9154
:1005F000EF919F918F912F910F900FBE0F901F90B1
:10060000189590E0FC01E854FF4F2491FC01EC5553
:10061000FF4F8491882399F090E0880F991FFC0187
:10062000E656FF4FA591B491FC01E057FF4F85912D
:1006300094918FB7F894EC91E22BEC938FBF0895CF
:10064000009769F0FC0101900020E9F73197AF01B4
:10065000481B590BBC0185E891E00C94970180E0A0
:1006600090E0089590E0FC01E458FF4F2491FC01D4
:10067000E854FF4F3491FC01EC55FF4FE491EE2319
:1006800009F43CC0222339F1233091F038F42130B1
:10069000A9F0223001F584B58F7D12C0273091F08A
:1006A0002830A1F02430B9F4809180008F7D03C000
:1006B000809180008F77809380000DC084B58F7704
:1006C00084BD09C08091B0008F7703C08091B000D5
:1006D0008F7D8093B000F0E0EE0FFF1FE057FF4FDB
:1006E000A591B4919FB7F894611104C08C91309595
:1006F000382302C0EC913E2B3C939FBF08951F927C
:100700000F920FB60F9211242F933F938F939F93C5
:10071000AF93BF9380916F0290917002A09171028C
:10072000B091720230916E0223E0230F2D3720F436
:100730000196A11DB11D05C026E8230F0296A11D3B
:10074000B11D20936E0280936F0290937002A0936C
:100750007102B093720280916A0290916B02A09133
:100760006C02B0916D020196A11DB11D80936A02C9
:1007700090936B02A0936C02B0936D02BF91AF9106
:100780009F918F913F912F910F900FBE0F901F90CF
:1007900018950F920FB6F8940F921F9211242F9272
:1007A0003F924F925F926F927F928F929F92AF9201
:1007B000BF92CF92DF92EF92FF920F931F932F93EE
:1007C0003F934F935F936F937F938F939F93AF93D9
:1007D000BF93CF93DF93EF93FF93A0916702B09104
:1007E00068020DB60D920EB60D9213BE80917F0178
:1007F0008111F3C0809182019091830101969093C1
:10080000830180938201009799F520912402309111
:1008100025024091220250912302509325024093D9
:1008200024023093230220932202209184012F5F1F
:1008300020938401E0912402F0912502208121116E
:1008400007C02FEF3FEF309362012093610110C08A
:10085000E0912402F09125020580F681E02D0680CA
:10086000F781E02D22813381309362012093610171
:1008700020916101309162018217930708F49CC0B6
:1008800020E019E0E0912402F0912502308131113D
:1008900007C08FEF9FEF90936201809361018DC03D
:1008A000E0912402F09125020580F681E02D06807A
:1008B000F781E02D428153818417950728F45093E6
:1008C00062014093610179C0AF014E5F5F4FA28525
:1008D000B38564817581E680F780EB01FD82EC824F
:1008E000C681D7817B836A8311966D917C91129723
:1008F0004617570721F41296DC93CE93119713866F
:1009000012863C9131503C933C91A489B589109753
:10091000F9F066857785E088F188EB01FD82EC824D
:10092000C089D1897B836A831196ED90FC901297E0
:10093000BF01645F7F4FE616F70621F41296DC9341
:10094000CE931197158A148A3C9131503C933C9177
:10095000A689309165023A1710F4A09365021A9F98
:10096000D0011124BD016F5B7D4F7B01DB0111962E
:10097000CD91DC911297D583C4836C817D8177837F
:1009800066836C817D81DB0113965C934E93129795
:100990005D834C83F386E286E70138813F5F3883CD
:1009A000A0916702B0916802468956963C91431720
:1009B00008F468CF21E066CF20E0E0916702F09173
:1009C0006802E689D9E0ED9FF0011124EF5BFD4F4D
:1009D0008081823040F021E006C080915E018F5F0F
:1009E00080935E0120E080915F01811103C022238A
:1009F00009F466C080917F01882321F081E0809313
:100A00005F015EC010925F01A0916702B091680221
:100A1000E0916702F09168022D913C918789908D59
:100A200082179307A8F080916702909168028091E5
:100A3000670290916802259A2D9A2FEF67EA71E676
:100A4000215060407040E1F700C000001D9AF5CFD2
:100A50008091650269E001C08150482F50E0649F99
:100A60009001659F300D1124F901EF5BFD4F9081DE
:100A7000992391F3A181B28112960D90BC91A02D82
:100A8000B283A1832C5B3D4FA217B30731F41296BA
:100A90002D913C9113973283218399E0949FF0012B
:100AA000959FF00D1124EF5BFD4F0180F281E02D49
:100AB0002681378130936802209367028093650214
:100AC000A0916702B0916802CD91CDBFDD91DEBFEC
:100AD000FF91EF91DF91CF91BF91AF919F918F9156
:100AE0007F916F915F914F913F912F911F910F9146
:100AF000FF90EF90DF90CF90BF90AF909F908F903E
:100B00007F906F905F904F903F902F901F900F902D
:100B10000FBE0F900895FC01DB010FB6F8940F9201
:100B200040918201509183012D913C9111972F3F6B
:100B30008FEF380701F1818192816091840170818A
:100B4000761719F048175907C0F4481B590B42177C
:100B5000530770F4241B350B2D933C938091840133
:100B6000808380918201909183019283818303C06D
:100B70001D921C9202C080E001C081E00F900FBE68
:100B800008950FB6F8940F9280918201909183019D
:100B90000F900FBE089580917F018F5F80937F013A
:100BA00008950FB6F8940F92FC01928D0F900FBE2E
:100BB00081E0911180E008950E94C9031895CF93B8
:100BC000DF93FC01A085B1858281938124813581E9
:100BD000EC013D832C83C481D5819B838A8311964C
:100BE0008D919C911297E817F90721F41296DC93E6
:100BF000CE931197118610868C9181508C938C9195
:100C0000DF91CF910895CF93DF939C01FB01DC012D
:100C10001196CD91DC911297D383C2838C819D81F3
:100C2000958384838C819D81DC0113967C936E93E4
:100C300012977D836C8331872087F90180818F5FD4
:100C40008083DF91CF9108950F931F93CF93DF930C
:100C5000DC011596ED91FC911697C681D7818E0126
:100C6000045F1F4FC8010E94DF0580917F01811141
:100C700014C00A501109C8010E94DF058E899091A5
:100C80006502981710F480936502B9E08B9FC0014C
:100C90001124B8018F5B9D4F03C0B80188E392E037
:100CA0000E940306E0916702F09168029E8986899E
:100CB000891720F481E080935F0101C080E0DF911B
:100CC000CF911F910F910895EF92FF920F931F9371
:100CD000CF93DF93EC010FB6F8940F921E8D7C0139
:100CE00081E1E80EF11C01E011165CF4898988238A
:100CF00041F0C7010E942406811100935F01115049
:100D0000F3CF8FEF8E8F0F900FBE0FB6F8940F9228
:100D10001D8D7E0188E0E80EF11C01E011165CF4E7
:100D20008885882341F0C7010E9424068111009321
:100D30005F011150F3CF8FEF8D8F0F900FBEDF91BA
:100D4000CF911F910F91FF90EF9008950F920FB6E2
:100D5000F8940F921F9211242F923F924F925F921C
:100D60006F927F928F929F92AF92BF92CF92DF92BB
:100D7000EF92FF920F931F932F933F934F935F93A5
:100D80006F937F938F939F93AF93BF93CF93DF9393
:100D9000EF93FF93A0916702B09168020DB60D9298
:100DA0000EB60D9280917F01882321F081E080931F
:100DB0005F015EC010925F01A0916702B09168026E
:100DC000E0916702F09168022D913C918789908DA6
:100DD00082179307A8F08091670290916802809132
:100DE000670290916802259A2D9A2FEF87EA91E683
:100DF000215080409040E1F700C000001D9AF5CFDF
:100E00008091650269E001C08150482F50E0649FE5
:100E10009001659F300D1124F901EF5BFD4F90812A
:100E2000992391F3A181B28112960D90BC91A02DCE
:100E3000B283A1832C5B3D4FA217B30731F4129606
:100E40002D913C9113973283218399E0949FF00177
:100E5000959FF00D1124EF5BFD4F0180F281E02D95
:100E60002681378130936802209367028093650260
:100E7000A0916702B0916802CD91CDBFDD91DEBF38
:100E8000FF91EF91DF91CF91BF91AF919F918F91A2
:100E90007F916F915F914F913F912F911F910F9192
:100EA000FF90EF90DF90CF90BF90AF909F908F908A
:100EB0007F906F905F904F903F902F901F900F907A
:100EC0000FBE0F9008958F929F92AF92BF92CF92D4
:100ED000DF92EF92FF920F931F93CF93DF930FB6A2
:100EE000F8940F9280917F01815080937F018091CF
:100EF0007F01882311F080E0F2C08091690288238D
:100F0000D1F3C0E0D0E029E0F22EEE24E39480910A
:100F10003802882351F1E0913D02F0913E02C681F2
:100F2000D781CE010C960E94DF058E010E5F1F4F08
:100F3000C8010E94DF058E8990916502981710F410
:100F400080936502F89EC0011124B8018F5B9D4F0C
:100F50000E940306E0916702F09168029E898689EB
:100F60009817A8F2E0925F01D2CFCD2B11F00E942A
:100F70009100E0905E01EE2009F4A9C089E0982E6E
:100F800088248394CC24CA94DC2C80917F01811125
:100F90008CC0C0918201D09183012196D0938301AE
:100FA000C09382012097B9F4809124029091250288
:100FB00020912202309123023093250220932402B3
:100FC0009093230280932202809184018F5F80930B
:100FD00084010E9491008091610190916201F12C45
:100FE000C817D90708F451C0E0912402F0912502F6
:100FF0008081811105C0D0926201C092610145C01B
:10100000E0912402F09125020580F681E02D068111
:101010001781D80112968D919C911397C817D90703
:1010200028F490936201809361012FC05801B2E0CF
:10103000AB0EB11CC5010E94DF05F80184899589BA
:10104000892B21F0C8010C960E94DF05D801569625
:101050008C9190916502981710F480936502989E88
:10106000C0011124B5018F5B9D4F0E940306E091E2
:101070006702F0916802D80156969C91868998176C
:1010800008F4B2CFFF24F394AFCFE0916702F09160
:101090006802E6899E9EF0011124EF5BFD4F80817E
:1010A000823048F0FF24F39406C080915E018F5F88
:1010B00080935E01F12C80915F01811101C0F110DC
:1010C00080925F01EA94E11060CF10925E018091FE
:1010D0005F01882309F40FCF0E94A60681E00F90DC
:1010E0000FBEDF91CF911F910F91FF90EF90DF9096
:1010F000CF90BF90AF909F908F9008950F931F93C4
:10110000CF93DF938C01FB01808191818F3F2FEF83
:10111000920721F4E801AF81B8850EC0D80113967B
:1011200012962D913C911397E901488159818417BA
:10113000950710F0D901F4CF12968D919C911397D9
:1011400093838283EC01FD83EC83B583A4831396A0
:10115000FC93EE93129711870087F80180818F5FCF
:101160008083DF91CF911F910F910895FF920F938C
:101170001F93CF93DF93EC01F62E00918201109123
:101180008301809167029091680202960E94DF05B8
:10119000CF3F8FEFD80789F4FF2079F06091670285
:1011A000709168026E5F7F4F86E292E0DF91CF918F
:1011B0001F910F91FF900C940306C00FD11FE09177
:1011C0006702F0916802D383C283609167027091D5
:1011D0006802C017D10768F480912202909123021F
:1011E0006E5F7F4FDF91CF911F910F91FF900C9415
:1011F0007E0880912402909125026E5F7F4F0E94AD
:101200007E088091610190916201C817D90720F48E
:10121000D0936201C0936101DF91CF911F910F9133
:10122000FF900895FC010396928381832FEF3FEF97
:1012300034832383968385839087878310820895E0
:10124000CF93DF93009751F0EC010E94CB05CE01C4
:101250000E940C10DF91CF910C946307DF91CF9126
:101260000895CF93DF93EC010E94CB05CE010E943D
:10127000740FEC010E946307209769F4259A2D9A58
:101280002FEF80E792E0215080409040E1F700C0CE
:1012900000001D9AF5CFCE01DF91CF910895FC019A
:1012A00073836283918780874617570778F0421BC4
:1012B000530B8485958548175907C8F4BF016E5FA5
:1012C0007F4F80916501909166010DC042175307D1
:1012D00018F46217730758F4BF016E5F7F4F809157
:1012E0006701909168010E947E0880E0089581E086
:1012F0000895EF92FF920F931F93CF93DF93E091A6
:101300006701F09168018081882369F10580F68189
:10131000E02D00811181C681D7817E0182E0E80E37
:10132000F11CC7010E94DF05E889F989CE01099502
:101330008A8982FFE4CF8C859D85800F911F0817D5
:10134000190760F49B838A83D987C887B701809186
:101350006701909168010E947E08D1CFB801CE014B
:101360000E94450FCCCF80916501909166019093CA
:10137000680180936701F0936601E0936501DF9156
:10138000CF911F910F91FF90EF900895CF93DF932E
:10139000CDB7DEB72A970FB6F894DEBF0FBECDBF2C
:1013A000E0916701F0916801F080FF2031F0058045
:1013B000F681E02D0081118102C000E010E00E9462
:1013C000CB050E94C1056C0180916301909164017D
:1013D000C816D90620F40E94790981E001C080E096
:1013E000D0926401C0926301811179C0FF20A9F1FC
:1013F000C016D106D0F10E946307E0916701F09119
:1014000068010580F681E02DE680F780C70102962D
:101410000E94DF05D70152968C91529782FF12C02D
:101420001C966D917C911D97600F711F9801A6010C
:10143000C7010E944F09882341F0B801C7010E94EB
:10144000450F03C08E7FF701828BD7015096ED9137
:10145000FC915197C7010995C6C0E0916501F091D3
:1014600066018081BB24B3948111B12CE09080018E
:10147000F09081010FB6F8940F92F701858D8F3FA0
:1014800009F4158ED7015E968C915E978F3F11F40B
:101490005E961C920F900FBEF701828D811115C0D0
:1014A0006091670270916802645F7F4FC701419647
:1014B0000E940306B11004C0C8018C199D0902C026
:1014C0008FEF9FEF6B2D0E94B608C7010E94640644
:1014D0000E946307811187C00E94A60684C00E94F3
:1014E000630781C0811109C0809184018E8380913E
:1014F00082019091830198878F830F900FBE0E9485
:10150000CB050FB6F8940F92D8015D968C915D973C
:101510008F3F11F45D961C92F801868D8F3F09F480
:10152000168E0F900FBEBE01675F7F4FCE010696ED
:101530000E948B058111DDC0C8010E94D10588235E
:1015400009F4D1C0E984FA8460916702709168025D
:10155000645F7F4FC6010E947E0861E0C7010E9460
:10156000B608C8010E9464060E946307882309F434
:10157000B7C081E00FB6F8940F92F801F28CFF200B
:1015800009F4A6C0448D41113AC0FA94F801F28ED4
:10159000808581114EC00F900FBEF980F7FC23C0EB
:1015A0000C811D81D8011A968D919C911B97892BD6
:1015B00021F0C80102960E94DF050E94C1056C015E
:1015C0008091630190916401C816D90610F40E94BD
:1015D0007909D0926401C0926301EF2DFF0CFF0BDB
:1015E000EA30F10580F100918001109181011A86A5
:1015F000198680E06801B1E1CB0ED11CBBCF50E071
:1016000086819781840F951F9783868324813581F6
:101610008217930720F08081918197838683D80178
:1016200016966D917C911797CE0101960E949A10A3
:10163000ACCFC80108960E942406882309F4ABCFDA
:101640000E94A606A8CFEC5CFF4FD80152968C9161
:101650000C946E0F8160F801828BEA80FB806485B8
:1016600075856E0D7F1D9701A601C8010E944F0967
:10167000882309F4B8CFD8015096ED91FC91519789
:10168000C8010995F801828982FFADCF648575850F
:101690006E0D7F1DC8010E94450FA5CF8160F80126
:1016A000828B6A817B81758764876C0D7D1D9601B5
:1016B000A601C8010E944F0996CF81FD04C0C80150
:1016C0000E94200990CF8E7FD80152968C938BCFA9
:1016D00029853A85232B09F005CF0F900FBE60CEE8
:1016E0000E94A60646CFC8010E9464060E946307B6
:1016F00040CFC8010E9464060E946307C8010E948F
:10170000D105882309F435CF4BCE789484B5826017
:1017100084BD84B5816084BD85B5826085BD85B595
:10172000816085BD80916E00816080936E00109213
:10173000810080918100826080938100809181008E
:10174000816080938100809180008160809380001F
:101750008091B10084608093B1008091B00081607D
:101760008093B00080917A00846080937A008091A9
:101770007A00826080937A0080917A008160809301
:101780007A0080917A00806880937A001092C1007C
:101790000E944B010DE711E020E040EC50E060E5D5
:1017A00071E08DE191E00E94BB0D813009F0B4C081
:1017B0000FB6F8940F928091800190918101892B4E
:1017C00009F050C082E791E00E94120989E691E099
:1017D0000E94120982E791E090936801809367016B
:1017E00089E691E0909366018093650181E590E040
:1017F0000E943109EC01009789F14F969983888303
:101800008AE08B8F85E08C8F0FB6F8940F92488119
:1018100059818B8D6C8D9A01869F200D311D11246D
:101820003D832C831A8E5B834A8390E00197689FE7
:101830009001699F300D1124CA01820F931F9F836D
:101840008E838FEF8D8F8E8FCE0108960E941209A6
:10185000CE0141960E9412090F900FBED0938101D4
:10186000C09380010F900FBE809180019091810103
:10187000892B09F451C00BE711E023E045E550E066
:1018800065E571E086EC99E00E94BB0D813009F0BE
:1018900043C0F8942FEF3FEF309362012093610132
:1018A000809366021092830110928201A89590ECB9
:1018B00088E10FB6F894A895809360000FBE9093CE
:1018C0006000A0916702B0916802CD91CDBFDD911B
:1018D000DEBFFF91EF91DF91CF91BF91AF919F91CB
:1018E0008F917F916F915F914F913F912F911F91B8
:1018F0000F91FF90EF90DF90CF90BF90AF909F90AF
:101900008F907F906F905F904F903F902F901F909F
:101910000F900FBE0F9008950E944B010E949D02F0
:10192000FDCFE5E8F1E01382128288EE93E0A0E0BB
:10193000B0E084839583A683B7838AE091E09183A6
:10194000808385EC90E09587848784EC90E097878E
:10195000868780EC90E0918B808B81EC90E0938B7C
:10196000828B82EC90E0958B848B86EC90E0978B59
:10197000868B118E128E138E148E0895AF92BF92A5
:10198000CF92DF92EF92FF920F931F93CF93DF934B
:1019900000D000D01F92CDB7DEB78C017B011D8235
:1019A0001C8280E0680198E0C90ED11C0FB6F89443
:1019B0000F92F801228D938D291708F06DC0D28CFB
:1019C000448D41113FC080819181892B09F052C023
:1019D000F801E480F580E114F10411F480E02EC0F8
:1019E000F70182A1815082A3268991A12917B1F321
:1019F0008111F4CF5701F2E0AF0EB11CC5010E9476
:101A0000DF05F70181A1868B482F50E024E030E00C
:101A1000241B350B3587248790916502981710F4A5
:101A20008093650229E0249FC001259F900D112419
:101A3000B5018F5B9D4F0E94030681E0F80115827E
:101A4000148219C050E0B701F801828193810E948D
:101A50009A10F801248D82819381820F911D9383C6
:101A60008283248135818217930720F080819181C0
:101A70009383828380E0D394F801D28E9189992355
:101A800021F0C80141960E94240681110E94A606F9
:101A90000F900FBE81E05FC02C813D81232B19F494
:101AA0000F900FBE57C0811109C0809184018983B6
:101AB00080918201909183019B838A830F900FBE56
:101AC0000E94CB050FB6F8940F92F801858D8F3FD9
:101AD00009F4158EF801868D8F3F09F4168E0F904C
:101AE0000FBEBE016C5F7F4FCE0101960E948B0539
:101AF00081112BC00FB6F8940F92F801928D838D4F
:101B00000F900FBE98131BC0AC80BD806091670220
:101B100070916802645F7F4FC6010E947E0861E099
:101B2000C5010E94B608C8010E9464060E946307AE
:101B3000882311F081E03ACF0E94A606FBCFC801AE
:101B40000E9464060E946307F5CFC8010E946406E4
:101B50000E94630780E00F900F900F900F900F90FE
:101B6000DF91CF911F910F91FF90EF90DF90CF9079
:101B7000BF90AF9008957F928F929F92AF92BF9245
:101B8000CF92DF92EF92FF920F931F93CF93DF9349
:101B9000782EA92E6B01EA01B22ECA010E943109EA
:101BA0004C01892B09F462C188E290E00E9431095E
:101BB0007C010097E9F0DC0158969C928E92579731
:101BC000AE0165EA70E0C4010E94A3102197D7011D
:101BD0005796ED91FC915897EC0FFD1FC114D1045D
:101BE000D9F0B701675E7F4FD601C601089607C0DE
:101BF000C4010E9420093AC1A817B90749F09D0104
:101C00004D91EB014993BE01E90128812111F4CFE7
:101C1000D70190961C9202C0E701198E8B2D84305B
:101C200008F083E0D70156968C93569791968C9343
:101C3000919792961C9292971B961C921E921A97BD
:101C400055961C921E9254971996FC92EE921897F4
:101C500024E030E0E901C81BD1091D96DC93CE9346
:101C60001C975396FC92EE92529793961D921D925A
:101C70001D921C92969797961C9291E19083DF019A
:101C8000119782E28C93119723E32C9311977C9206
:101C90001197AC9211971C92119720E82C931197F1
:101CA0001C92119722E02C93119723E02C9311970B
:101CB00024E02C93119725E02C93119726E02C9388
:101CC000119727E02C93119728E02C93119729E086
:101CD0002C93119720E12C9311979C93119792E1EB
:101CE0009C93119793E19C93119794E19C93119786
:101CF00095E19C93119796E19C93119797E19C93A2
:101D0000119798E19C93119799E19C93119790E218
:101D10009C93119791E29C9311978C93119783E276
:101D20008C9311971C9211971C92119786E28C93B9
:101D3000119787E28C93119788E28C93119789E22F
:101D40008C93119780E38C93119781E38C93B697D2
:101D5000E701F983E8830115110519F0F801F18213
:101D6000E0820FB6F8940F92809169028F5F8093A2
:101D700069028091670290916802892BD1F5F092F7
:101D80006802E092670280916902813009F043C0E5
:101D900081E492E00E9412098AE492E00E94120912
:101DA00083E592E00E9412098CE592E00E941209FC
:101DB0008CE792E00E94120983E792E00E941209E8
:101DC00088E392E00E9412098FE292E00E941209D9
:101DD00086E292E00E9412098CE792E0909325023D
:101DE0008093240283E792E090932302809322025F
:101DF00012C08091660281110EC0E0916702F091DD
:101E000068029689D70156968C91891720F0F09236
:101E10006802E0926702809185028F5F809385025D
:101E2000E7018E8990916502981710F480936502FE
:101E3000D9E08D9FC0011124B7016E5F7F4F8F5B8A
:101E40009D4F0E9403060F900FBE8091660288236B
:101E500059F0E0916702F09168029689F70186894E
:101E6000981710F40E94A60681E001C08FEFDF9161
:101E7000CF911F910F91FF90EF90DF90CF90BF9087
:101E8000AF909F908F907F900895CF93DF9300D075
:101E900000D01F92CDB7DEB79C0180918001909158
:101EA0008101009761F019827B836A833D832C83D3
:101EB00020916602222329F020917F0102C080E058
:101EC00005C0BE016F5F7F4F0E94BE0C0F900F9048
:101ED0000F900F900F90DF91CF910895EE0FFF1F9D
:101EE0000590F491E02D09940F931F93CF93DF9306
:101EF0008230910510F482E090E0E0918802F09148
:101F0000890220E030E0A0E0B0E0309719F1408194
:101F100051810281138148175907C8F0841795072A
:101F200069F4109731F012960C93129713961C9344
:101F300027C0009388021093890222C02115310521
:101F400019F04217530718F49A01BD01EF01DF01A0
:101F5000F801DBCF21153105F9F0281B390B2430AE
:101F6000310580F48A819B816115710521F0FB01A7
:101F70009383828304C09093890280938802FE0138
:101F8000329644C0FE01E20FF31F819391932250D9
:101F90003109398328833AC0209186023091870223
:101FA000232B41F4209102013091030130938702E9
:101FB0002093860220910001309101012115310505
:101FC00041F42DB73EB74091040150910501241B07
:101FD000350BE0918602F0918702E217F307A0F437
:101FE0002E1B3F0B2817390778F0AC014E5F5F4F6F
:101FF0002417350748F04E0F5F1F50938702409318
:1020000086028193919302C0E0E0F0E0CF01DF917E
:10201000CF911F910F910895CF93DF93009709F40B
:1020200081C0FC01329713821282A0918802B09184
:102030008902109781F420813181820F931F2091B2
:102040008602309187022817390751F5F0938702ED
:10205000E093860267C0ED0120E030E0CE17DF0795
:1020600040F44A815B819E0141155105F1F0EA017E
:10207000F5CFD383C28340815181840F951FC81748
:10208000D90759F488819981840F951F029691830D
:1020900080838A819B81938382832115310529F472
:1020A000F0938902E09388023DC0E901FB83EA8353
:1020B00049915991C40FD51FEC17FD0761F4808138
:1020C0009181840F951F0296E9019983888382810B
:1020D00093819B838A83E0E0F0E012968D919C913E
:1020E0001397009719F0FD01DC01F7CF8D919C91BA
:1020F00011979D012E5F3F4F820F931F2091860203
:10210000309187022817390769F4309729F4109223
:1021100089021092880202C013821282B093870251
:10212000A0938602DF91CF91089581E090E0F8942A
:102130000C94AA10FB01DC0102C001900D924150E9
:102140005040D8F70895DC0101C06D9341505040D4
:08215000E0F70895F894FFCFB9
:1021580000008A028000000000002E029701C501DD
:102168007B02F601D401E8016D6172636861207237
:10217800C3A9000D0A00766972616E646F20612040
:102188006573717565726461006D6172636861522F
:102198006500566972617245737175657264610094
:0E21A80049444C4500546D722053766300008C
:00000001FF
