:100000000C9467000C948F000C948F000C948F005C
:100010000C948F000C948F000C94E1050C948F00CD
:100020000C948F000C948F000C948F000C948F0014
:100030000C948F000C948F000C948F000C948F0004
:100040000C9484030C948F000C94C4020C949E02B4
:100050000C948F000C948F000C948F000C948F00E4
:100060000C948F000C948F00440B440B440B7D0BBD
:10007000680B770B440B440B7D0B680B00000008EA
:10008000000201000003040700000000000000005F
:1000900000000000250028002B00000000002400C4
:1000A00027002A00040404040404040402020202D7
:1000B000020203030303030301020408102040802B
:1000C000010204081020010204081020AB0C1124C6
:1000D0001FBECFEFD8E0DEBFCDBF11E0A0E0B1E0A2
:1000E000ECE8F1E202C005900D92A635B107D9F710
:1000F00022E0A6E5B1E001C01D92A238B207E1F707
:1001000010E0C7E6D0E004C02197FE010E94880FEE
:10011000C636D107C9F70E949F0B0C94C4100C94EB
:100120000000E0917F01F09180018081811103C086
:100130008FEF9FEF0CC0E0917F01F091800105806F
:10014000F681E02D0680F781E02D828193819093E6
:100150005A018093590108958AE00E94180388E1AA
:1001600091E00E94F60261E08AE00E9437038EE38C
:1001700090E00E94170960E08AE00E9437038EE356
:1001800090E00E941709EBCF8BE00E9418038FE1EB
:1001900091E00E94F60261E08BE00E94370386E066
:1001A00090E00E94170960E08BE00E94370386E030
:1001B00090E00E941709EBCF8CE00E94180386E2C2
:1001C00091E00E94F60261E08CE00E94370386E035
:1001D00090E00E94170960E08CE00E94370386E0FF
:1001E00090E00E941709EBCF8DE00E9418038DE28A
:1001F00091E00E94F60261E08DE00E9437038EE3F9
:1002000090E00E94170960E08DE00E9437038EE3C2
:1002100090E00E941709EBCF80915801882309F1E3
:100220000FB6F8940F92E0918F01F0919001C68182
:10023000D781CE0102960E94E4058091C4018150CD
:100240008093C401809158018150809358010F9090
:100250000FBE8F89988D0E943A09CE010E943A09FB
:10026000DBCF80919C01823010F00E94AB060E948F
:100270009202D2CF0F931F93E5ECF1E0A089B189F0
:1002800082E08C93A485B5851C92A685B7858FECFA
:100290008C93108EA489B58986E08C93A289B3894A
:1002A0008C9180618C93A289B3898C9188608C93A6
:1002B000A289B3898C9180688C930288F389E02DA0
:1002C00080818F7D808300E010E021E040E850E0F5
:1002D00064E371E084EF90E00E94D50D22E040E8F5
:1002E00050E06AE371E08CED90E00E94D50D21E0D2
:1002F00040E850E06AE371E084EC90E00E94D50DA4
:1003000023E040E850E06AE371E08CEA90E00E946C
:10031000D50D1F910F910895CF92DF92EF92FF922A
:100320000F931F93CF93DF936C017A018B01C0E091
:10033000D0E0CE15DF0581F0D8016D918D01D60199
:10034000ED91FC910190F081E02DC6010995892B7A
:1003500011F02196EECF7E01C701DF91CF911F9161
:100360000F91FF90EF90DF90CF900895089580E077
:1003700090E00895FC01538D448D252F30E0842FAB
:1003800090E0821B930B541710F0CF9608950197BD
:100390000895FC01918D828D981761F0828DDF01A7
:1003A000A80FB11D5D968C91928D9F5F9F73928F68
:1003B00090E008958FEF9FEF0895FC01918D828D5D
:1003C000981731F0828DE80FF11D858D90E008952A
:1003D0008FEF9FEF0895FC01918D228D892F90E082
:1003E000805C9F4F821B91098F739927089585EC3C
:1003F00091E00E94EB0121E0892B09F420E0822F9B
:100400000895FC01848DDF01A80FB11DA35ABF4FD1
:100410002C91848D90E001968F739927848FA68903
:10042000B7892C93A089B1898C91837080648C9357
:10043000938D848D981306C00288F389E02D808106
:100440008F7D80830895EF92FF920F931F93CF9338
:10045000DF93EC0181E0888F9B8D8C8D981305C014
:10046000E889F989808185FD26C0F62E0B8D10E084
:100470000F5F1F4F0F731127E02E8C8DE8120CC0F9
:100480000FB607FCFACFE889F989808185FFF5CF9F
:10049000CE010E940102F1CF8B8DFE01E80FF11D0C
:1004A000E35AFF4FF0829FB7F8940B8FEA89FB89DC
:1004B000808180620AC09FB7F894EE89FF896083CB
:1004C000E889F98980818370806480839FBF81E09F
:1004D00090E0DF91CF911F910F91FF90EF900895E1
:1004E000CF93DF93EC01888D8823C9F0EA89FB89DB
:1004F000808185FD05C0A889B9898C9186FD0FC0D2
:100500000FB607FCF5CF808185FFF2CFA889B989A6
:100510008C9185FFEDCFCE010E940102E7CFDF91E4
:10052000CF91089580E090E0892B29F00E94F70197
:1005300081110C94000008950E94AF101F920F9239
:100540000FB60F9211242F933F934F935F936F93A6
:100550007F938F939F93AF93BF93EF93FF9385EC1C
:1005600091E00E940102FF91EF91BF91AF919F91A5
:100570008F917F916F915F914F913F912F910F904C
:100580000FBE0F901F9018951F920F920FB60F92EB
:1005900011242F938F939F93EF93FF93E091D501B5
:1005A000F091D6018081E091DB01F091DC0182FDC8
:1005B00012C090818091DE018F5F8F732091DF01E7
:1005C000821751F0E091DE01F0E0EB53FE4F958F82
:1005D0008093DE0101C08081FF91EF919F918F9107
:1005E0002F910F900FBE0F901F901895CF93DF9310
:1005F000009779F0FC0101900020E9F73197AF01F5
:10060000481B590BBC0185EC91E00E948C01EC0168
:1006100002C0C0E0D0E042E050E062E571E085EC6D
:1006200091E00E948C018C0F9D1FDF91CF91089566
:1006300090E0FC01E854FF4F2491FC01EC55FF4F82
:100640008491882399F090E0880F991FFC01E65669
:10065000FF4FA591B491FC01E057FF4F8591949114
:100660008FB7F894EC91E22BEC938FBF089590E054
:10067000FC01E458FF4F2491FC01E854FF4F3491F2
:10068000FC01EC55FF4FE491EE2309F43CC022231A
:1006900039F1233091F038F42130A9F0223001F5FE
:1006A00084B58F7D12C0273091F02830A1F024301E
:1006B000B9F4809180008F7D03C0809180008F7796
:1006C000809380000DC084B58F7784BD09C0809170
:1006D000B0008F7703C08091B0008F7D8093B00011
:1006E000F0E0EE0FFF1FE057FF4FA591B4919FB7C9
:1006F000F894611104C08C913095382302C0EC91BC
:100700003E2B3C939FBF08951F920F920FB60F92FE
:1007100011242F933F938F939F93AF93BF93809117
:10072000670290916802A0916902B0916A023091CB
:10073000660223E0230F2D3720F40196A11DB11D81
:1007400005C026E8230F0296A11DB11D2093660265
:100750008093670290936802A0936902B0936A0243
:100760008091620290916302A0916402B09165024F
:100770000196A11DB11D8093620290936302A09324
:100780006402B0936502BF91AF919F918F913F91A9
:100790002F910F900FBE0F901F9018950F920FB6CC
:1007A000F8940F921F9211242F923F924F925F92D2
:1007B0006F927F928F929F92AF92BF92CF92DF9271
:1007C000EF92FF920F931F932F933F934F935F935B
:1007D0006F937F938F939F93AF93BF93CF93DF9349
:1007E000EF93FF93A091C201B091C3010DB60D929A
:1007F0000EB60D9213BE809177018111F3C08091E6
:100800007A0190917B01019690937B0180937A010C
:10081000009799F520917F013091800140917D01F1
:1008200050917E015093800140937F0130937E016F
:1008300020937D0120917C012F5F20937C01E0912A
:100840007F01F09180012081211107C02FEF3FEF40
:1008500030935A012093590110C0E0917F01F0912B
:1008600080010580F681E02D0680F781E02D228150
:10087000338130935A0120935901209159013091CD
:100880005A018217930708F49CC020E019E0E09118
:100890007F01F09180013081311107C08FEF9FEF10
:1008A00090935A01809359018DC0E0917F01F0919E
:1008B00080010580F681E02D0680F781E02D4281E0
:1008C00053818417950728F450935A014093590196
:1008D00079C0AF014E5F5F4FA285B385648175819A
:1008E000E680F780EB01FD82EC82C681D7817B83B5
:1008F0006A8311966D917C9112974617570721F4E0
:100900001296DC93CE931197138612863C91315048
:100910003C933C91A489B5891097F9F06685778559
:10092000E088F188EB01FD82EC82C089D1897B836C
:100930006A831196ED90FC901297BF01645F7F4F20
:10094000E616F70621F41296DC93CE931197158ADA
:10095000148A3C9131503C933C91A6893091C0015E
:100960003A1710F4A093C0011A9FD0011124BD01C1
:1009700064567E4F7B01DB011196CD91DC9112977D
:10098000D583C4836C817D81778366836C817D810F
:10099000DB0113965C934E9312975D834C83F38631
:1009A000E286E70138813F5F3883A091C201B091B0
:1009B000C301468956963C91431708F468CF21E05D
:1009C00066CF20E0E091C201F091C301E689D9E051
:1009D000ED9FF0011124E456FE4F8081823040F0FB
:1009E00021E006C0809156018F5F8093560120E080
:1009F00080915701811103C0222309F466C08091C0
:100A00007701882321F081E0809357015EC0109226
:100A10005701A091C201B091C301E091C201F091D0
:100A2000C3012D913C918789908D82179307A8F07F
:100A30008091C2019091C3018091C2019091C30144
:100A4000259A2D9A2FEF67EA71E621506040704099
:100A5000E1F700C000001D9AF5CF8091C00169E068
:100A600001C08150482F50E0649F9001659F300D78
:100A70001124F901E456FE4F9081992391F3A1814D
:100A8000B28112960D90BC91A02DB283A183215604
:100A90003E4FA217B30731F412962D913C91139754
:100AA0003283218399E0949FF001959FF00D1124EA
:100AB000E456FE4F0180F281E02D2681378130938C
:100AC000C3012093C2018093C001A091C201B091E3
:100AD000C301CD91CDBFDD91DEBFFF91EF91DF91DD
:100AE000CF91BF91AF919F918F917F916F915F91C6
:100AF0004F913F912F911F910F91FF90EF90DF90B9
:100B0000CF90BF90AF909F908F907F906F905F90AD
:100B10004F903F902F901F900F900FBE0F90089511
:100B2000FC01DB010FB6F8940F9240917A015091CD
:100B30007B012D913C9111972F3F8FEF380701F1E9
:100B40008181928160917C017081761719F048173C
:100B50005907C0F4481B590B4217530770F4241B64
:100B6000350B2D933C9380917C01808380917A0199
:100B700090917B019283818303C01D921C9202C0DD
:100B800080E001C081E00F900FBE08950FB6F89489
:100B90000F9280917A0190917B010F900FBE089582
:100BA000809177018F5F8093770108950FB6F89455
:100BB0000F92FC01928D0F900FBE81E0911180E0A9
:100BC00008950E94CE031895CF93DF93FC01A08572
:100BD000B1858281938124813581EC013D832C8311
:100BE000C481D5819B838A8311968D919C911297A4
:100BF000E817F90721F41296DC93CE93119711862A
:100C000010868C9181508C938C91DF91CF910895B7
:100C1000CF93DF939C01FB01DC011196CD91DC9118
:100C20001297D383C2838C819D81958384838C8129
:100C30009D81DC0113967C936E9312977D836C8368
:100C400031872087F90180818F5F8083DF91CF9189
:100C500008950F931F93CF93DF93DC011596ED91C9
:100C6000FC911697C681D7818E01045F1F4FC80182
:100C70000E94E40580917701811114C00A50110986
:100C8000C8010E94E4058E899091C001981710F464
:100C90008093C001B9E08B9FC0011124B801845634
:100CA0009E4F03C0B80183E991E00E940806E091DD
:100CB000C201F091C3019E898689891720F481E0E1
:100CC0008093570101C080E0DF91CF911F910F9178
:100CD0000895EF92FF920F931F93CF93DF93EC0150
:100CE0000FB6F8940F921E8D7C0181E1E80EF11C85
:100CF00001E011165CF48989882341F0C7010E9444
:100D000029068111009357011150F3CF8FEF8E8F79
:100D10000F900FBE0FB6F8940F921D8D7E0188E0E4
:100D2000E80EF11C01E011165CF48885882341F07F
:100D3000C7010E9429068111009357011150F3CF7A
:100D40008FEF8D8F0F900FBEDF91CF911F910F917D
:100D5000FF90EF9008950F920FB6F8940F921F92A4
:100D600011242F923F924F925F926F927F928F92B7
:100D70009F92AF92BF92CF92DF92EF92FF920F932A
:100D80001F932F933F934F935F936F937F938F9313
:100D90009F93AF93BF93CF93DF93EF93FF93A09174
:100DA000C201B091C3010DB60D920EB60D928091A5
:100DB0007701882321F081E0809357015EC0109273
:100DC0005701A091C201B091C301E091C201F0911D
:100DD000C3012D913C918789908D82179307A8F0CC
:100DE0008091C2019091C3018091C2019091C30191
:100DF000259A2D9A2FEF87EA91E621508040904066
:100E0000E1F700C000001D9AF5CF8091C00169E0B4
:100E100001C08150482F50E0649F9001659F300DC4
:100E20001124F901E456FE4F9081992391F3A18199
:100E3000B28112960D90BC91A02DB283A183215650
:100E40003E4FA217B30731F412962D913C911397A0
:100E50003283218399E0949FF001959FF00D112436
:100E6000E456FE4F0180F281E02D268137813093D8
:100E7000C3012093C2018093C001A091C201B0912F
:100E8000C301CD91CDBFDD91DEBFFF91EF91DF9129
:100E9000CF91BF91AF919F918F917F916F915F9112
:100EA0004F913F912F911F910F91FF90EF90DF9005
:100EB000CF90BF90AF909F908F907F906F905F90FA
:100EC0004F903F902F901F900F900FBE0F9008955E
:100ED0008F929F92AF92BF92CF92DF92EF92FF924A
:100EE0000F931F93CF93DF930FB6F8940F928091D7
:100EF000770181508093770180917701882311F0E9
:100F000080E0F2C08091C4018823D1F3C0E0D0E03A
:100F100029E0F22EEE24E39480919301882351F18D
:100F2000E0919801F0919901C681D781CE010C968C
:100F30000E94E4058E010E5F1F4FC8010E94E40568
:100F40008E899091C001981710F48093C001F89E8B
:100F5000C0011124B80184569E4F0E940806E091FA
:100F6000C201F091C3019E8986899817A8F2E09288
:100F70005701D2CFCD2B11F00E949100E090560185
:100F8000EE2009F4A9C089E0982E88248394CC240B
:100F9000CA94DC2C8091770181118CC0C0917A01B8
:100FA000D0917B012196D0937B01C0937A01209749
:100FB000B9F480917F019091800120917D01309161
:100FC0007E013093800120937F0190937E01809376
:100FD0007D0180917C018F5F80937C010E94910054
:100FE0008091590190915A01F12CC817D90708F442
:100FF00051C0E0917F01F09180018081811105C095
:10100000D0925A01C092590145C0E0917F01F09100
:1010100080010580F681E02D06811781D8011296A6
:101020008D919C911397C817D90728F490935A0172
:10103000809359012FC05801B2E0AB0EB11CC5011D
:101040000E94E405F80184899589892B21F0C80163
:101050000C960E94E405D80156968C919091C0019F
:10106000981710F48093C001989EC0011124B50117
:1010700084569E4F0E940806E091C201F091C30180
:10108000D80156969C918689981708F4B2CFFF2410
:10109000F394AFCFE091C201F091C301E6899E9E27
:1010A000F0011124E456FE4F8081823048F0FF2485
:1010B000F39406C0809156018F5F80935601F12C06
:1010C00080915701811101C0F11080925701EA947B
:1010D000E11060CF1092560180915701882309F4E6
:1010E0000FCF0E94AB0681E00F900FBEDF91CF9132
:1010F0001F910F91FF90EF90DF90CF90BF90AF9036
:101100009F908F9008950F931F93CF93DF938C013F
:10111000FB01808191818F3F2FEF920721F4E8013D
:10112000AF81B8850EC0D801139612962D913C91CF
:101130001397E901488159818417950710F0D90167
:10114000F4CF12968D919C91139793838283EC0137
:10115000FD83EC83B583A4831396FC93EE931297DF
:1011600011870087F80180818F5F8083DF91CF91A5
:101170001F910F910895FF920F931F93CF93DF93C9
:10118000EC01F62E00917A0110917B018091C20151
:101190009091C30102960E94E405CF3F8FEFD807DC
:1011A00089F4FF2079F06091C2017091C3016E5FF4
:1011B0007F4F81E891E0DF91CF911F910F91FF90D8
:1011C0000C940806C00FD11FE091C201F091C30139
:1011D000D383C2836091C2017091C301C017D1074C
:1011E00068F480917D0190917E016E5F7F4FDF9169
:1011F000CF911F910F91FF900C94830880917F01F4
:10120000909180016E5F7F4F0E9483088091590109
:1012100090915A01C817D90720F4D0935A01C0936E
:101220005901DF91CF911F910F91FF900895CF93B6
:10123000DF93EC01892B19F40E94AB060AC00E94CF
:10124000D00560E0CE010E94BB080E946807882399
:1012500099F3DF91CF910895FC01039692838183E6
:101260002FEF3FEF34832383968385839087878393
:1012700010820895CF93DF93009751F0EC010E9404
:10128000D005CE010E942610DF91CF910C94680703
:10129000DF91CF910895CF93DF93EC010E94D005A9
:1012A000CE010E948E0FEC010E946807209769F41E
:1012B000259A2D9A2FEF80E792E0215080409040B0
:1012C000E1F700C000001D9AF5CFCE01DF91CF916C
:1012D0000895FC01738362839187808746175707BF
:1012E00078F0421B530B8485958548175907C8F43D
:1012F000BF016E5F7F4F80915D0190915E010DC0D7
:101300004217530718F46217730758F4BF016E5F52
:101310007F4F80915F01909160010E94830880E07F
:10132000089581E00895EF92FF920F931F93CF935A
:10133000DF93E0915F01F09160018081882369F182
:101340000580F681E02D00811181C681D7817E0163
:1013500082E0E80EF11CC7010E94E405E889F989E2
:10136000CE0109958A8982FFE4CF8C859D85800F07
:10137000911F0817190760F49B838A83D987C88750
:10138000B70180915F01909160010E948308D1CFE5
:10139000B801CE010E945F0FCCCF80915D0190918A
:1013A0005E019093600180935F01F0935E01E09392
:1013B0005D01DF91CF911F910F91FF90EF90089504
:1013C000CF93DF93CDB7DEB72A970FB6F894DEBF81
:1013D0000FBECDBFE0915F01F0916001F080FF2072
:1013E00031F00580F681E02D0081118102C000E01E
:1013F00010E00E94D0050E94C6056C0180915B013F
:1014000090915C01C816D90620F40E94930981E0EE
:1014100001C080E0D0925C01C0925B01811179C073
:10142000FF20A9F1C016D106D0F10E946807E09113
:101430005F01F09160010580F681E02DE680F78084
:10144000C70102960E94E405D70152968C915297EB
:1014500082FF12C01C966D917C911D97600F711FC9
:101460009801A601C7010E946909882341F0B801CB
:10147000C7010E945F0F03C08E7FF701828BD701E7
:101480005096ED91FC915197C7010995C6C0E09126
:101490005D01F0915E018081BB24B3948111B12C78
:1014A000E0907801F09079010FB6F8940F92F7016F
:1014B000858D8F3F09F4158ED7015E968C915E97CE
:1014C0008F3F11F45E961C920F900FBEF701828D34
:1014D000811115C06091C2017091C301645F7F4F9B
:1014E000C70141960E940806B11004C0C8018C19BA
:1014F0009D0902C08FEF9FEF6B2D0E94BB08C701B3
:101500000E9469060E946807811187C00E94AB068D
:1015100084C00E94680781C0811109C080917C014C
:101520008E8380917A0190917B0198878F830F90B1
:101530000FBE0E94D0050FB6F8940F92D8015D96A9
:101540008C915D978F3F11F45D961C92F801868D0A
:101550008F3F09F4168E0F900FBEBE01675F7F4F5D
:10156000CE0106960E9490058111DDC0C8010E943F
:10157000D605882309F4D1C0E984FA846091C201B8
:101580007091C301645F7F4FC6010E94830861E0D0
:10159000C7010E94BB08C8010E9469060E94680733
:1015A000882309F4B7C081E00FB6F8940F92F801D0
:1015B000F28CFF2009F4A6C0448D41113AC0FA9480
:1015C000F801F28E808581114EC00F900FBEF98018
:1015D000F7FC23C00C811D81D8011A968D919C9136
:1015E0001B97892B21F0C80102960E94E4050E94F6
:1015F000C6056C0180915B0190915C01C816D9060B
:1016000010F40E949309D0925C01C0925B01EF2D0F
:10161000FF0CFF0BEA30F10580F100917801109189
:1016200079011A86198680E06801B1E1CB0ED11CE0
:10163000BBCF50E086819781840F951F9783868367
:10164000248135818217930720F0808191819783CF
:101650008683D80116966D917C911797CE010196DD
:101660000E94B410ACCFC80108960E9429068823B6
:1016700009F4ABCF0E94AB06A8CFEC5CFF4FD801BA
:1016800052968C910C94880F8160F801828BEA80CD
:10169000FB80648575856E0D7F1D9701A601C801CD
:1016A0000E946909882309F4B8CFD8015096ED91BA
:1016B000FC915197C8010995F801828982FFADCF4D
:1016C000648575856E0D7F1DC8010E945F0FA5CFD3
:1016D0008160F801828B6A817B81758764876C0DDC
:1016E0007D1D9601A601C8010E94690996CF81FD62
:1016F00004C0C8010E943A0990CF8E7FD80152964B
:101700008C938BCF29853A85232B09F005CF0F9039
:101710000FBE60CE0E94AB0646CFC8010E9469068C
:101720000E94680740CFC8010E9469060E946807AE
:10173000C8010E94D605882309F435CF4BCE789492
:1017400084B5826084BD84B5816084BD85B58260C6
:1017500085BD85B5816085BD80916E008160809377
:101760006E001092810080918100826080938100E0
:1017700080918100816080938100809180008160F0
:10178000809380008091B10084608093B10080914B
:10179000B00081608093B00080917A008460809373
:1017A0007A0080917A00826080937A0080917A003A
:1017B000816080937A0080917A00806880937A00BB
:1017C0001092C1000E943A0105E711E020E040ECD0
:1017D00050E065E471E08CE091E00E94D50D81302D
:1017E00009F0B4C00FB6F8940F92809178019091EF
:1017F0007901892B09F050C08AE691E00E942C09FA
:1018000081E691E00E942C098AE691E090936001C4
:1018100080935F0181E691E090935E0180935D018A
:1018200081E590E00E944B09EC01009789F14F9609
:10183000998388838AE08B8F85E08C8F0FB6F8942C
:101840000F92488159818B8D6C8D9A01869F200D56
:10185000311D11243D832C831A8E5B834A8390E0D3
:101860000197689F9001699F300D1124CA01820F72
:10187000931F9F838E838FEF8D8F8E8FCE0108965F
:101880000E942C09CE0141960E942C090F900FBE98
:10189000D0937901C09378010F900FBE80917801A9
:1018A00090917901892B09F451C003E711E023E0FD
:1018B00045E550E06AE471E080EE99E00E94D50DC4
:1018C000813009F043C0F8942FEF3FEF30935A0175
:1018D000209359018093C10110927B0110927A01EB
:1018E000A89590EC88E10FB6F894A89580936000D5
:1018F0000FBE90936000A091C201B091C301CD9141
:10190000CDBFDD91DEBFFF91EF91DF91CF91BF9110
:10191000AF919F918F917F916F915F914F913F9187
:101920002F911F910F91FF90EF90DF90CF90BF907C
:10193000AF909F908F907F906F905F904F903F906F
:101940002F901F900F900FBE0F9008950E943A01A4
:101950000E949202FDCFE5ECF1E01382128288EE44
:1019600093E0A0E0B0E084839583A683B7838AE008
:1019700091E09183808385EC90E09587848784EC67
:1019800090E09787868780EC90E0918B808B81EC4C
:1019900090E0938B828B82EC90E0958B848B86EC2D
:1019A00090E0978B868B118E128E138E148E089575
:1019B000AF92BF92CF92DF92EF92FF920F931F935D
:1019C000CF93DF9300D000D01F92CDB7DEB78C014C
:1019D0007B011D821C8280E0680198E0C90ED11C49
:1019E0000FB6F8940F92F801228D938D291708F005
:1019F0006DC0D28C448D41113FC080819181892B73
:101A000009F052C0F801E480F580E114F10411F40A
:101A100080E02EC0F70182A1815082A3268991A186
:101A20002917B1F38111F4CF5701F2E0AF0EB11CC9
:101A3000C5010E94E405F70181A1868B482F50E083
:101A400024E030E0241B350B358724879091C001BA
:101A5000981710F48093C00129E0249FC001259FAE
:101A6000900D1124B50184569E4F0E94080681E016
:101A7000F8011582148219C050E0B701F801828183
:101A800093810E94B410F801248D82819381820F8A
:101A9000911D93838283248135818217930720F0DF
:101AA000808191819383828380E0D394F801D28EE8
:101AB0009189992321F0C80141960E94290681113C
:101AC0000E94AB060F900FBE81E05FC02C813D816C
:101AD000232B19F40F900FBE57C0811109C08091BC
:101AE0007C01898380917A0190917B019B838A8319
:101AF0000F900FBE0E94D0050FB6F8940F92F80118
:101B0000858D8F3F09F4158EF801868D8F3F09F47E
:101B1000168E0F900FBEBE016C5F7F4FCE010196F7
:101B20000E94900581112BC00FB6F8940F92F80116
:101B3000928D838D0F900FBE98131BC0AC80BD801B
:101B40006091C2017091C301645F7F4FC6010E9422
:101B5000830861E0C5010E94BB08C8010E946906B4
:101B60000E946807882311F081E03ACF0E94AB06FB
:101B7000FBCFC8010E9469060E946807F5CFC80123
:101B80000E9469060E94680780E00F900F900F90F6
:101B90000F900F90DF91CF911F910F91FF90EF90D9
:101BA000DF90CF90BF90AF9008957F928F929F92D9
:101BB000AF92BF92CF92DF92EF92FF920F931F935B
:101BC000CF93DF93782EA92E6B01EA01B22ECA01C2
:101BD0000E944B094C01892B09F462C188E290E014
:101BE0000E944B097C010097E9F0DC0158969C9219
:101BF0008E925797AE0165EA70E0C4010E94BD1055
:101C00002197D7015796ED91FC915897EC0FFD1F46
:101C1000C114D104D9F0B701675E7F4FD601C60168
:101C2000089607C0C4010E943A093AC1A817B9072B
:101C300049F09D014D91EB014993BE01E9012881D5
:101C40002111F4CFD70190961C9202C0E701198EA2
:101C50008B2D843008F083E0D70156968C935697ED
:101C600091968C93919792961C9292971B961C92A8
:101C70001E921A9755961C921E9254971996FC9292
:101C8000EE92189724E030E0E901C81BD1091D96B7
:101C9000DC93CE931C975396FC92EE9252979396B8
:101CA0001D921D921D921C92969797961C9291E1FF
:101CB0009083DF01119782E28C93119723E32C9399
:101CC00011977C921197AC9211971C92119720E872
:101CD0002C9311971C92119722E02C93119723E0DB
:101CE0002C93119724E02C93119725E02C931197B6
:101CF00026E02C93119727E02C93119728E02C9342
:101D0000119729E02C93119720E12C9311979C9324
:101D1000119792E19C93119793E19C93119794E111
:101D20009C93119795E19C93119796E19C93119741
:101D300097E19C93119798E19C93119799E19C935B
:101D4000119790E29C93119791E29C9311978C9339
:101D5000119783E28C9311971C9211971C92119703
:101D600086E28C93119787E28C93119788E28C938B
:101D7000119789E28C93119780E38C93119781E3FB
:101D80008C93B697E701F983E8830115110519F0E3
:101D9000F801F182E0820FB6F8940F928091C401AD
:101DA0008F5F8093C4018091C2019091C301892B00
:101DB000D1F5F092C301E092C2018091C40181305B
:101DC00009F043C08CE991E00E942C0985EA91E07A
:101DD0000E942C098EEA91E00E942C0987EB91E089
:101DE0000E942C0984E792E00E942C098BE692E085
:101DF0000E942C0983E991E00E942C098AE891E075
:101E00000E942C0981E891E00E942C0984E792E06D
:101E10009093800180937F018BE692E090937E0106
:101E200080937D0112C08091C10181110EC0E091AB
:101E3000C201F091C3019689D70156968C918917FA
:101E400020F0F092C301E092C20180917D028F5F89
:101E500080937D02E7018E899091C001981710F45C
:101E60008093C001D9E08D9FC0011124B7016E5F3E
:101E70007F4F84569E4F0E9408060F900FBE8091A0
:101E8000C101882359F0E091C201F091C301968904
:101E9000F7018689981710F40E94AB0681E001C013
:101EA0008FEFDF91CF911F910F91FF90EF90DF9017
:101EB000CF90BF90AF909F908F907F900895CF93D9
:101EC000DF9300D000D01F92CDB7DEB79C01809188
:101ED000780190917901009761F019827B836A8380
:101EE0003D832C832091C101222329F02091770189
:101EF00002C080E005C0BE016F5F7F4F0E94D80C1A
:101F00000F900F900F900F900F90DF91CF91089549
:101F1000EE0FFF1F0590F491E02D09940F931F938E
:101F2000CF93DF938230910510F482E090E0E0914E
:101F30008002F091810220E030E0A0E0B0E0309734
:101F400019F1408151810281138148175907C8F066
:101F50008417950769F4109731F012960C93129735
:101F600013961C9327C0009380021093810222C015
:101F70002115310519F04217530718F49A01BD01D4
:101F8000EF01DF01F801DBCF21153105F9F0281B46
:101F9000390B2430310580F48A819B8161157105EC
:101FA00021F0FB019383828304C09093810280938C
:101FB0008002FE01329644C0FE01E20FF31F8193BE
:101FC000919322503109398328833AC020917E02AF
:101FD00030917F02232B41F42091020130910301C3
:101FE00030937F0220937E02209100013091010105
:101FF0002115310541F42DB73EB7409104015091B0
:102000000501241B350BE0917E02F0917F02E2175F
:10201000F307A0F42E1B3F0B2817390778F0AC010B
:102020004E5F5F4F2417350748F04E0F5F1F5093E8
:102030007F0240937E028193919302C0E0E0F0E042
:10204000CF01DF91CF911F910F910895CF93DF932F
:10205000009709F481C0FC01329713821282A0918B
:102060008002B0918102109781F420813181820F2A
:10207000931F20917E0230917F022817390751F576
:10208000F0937F02E0937E0267C0ED0120E030E034
:10209000CE17DF0740F44A815B819E01411551054F
:1020A000F1F0EA01F5CFD383C28340815181840FDF
:1020B000951FC817D90759F488819981840F951FF6
:1020C0000296918380838A819B81938382832115E9
:1020D000310529F4F0938102E09380023DC0E901CB
:1020E000FB83EA8349915991C40FD51FEC17FD0773
:1020F00061F480819181840F951F0296E901998393
:102100008883828193819B838A83E0E0F0E012964A
:102110008D919C911397009719F0FD01DC01F7CF89
:102120008D919C9111979D012E5F3F4F820F931FC0
:1021300020917E0230917F022817390769F4309789
:1021400029F4109281021092800202C0138212823E
:10215000B0937F02A0937E02DF91CF91089581E03A
:1021600090E0F8940C94C410FB01DC0102C00190D3
:102170000D9241505040D8F70895DC0101C06D9395
:0C21800041505040E0F70895F894FFCF64
:10218C000000820280000000000023028C01BA01D2
:10219C007002EB01C901DD015461736B20340054F2
:1021AC0061736B2033005461736B20320054617384
:1021BC006B203100426C696E6B00416E616C6F6715
:1021CC00526561640049444C4500546D722053764D
:0621DC0063000D0A000083
:00000001FF
