:100000000C9453000C947B000C947B000C947B00AC
:100010000C947B000C947B000C947B000C947B0074
:100020000C947B000C947B000C947B000C947B0064
:100030000C947B000C9481030C947B000C947B004B
:100040000C94DF020C947B000C944F030C94290356
:100050000C947B000C947B000C947B000C947B0034
:100060000C947B000C947B0000000000250028000D
:100070002B0000000000240027002A0004040404D0
:100080000404040402020202020203030303030342
:10009000010204081020408001020408102001021F
:1000A000040810209A0411241FBECFEFD8E0DEBF51
:1000B000CDBF11E0A0E0B1E0E0E8FDE002C00590B6
:1000C0000D92A232B107D9F721E0A2E2B1E001C05E
:1000D0001D92AA3FB207E1F710E0C3E5D0E004C0EB
:1000E0002197FE010E94B306C235D107C9F70E94CD
:1000F000A8030C94BE060C940000CF92DF92EF92FE
:10010000FF920F931F93CF93DF936C017A018B01C2
:10011000C0E0D0E0CE15DF0581F0D8016D918D01F2
:10012000D601ED91FC910190F081E02DC601099579
:10013000892B11F02196EECF7E01C701DF91CF917F
:100140001F910F91FF90EF90DF90CF900895089549
:1001500080E090E00895FC01538D448D252F30E020
:10016000842F90E0821B930B541710F0CF960895C4
:1001700001970895FC01918D828D981761F0828D11
:10018000DF01A80FB11D5D968C91928D9F5F9F73CB
:10019000928F90E008958FEF9FEF0895FC01918D6D
:1001A000828D981731F0828DE80FF11D858D90E0DA
:1001B00008958FEF9FEF0895FC01918D228D892F77
:1001C00090E0805C9F4F821B91098F73992708955F
:1001D0008DE591E00E94DC0021E0892B09F420E00C
:1001E000822F0895FC01848DDF01A80FB11DA35A51
:1001F000BF4F2C91848D90E001968F739927848F47
:10020000A689B7892C93A089B1898C918370806469
:100210008C93938D848D981306C00288F389E02D0A
:1002200080818F7D80830895EF92FF920F931F93BB
:10023000CF93DF93EC0181E0888F9B8D8C8D981399
:1002400005C0E889F989808185FD26C0F62E0B8DD1
:1002500010E00F5F1F4F0F731127E02E8C8DE812F7
:100260000CC00FB607FCFACFE889F989808185FFB9
:10027000F5CFCE010E94F200F1CF8B8DFE01E80F89
:10028000F11DE35AFF4FF0829FB7F8940B8FEA8974
:10029000FB89808180620AC09FB7F894EE89FF894C
:1002A0006083E889F98980818370806480839FBF3F
:1002B00081E090E0DF91CF911F910F91FF90EF903F
:1002C0000895CF93DF93EC01888D8823C9F0EA89E4
:1002D000FB89808185FD05C0A889B9898C9186FD3F
:1002E0000FC00FB607FCF5CF808185FFF2CFA8893C
:1002F000B9898C9185FFEDCFCE010E94F200E7CF46
:10030000DF91CF91089580E090E0892B29F00E9441
:10031000E80081110C9400000895009769F0FC0139
:1003200001900020E9F73197AF01481B590BBC0140
:100330008DE591E00C947D0080E090E008952F928F
:100340003F924F925F926F927F928F929F92AF9265
:10035000BF92CF92DF92EF92FF920F931F93CF93B2
:10036000DF93CDB7DEB7A2970FB6F894DEBF0FBE0E
:10037000CDBF80E480937C0080917A00806480937C
:100380007A0080917A0086FDFCCF609178008091A0
:10039000790070E0782B072E000C880B990B0E94D7
:1003A0006A052AE038E240EA5BE30E941F066B011F
:1003B0007C0180912801909129018A30910511F0EA
:1003C000019602C080E090E090932901809328017B
:1003D000880F991F880F991FFC01E65DFE4FC082B0
:1003E000D182E282F382A7019601C701B6010E9481
:1003F0008C06882319F082E191E01AC0460157016A
:10040000E894B7F82FEF3FEF4FE75FE7C501B4017E
:100410000E948C0681110FC02FEF3FEF4FE75FE77F
:10042000C501B4010E94340518162CF486E191E050
:100430000E948D01A5C02FEF3FEF4FE75FE4C7019A
:10044000B6010E941A0618161CF48AE191E0F0CF5A
:100450002FEF3FEF4FE75FECC701B6010E94340575
:1004600087FDF3CF20E030E0A901C701B6010E946B
:10047000340587FF09C06DE28DE591E00E9414010B
:10048000F7FAF094F7F8F0942AE037ED43EA5BE3EB
:10049000C701B6010E94C8044B015C010E943905E6
:1004A0006B017C010E9468059B01AC01C501B40190
:1004B0000E94C7044B015C0119A28E010F5D1F4F02
:1004C0000AA3612E2AE0222E312C412C512CC70187
:1004D000B601A20191010E94910669017A01605D55
:1004E000F80162938F01232B242B252B81F7CF0159
:1004F0000E948D016EE28DE591E00E94140183E07F
:10050000F82E9AE0292E312C412C512CFA94FF2000
:10051000B9F120E030E040E251E4C501B4010E94AD
:100520001F064B015C010E9439059B0140E050E031
:1005300019A20AA1162D762EC32ED42EE52ECA019D
:10054000B901A20191010E949106605DF8016293D8
:100550008F01211531054105510589F7CF010E9411
:100560008D01672D7C2D8D2D9E2D0E9468059B0190
:10057000AC01C501B4010E94C7044B015C01C6CFA8
:100580008EE191E00E948D01A2960FB6F894DEBF35
:100590000FBECDBFDF91CF911F910F91FF90EF90D4
:1005A000DF90CF90BF90AF909F908F907F906F9093
:1005B0005F904F903F902F9008950E94B9061F9230
:1005C0000F920FB60F9211242F933F938F939F9307
:1005D000AF93BF938091590190915A01A0915B0113
:1005E000B0915C013091580123E0230F2D3720F4A6
:1005F0000196A11DB11D05C026E8230F0296A11D7D
:10060000B11D209358018093590190935A01A093F2
:100610005B01B0935C018091540190915501A091D0
:100620005601B09157010196A11DB11D809354014F
:1006300090935501A0935601B0935701BF91AF918C
:100640009F918F913F912F910F900FBE0F901F9010
:1006500018951F920F920FB60F9211242F933F936C
:100660004F935F936F937F938F939F93AF93BF93BA
:10067000EF93FF938DE591E00E94F200FF91EF91DF
:10068000BF91AF919F918F917F916F915F914F91AA
:100690003F912F910F900FBE0F901F9018951F92B2
:1006A0000F920FB60F9211242F938F939F93EF9376
:1006B000FF93E0916D01F0916E018081E0917301F3
:1006C000F091740182FD12C09081809176018F5F5C
:1006D0008F7320917701821751F0E0917601F0E05D
:1006E000E35AFE4F958F8093760101C08081FF9180
:1006F000EF919F918F912F910F900FBE0F901F90B0
:1007000018951F920F920FB60F9211242F933F93BB
:100710004F935F936F937F938F939F93AF93BF9309
:10072000EF93FF93E0912601F09127010995FF9146
:10073000EF91BF91AF919F918F917F916F915F9159
:100740004F913F912F910F900FBE0F901F901895D2
:10075000789484B5826084BD84B5816084BD85B59C
:10076000826085BD85B5816085BD80916E008160A8
:1007700080936E001092810080918100826080934E
:100780008100809181008160809381008091800050
:100790008160809380008091B10084608093B1007B
:1007A0008091B00081608093B00080917A00846075
:1007B00080937A0080917A00826080937A008091A1
:1007C0007A00816080937A0080917A0080688093BB
:1007D0007A001092C100E0916D01F0916E0192E0FB
:1007E0009083E0916901F0916A011082E0916B01C0
:1007F000F0916C018FEC808310927501E091710192
:10080000F091720186E08083E0916F01F0917001B8
:10081000808180618083E0916F01F091700180811F
:1008200088608083E0916F01F09170018081806821
:100830008083E0916F01F091700180818F7D8083D2
:1008400080917A00887F80937A001092800080E106
:1008500080938100909324018FB780932501F894B1
:1008600080E197E290932301809322019093870087
:1008700080938600809125018FBF80918100887FC1
:10088000809381009091810080912401982B909316
:1008900081002FE931E0309327012093260191E078
:1008A00090936F0090918100892B80938100EEE9F5
:1008B000F0E02491EAE8F0E084918823C1F090E030
:1008C000880F991FFC01EE58FF4FC591D491FC0190
:1008D000E859FF4FA591B4919FB7F8948881E22F12
:1008E000E0958E2388838C91E823EC939FBF109230
:1008F000530110925201C9E0D0E001E010E0809174
:10090000520190915301892B91F4EAE2F1E01192A6
:1009100011921192119281E0E235F807C1F7D0935C
:100920002901C093280110935301009352010E94A2
:100930008301E5CFEDE5F1E01382128288EE93E0CA
:10094000A0E0B0E084839583A683B78384E091E040
:100950009183808385EC90E09587848784EC90E098
:100960009787868780EC90E0918B808B81EC90E07C
:10097000938B828B82EC90E0958B848B86EC90E05D
:10098000978B868B118E128E138E148E089550586D
:10099000BB27AA270E94DF040C94E0050E94D20521
:1009A00038F00E94D90520F039F49F3F19F426F45D
:1009B0000C94CF050EF4E095E7FB0C94C905E92FE4
:1009C0000E94F10558F3BA17620773078407950769
:1009D00020F079F4A6F50C9413060EF4E0950B2E96
:1009E000BA2FA02D0B01B90190010C01CA01A00181
:1009F0001124FF27591B99F0593F50F4503E68F1DC
:100A00001A16F040A22F232F342F4427585FF3CF1C
:100A1000469537952795A795F0405395C9F77EF4ED
:100A20001F16BA0B620B730B840BBAF09150A1F036
:100A3000FF0FBB1F661F771F881FC2F70EC0BA0FBC
:100A4000621F731F841F48F4879577956795B79544
:100A5000F7959E3F08F0B0CF9395880F08F099273F
:100A6000EE0F9795879508950E94A50508F481E0FB
:100A700008950E94F90588F09F5798F0B92F99279B
:100A8000B751B0F0E1F0660F771F881F991F1AF079
:100A9000BA95C9F714C0B13091F00E941306B1E0C5
:100AA00008950C941306672F782F8827B85F39F0C4
:100AB000B93FCCF3869577956795B395D9F73EF412
:100AC00090958095709561957F4F8F4F9F4F0895BA
:100AD000E89409C097FB3EF49095809570956195D8
:100AE0007F4F8F4F9F4F9923A9F0F92F96E9BB278E
:100AF0009395F695879577956795B795F111F8CF0A
:100B0000FAF4BB0F11F460FF1BC06F5F7F4F8F4F74
:100B10009F4F16C0882311F096E911C0772321F06A
:100B20009EE8872F762F05C0662371F096E8862F02
:100B300070E060E02AF09A95660F771F881FDAF759
:100B4000880F9695879597F90895990F0008550F86
:100B5000AA0BE0E8FEEF16161706E807F907C0F043
:100B600012161306E407F50798F0621B730B840B4B
:100B7000950B39F40A2661F0232B242B252B21F425
:100B800008950A2609F4A140A6958FEF811D811DC5
:100B9000089597F99F6780E870E060E008959FEFFF
:100BA00080EC089500240A94161617061806090604
:100BB000089500240A9412161306140605060895D3
:100BC000092E0394000C11F4882352F0BB0F40F45B
:100BD000BF2B11F460FF04C06F5F7F4F8F4F9F4F9B
:100BE000089557FD9058440F551F59F05F3F71F01D
:100BF0004795880F97FB991F61F09F3F79F0879584
:100C00000895121613061406551FF2CF4695F1DF0C
:100C100008C0161617061806991FF1CF869571059C
:100C2000610508940895E894BB2766277727CB01D0
:100C300097F908950E94A50508F48FEF08950E9482
:100C400032060C94E0050E94D20538F00E94D905C6
:100C500020F0952311F00C94C9050C94CF051124B4
:100C60000C9414060E94F10570F3959FC1F3950F43
:100C700050E0551F629FF001729FBB27F00DB11D20
:100C8000639FAA27F00DB11DAA1F649F6627B00DB0
:100C9000A11D661F829F2227B00DA11D621F739F99
:100CA000B00DA11D621F839FA00D611D221F749FA7
:100CB0003327A00D611D231F849F600D211D822FEE
:100CC000762F6A2F11249F5750409AF0F1F0882315
:100CD0004AF0EE0FFF1FBB1F661F771F881F915042
:100CE0005040A9F79E3F510580F00C94C9050C9423
:100CF00014065F3FE4F3983ED4F3869577956795A5
:100D0000B795F795E7959F5FC1F7FE2B880F911D6B
:100D10009695879597F908950E94A505880B990BDC
:100D20000895A1E21A2EAA1BBB1BFD010DC0AA1F2C
:100D3000BB1FEE1FFF1FA217B307E407F50720F044
:100D4000A21BB30BE40BF50B661F771F881F991FBF
:100D50001A9469F760957095809590959B01AC0108
:100D6000BD01CF010895EE0FFF1F0590F491E02D16
:100D7000099481E090E0F8940C94BE06F894FFCFBB
:100D80000000000014017D00AB006101DC00BA002E
:100D9000CE006E616E00696E66006F7666000D0AA9
:020DA000000051
:00000001FF
