:100000000C9453000C947B000C947B000C947B00AC
:100010000C947B000C947B000C947B000C947B0074
:100020000C947B000C947B000C947B000C947B0064
:100030000C947B000C94AE030C947B000C947B001E
:100040000C940C030C947B000C947C030C945603CE
:100050000C947B000C947B000C947B000C947B0034
:100060000C947B000C947B0000000000250028000D
:100070002B0000000000240027002A0004040404D0
:100080000404040402020202020203030303030342
:10009000010204081020408001020408102001021F
:1000A00004081020A70411241FBECFEFD8E0DEBF44
:1000B000CDBF11E0A0E0B1E0EAE9FDE002C00590AB
:1000C0000D92AE39B107D9F722E0AEE9B1E001C037
:1000D0001D92A63CB207E1F710E0C3E5D0E004C0F2
:1000E0002197FE010E94C006C235D107C9F70E94C0
:1000F000D5030C94CB060C940000CF92DF92EF92C4
:10010000FF920F931F93CF93DF936C017A018B01C2
:10011000C0E0D0E0CE15DF0581F0D8016D918D01F2
:10012000D601ED91FC910190F081E02DC601099579
:10013000892B11F02196EECF7E01C701DF91CF917F
:100140001F910F91FF90EF90DF90CF900895089549
:1001500080E090E00895FC01538D448D252F30E020
:10016000842F90E0821B930B541710F0CF960895C4
:1001700001970895FC01918D828D981761F0828D11
:10018000DF01A80FB11D5D968C91928D9F5F9F73CB
:10019000928F90E008958FEF9FEF0895FC01918D6D
:1001A000828D981731F0828DE80FF11D858D90E0DA
:1001B00008958FEF9FEF0895FC01918D228D892F77
:1001C00090E0805C9F4F821B91098F73992708955F
:1001D00089E292E00E94DC0021E0892B09F420E012
:1001E000822F0895FC01848DDF01A80FB11DA35A51
:1001F000BF4F2C91848D90E001968F739927848F47
:10020000A689B7892C93A089B1898C918370806469
:100210008C93938D848D981306C00288F389E02D0A
:1002200080818F7D80830895EF92FF920F931F93BB
:10023000CF93DF93EC0181E0888F9B8D8C8D981399
:1002400005C0E889F989808185FD26C0F62E0B8DD1
:1002500010E00F5F1F4F0F731127E02E8C8DE812F7
:100260000CC00FB607FCFACFE889F989808185FFB9
:10027000F5CFCE010E94F200F1CF8B8DFE01E80F89
:10028000F11DE35AFF4FF0829FB7F8940B8FEA8974
:10029000FB89808180620AC09FB7F894EE89FF894C
:1002A0006083E889F98980818370806480839FBF3F
:1002B00081E090E0DF91CF911F910F91FF90EF903F
:1002C0000895CF93DF93EC01888D8823C9F0EA89E4
:1002D000FB89808185FD05C0A889B9898C9186FD3F
:1002E0000FC00FB607FCF5CF808185FFF2CFA8893C
:1002F000B9898C9185FFEDCFCE010E94F200E7CF46
:10030000DF91CF91089580E090E0892B29F00E9441
:10031000E80081110C9400000895009769F0FC0139
:1003200001900020E9F73197AF01481B590BBC0140
:1003300089E292E00C947D0080E090E008952F9295
:100340003F924F925F926F927F928F929F92AF9265
:10035000BF92CF92DF92EF92FF920F931F93CF93B2
:10036000DF93CDB7DEB7CD57D1090FB6F894DEBF16
:100370000FBECDBF80E480937C0080917A008064C2
:1003800080937A0080917A0086FDFCCF609178009E
:100390008091790070E0782B072E000C880B990B68
:1003A0000E9477052AE038E240EA5BE30E942C06CF
:1003B0002CE7E0E0F1E0DE01119601900D922A9524
:1003C000E1F7E6E1F2E03EE9A32E31E0B32E32910F
:1003D0002291129102910483158326833783AE16EE
:1003E000BF06A9F760939E0170939F018093A001BF
:1003F0009093A1018E010F5F1F4F4E018DE7880E74
:10040000911CC12CD12C7601F801619171918191DF
:1004100091918F01F50121913191419151915F01AC
:100420000E942C069B01AC01C701B6010E94D504B5
:100430006B017C018016910639F79B01AC010E948B
:100440009906882319F08EE891E01AC046015701F9
:10045000E894B7F82FEF3FEF4FE75FE7C501B4012E
:100460000E94990681110FC02FEF3FEF4FE75FE722
:10047000C501B4010E94410518162CF482E991E0EF
:100480000E948D01A9C02FEF3FEF4FE75FE4C70146
:10049000B6010E94270618161CF486E991E0F0CFF9
:1004A0002FEF3FEF4FE75FECC701B6010E94410518
:1004B00087FDF3CF20E030E0A901C701B6010E941B
:1004C000410587FF09C06DE289E292E00E941401B4
:1004D000F7FAF094F7F8F0942CEB37E346E055E3A5
:1004E000C701B6010E94D5044B015C010E9446057C
:1004F0006B017C010E9475059B01AC01C501B40133
:100500000E94D4044B015C0119A28E010F5D1F4FA4
:10051000EE960FAFEE97612E2AE0222E312C412C61
:10052000512CC701B601A20191010E949E066901EA
:100530007A01605DF80162938F01232B242B252B18
:1005400081F7CF010E948D016EE289E292E00E9464
:10055000140187E0F82E9AE0292E312C412C512CE1
:10056000FA94FF20C9F120E030E040E251E4C501F7
:10057000B4010E942C064B015C010E9446059B01C0
:1005800040E050E019A2EE960FADEE97162D762EB4
:10059000C32ED42EE52ECA01B901A20191010E94F9
:1005A0009E06605DF80162938F01211531054105BA
:1005B000510589F7CF010E948D01672D7C2D8D2D6E
:1005C0009E2D0E9475059B01AC01C501B4010E94DE
:1005D000D4044B015C01C4CF8AE991E00E948D01F3
:1005E000C358DF4F0FB6F894DEBF0FBECDBFDF910B
:1005F000CF911F910F91FF90EF90DF90CF90BF9020
:10060000AF909F908F907F906F905F904F903F90B2
:100610002F9008950E94C6061F920F920FB60F9258
:1006200011242F933F938F939F93AF93BF93809108
:10063000250290912602A0912702B09128023091C4
:10064000240223E0230F2D3720F40196A11DB11DB4
:1006500005C026E8230F0296A11DB11D2093240298
:100660008093250290932602A0932702B09328023C
:100670008091200290912102A0912202B091230248
:100680000196A11DB11D8093200290932102A09399
:100690002202B0932302BF91AF919F918F913F911E
:1006A0002F910F900FBE0F901F9018951F920F92D1
:1006B0000FB60F9211242F933F934F935F936F9335
:1006C0007F938F939F93AF93BF93EF93FF9389E2B1
:1006D00092E00E94F200FF91EF91BF91AF919F9144
:1006E0008F917F916F915F914F913F912F910F90DB
:1006F0000FBE0F901F9018951F920F920FB60F927A
:1007000011242F938F939F93EF93FF93E0913902DE
:10071000F0913A028081E0913F02F091400282FD27
:1007200012C09081809142028F5F8F7320914302AB
:10073000821751F0E0914202F0E0E75DFD4F958FA6
:100740008093420201C08081FF91EF919F918F9130
:100750002F910F900FBE0F901F9018951F920F9220
:100760000FB60F9211242F933F934F935F936F9384
:100770007F938F939F93AF93BF93EF93FF93E091FA
:100780001E02F0911F020995FF91EF91BF91AF9169
:100790009F918F917F916F915F914F913F912F9199
:1007A0000F900FBE0F901F901895789484B58260BB
:1007B00084BD84B5816084BD85B5826085BD85B505
:1007C000816085BD80916E00816080936E00109283
:1007D00081008091810082608093810080918100FE
:1007E000816080938100809180008160809380008F
:1007F0008091B10084608093B1008091B0008160ED
:100800008093B00080917A00846080937A00809118
:100810007A00826080937A0080917A008160809370
:100820007A0080917A00806880937A001092C100EB
:10083000E0913902F0913A0292E09083E091350222
:10084000F09136021082E0913702F09138028FEC7D
:10085000808310924102E0913D02F0913E0286E0D9
:100860008083E0913B02F0913C0280818061808333
:10087000E0913B02F0913C02808188608083E091AE
:100880003B02F0913C02808180688083E0913B02D2
:10089000F0913C0280818F7D808380917A00887FF7
:1008A00080937A001092800080E180938100909381
:1008B0001C028FB780931D02F89480E197E2909319
:1008C0001B0280931A029093870080938600809188
:1008D0001D028FBF80918100887F8093810090915D
:1008E000810080911C02982B909381002FE931E0C8
:1008F00030931F0220931E0291E090936F0090911D
:100900008100892B80938100EEE9F0E02491EAE8F0
:10091000F0E084918823C1F090E0880F991FFC01DA
:10092000EE58FF4FC591D491FC01E859FF4FA591B6
:10093000B4919FB7F8948881E22FE0958E23888345
:100940008C91E823EC939FBF0E948301FDCFE9E2E5
:10095000F2E01382128288EE93E0A0E0B0E084839C
:100960009583A683B78380E891E09183808385ECAB
:1009700090E09587848784EC90E09787868780EC69
:1009800090E0918B808B81EC90E0938B828B82EC5A
:1009900090E0958B848B86EC90E0978B868B118E04
:1009A000128E138E148E08955058BB27AA270E94CA
:1009B000EC040C94ED050E94DF0538F00E94E6057A
:1009C00020F039F49F3F19F426F40C94DC050EF462
:1009D000E095E7FB0C94D605E92F0E94FE0558F33D
:1009E000BA17620773078407950720F079F4A6F514
:1009F0000C9420060EF4E0950B2EBA2FA02D0B01BF
:100A0000B90190010C01CA01A0011124FF27591B53
:100A100099F0593F50F4503E68F11A16F040A22F59
:100A2000232F342F4427585FF3CF469537952795CA
:100A3000A795F0405395C9F77EF41F16BA0B620BC9
:100A4000730B840BBAF09150A1F0FF0FBB1F661F10
:100A5000771F881FC2F70EC0BA0F621F731F841F53
:100A600048F4879577956795B795F7959E3F08F079
:100A7000B0CF9395880F08F09927EE0F979587953B
:100A800008950E94B20508F481E008950E940606C8
:100A900088F09F5798F0B92F9927B751B0F0E1F03F
:100AA000660F771F881F991F1AF0BA95C9F714C0EF
:100AB000B13091F00E942006B1E008950C94200618
:100AC000672F782F8827B85F39F0B93FCCF3869528
:100AD00077956795B395D9F73EF490958095709585
:100AE00061957F4F8F4F9F4F0895E89409C097FB02
:100AF0003EF490958095709561957F4F8F4F9F4FF5
:100B00009923A9F0F92F96E9BB279395F695879538
:100B100077956795B795F111F8CFFAF4BB0F11F4FB
:100B200060FF1BC06F5F7F4F8F4F9F4F16C08823A2
:100B300011F096E911C0772321F09EE8872F762FD8
:100B400005C0662371F096E8862F70E060E02AF019
:100B50009A95660F771F881FDAF7880F9695879505
:100B600097F90895990F0008550FAA0BE0E8FEEFDA
:100B700016161706E807F907C0F012161306E40761
:100B8000F50798F0621B730B840B950B39F40A265A
:100B900061F0232B242B252B21F408950A2609F438
:100BA000A140A6958FEF811D811D089597F99F673C
:100BB00080E870E060E008959FEF80EC08950024E5
:100BC0000A941616170618060906089500240A94B2
:100BD00012161306140605060895092E0394000C38
:100BE00011F4882352F0BB0F40F4BF2B11F460FFC7
:100BF00004C06F5F7F4F8F4F9F4F089557FD9058F0
:100C0000440F551F59F05F3F71F04795880F97FBD0
:100C1000991F61F09F3F79F087950895121613068A
:100C20001406551FF2CF4695F1DF08C016161706B9
:100C30001806991FF1CF86957105610508940895EE
:100C4000E894BB2766277727CB0197F908950E9480
:100C5000B20508F48FEF08950E943F060C94ED054D
:100C60000E94DF0538F00E94E60520F0952311F080
:100C70000C94D6050C94DC0511240C9421060E94DA
:100C8000FE0570F3959FC1F3950F50E0551F629FCD
:100C9000F001729FBB27F00DB11D639FAA27F00DD5
:100CA000B11DAA1F649F6627B00DA11D661F829FFC
:100CB0002227B00DA11D621F739FB00DA11D621FE1
:100CC000839FA00D611D221F749F3327A00D611DFE
:100CD000231F849F600D211D822F762F6A2F1124E0
:100CE0009F5750409AF0F1F088234AF0EE0FFF1F13
:100CF000BB1F661F771F881F91505040A9F79E3F6A
:100D0000510580F00C94D6050C9421065F3FE4F366
:100D1000983ED4F3869577956795B795F795E795BF
:100D20009F5FC1F7FE2B880F911D9695879597F9C8
:100D300008950E94B205880B990B0895A1E21A2E1E
:100D4000AA1BBB1BFD010DC0AA1FBB1FEE1FFF1F6F
:100D5000A217B307E407F50720F0A21BB30BE40BBF
:100D6000F50B661F771F881F991F1A9469F7609506
:100D70007095809590959B01AC01BD01CF010895C0
:100D8000EE0FFF1F0590F491E02D099481E090E0B3
:0A0D9000F8940C94CB06F894FFCF02
:100D9A00E2296DBBF1E9C1BBA0C5DABBF60C99BB70
:100DAA006AC23E3A51BA123CD065923CB035C33C55
:100DBA00AB6AB73C127C1D3C55F585BCD8DD5CBDE1
:100DCA0005F2C7BDD1530EBE38C12CBEFD76513FC8
:100DDA0038C12CBED1530EBE05F2C7BDD8DD5CBDED
:100DEA0055F585BC127C1D3CAB6AB73CB035C33C9B
:100DFA00D065923C51BA123C6AC23E3AF60C99BB93
:100E0A00A0C5DABBF1E9C1BBE2296DBB0000000055
:100E1A0014017D00AB006101DC00BA00CE006E61F6
:0E0E2A006E00696E66006F7666000D0A0000AD
:107E0000112484B714BE81FFF0D085E080938100F7
:107E100082E08093C00088E18093C10086E0809377
:107E2000C20080E18093C4008EE0C9D0259A86E02C
:107E300020E33CEF91E0309385002093840096BBD3
:107E4000B09BFECF1D9AA8958150A9F7CC24DD24C4
:107E500088248394B5E0AB2EA1E19A2EF3E0BF2EE7
:107E6000A2D0813461F49FD0082FAFD0023811F036
:107E7000013811F484E001C083E08DD089C08234E0
:107E800011F484E103C0853419F485E0A6D080C0E4
:107E9000853579F488D0E82EFF2485D0082F10E0AE
:107EA000102F00270E291F29000F111F8ED06801E7
:107EB0006FC0863521F484E090D080E0DECF843638
:107EC00009F040C070D06FD0082F6DD080E0C81688
:107ED00080E7D80618F4F601B7BEE895C0E0D1E017
:107EE00062D089930C17E1F7F0E0CF16F0E7DF06D8
:107EF00018F0F601B7BEE89568D007B600FCFDCFD4
:107F0000A601A0E0B1E02C9130E011968C91119780
:107F100090E0982F8827822B932B1296FA010C0160
:107F200087BEE89511244E5F5F4FF1E0A038BF0790
:107F300051F7F601A7BEE89507B600FCFDCF97BE46
:107F4000E89526C08437B1F42ED02DD0F82E2BD052
:107F50003CD0F601EF2C8F010F5F1F4F84911BD097
:107F6000EA94F801C1F70894C11CD11CFA94CF0C13
:107F7000D11C0EC0853739F428D08EE10CD085E9AC
:107F80000AD08FE07ACF813511F488E018D01DD067
:107F900080E101D065CF982F8091C00085FFFCCF94
:107FA0009093C60008958091C00087FFFCCF809118
:107FB000C00084FD01C0A8958091C6000895E0E648
:107FC000F0E098E1908380830895EDDF803219F02E
:107FD00088E0F5DFFFCF84E1DECF1F93182FE3DFCA
:107FE0001150E9F7F2DF1F91089580E0E8DFEE27F6
:047FF000FF270994CA
:027FFE00040479
:0400000300007E007B
:00000001FF
