:100000000C9435000C945D000C945D000C945D0024
:100010000C945D000C945D000C945D000C945D00EC
:100020000C945D000C945D000C945D000C945D00DC
:100030000C945D000C945D000C945D000C945D00CC
:100040000C940B040C945D000C947B040C945504EC
:100050000C945D000C945D000C945D000C945D00AC
:100060000C945D000C945D00AD0411241FBECFEF15
:10007000D8E0DEBFCDBF22E0A8E1B2E001C01D9212
:10008000A83CB207E1F712E0A0E0B1E0ECE8F8E14B
:1000900002C005900D92A831B107D9F710E0C5E371
:1000A000D0E004C02197FE010E94420AC433D10768
:1000B000C9F70E94DA040C94440C0C9400003FB77A
:1000C000F8948091230290912402A0912502B0918E
:1000D000260226B5A89B05C02F3F19F00196A11D49
:1000E000B11D3FBFBA2FA92F982F8827820F911DCE
:1000F000A11DB11DBC01CD0142E0660F771F881F15
:10010000991F4A95D1F70895CF92DF92EF92FF920F
:100110000F931F93CF93DF936C017A018B01C0E0A3
:10012000D0E0CE15DF0581F0D8016D918D01D601AB
:10013000ED91FC910190F081E02DC6010995892B8C
:1001400011F02196EECF7E01C701DF91CF911F9173
:100150000F91FF90EF90DF90CF900895089580E089
:1001600090E00895FC01538D448D252F30E0842FBD
:1001700090E0821B930B541710F0CF9608950197CF
:100180000895FC01918D828D981761F0828DDF01B9
:10019000A80FB11D5D968C91928D9F5F9F73928F7A
:1001A00090E008958FEF9FEF0895FC01918D828D6F
:1001B000981731F0828DE80FF11D858D90E008953C
:1001C0008FEF9FEF0895FC01918D228D892F90E094
:1001D000805C9F4F821B91098F739927089587E256
:1001E00092E00E94E30021E0892B09F420E0822FB5
:1001F0000895FC01848DDF01A80FB11DA35ABF4FE4
:100200002C91848D90E001968F739927848FA68915
:10021000B7892C93A089B1898C91837080648C9369
:10022000938D848D981306C00288F389E02D808118
:100230008F7D80830895EF92FF920F931F93CF934A
:10024000DF93EC0181E0888F9B8D8C8D981305C026
:10025000E889F989808185FD26C0F62E0B8D10E096
:100260000F5F1F4F0F731127E02E8C8DE8120CC00B
:100270000FB607FCFACFE889F989808185FFF5CFB1
:10028000CE010E94F900F1CF8B8DFE01E80FF11D28
:10029000E35AFF4FF0829FB7F8940B8FEA89FB89EE
:1002A000808180620AC09FB7F894EE89FF896083DD
:1002B000E889F98980818370806480839FBF81E0B1
:1002C00090E0DF91CF911F910F91FF90EF900895F3
:1002D000CF93DF93EC01888D8823C9F0EA89FB89ED
:1002E000808185FD05C0A889B9898C9186FD0FC0E4
:1002F0000FB607FCF5CF808185FFF2CFA889B989B9
:100300008C9185FFEDCFCE010E94F900E7CFDF9100
:10031000CF91089580E090E0892B29F00E94EF00B2
:1003200081110C9400000895009769F0FC01019080
:100330000020E9F73197AF01481B590BBC0187E258
:1003400092E00C94840080E090E0089588E191E0D0
:100350000C949401CF93DF930E949401EC010E94CE
:10036000A6018C0F9D1FDF91CF9108958F929F92D0
:10037000AF92BF920F931F93CF93DF93CDB7DEB7AA
:10038000A1970FB6F894DEBF0FBECDBF19A24230C1
:1003900008F44AE08E010F5D1F4F842E912CA12C92
:1003A000B12CA50194010E94200AE62FB901CA01CF
:1003B00001501109EA3014F4E05D01C0E95CD80194
:1003C000EC93232B242B252B61F7C8010E94940169
:1003D000A1960FB6F894DEBF0FBECDBFDF91CF91CF
:1003E0001F910F91BF90AF909F908F900895CF92E3
:1003F000DF92EF92FF92CF93DF936B017C016DE26E
:1004000087E292E00E941B01EC0166277727CB016F
:100410006C197D098E099F094AE00E94B6018C0F74
:100420009D1FDF91CF91FF90EF90DF90CF900895C7
:100430008F929F92AF92BF92CF92DF92EF92FF92F4
:100440000F931F93CF93DF936B017C01142F9B01BC
:10045000AC010E941B0A882319F08BE191E027C0B0
:1004600046015701E894B7F82FEF3FEF4FE75FE7FA
:10047000C501B4010E941B0A81110DC02FEF3FEF8F
:100480004FE75FE7C501B4010E94AD0718161CF4E1
:100490008FE191E00CC02FEF3FEF4FE75FE4C70122
:1004A000B6010E94160A181684F483E291E0DF91E7
:1004B000CF911F910F91FF90EF90DF90CF90BF9061
:1004C000AF909F908F900C9494012FEF3FEF4FE7E8
:1004D0005FECC701B6010E94AD0787FDE6CF20E0C3
:1004E00030E0A901C701B6010E94AD0787FF0BC02C
:1004F0006DE287E292E00E941B01EC01F7FAF094B2
:10050000F7F8F09402C0C0E0D0E000E060E070E0F6
:1005100080E09FE3101741F020E030E040E251E43A
:100520000E9475090F5FF6CFA70196010E94090985
:100530006B017C010E94E7094B015C014AE00E94CB
:10054000B601C80FD91F1123B9F1C501B4010E942A
:10055000B2079B01AC01C701B6010E9408096B01FB
:100560007C016EE287E292E00E941B01C80FD91F56
:1005700020E030E040E251E4C701B6010E941308D8
:100580004B015C010E94E7096B01E12CF12C4AE070
:10059000C701B6010E94B601C80FD91FC701B60135
:1005A0000E94B2079B01AC01C501B4010E94080979
:1005B0006B017C011150E1F6CE01DF91CF911F91CB
:1005C0000F91FF90EF90DF90CF90BF90AF909F90F2
:1005D0008F900895EF92FF920F931F93CF93DF9325
:1005E000D82FC92F7B018BE891E00E9494010D2F39
:1005F0001C2FC0E0D0E0CE15DF058CF4209721F051
:1006000087E291E00E949401F801619171918191DA
:1006100091918F0142E00E9418022196ECCF89E26D
:1006200091E0DF91CF911F910F91FF90EF900C948B
:10063000AA010E942F0CFC0180819181009711F08A
:100640000C94710760E070E0CB0108950F931F9345
:10065000CF93DF93EC0188819981009729F02A815B
:100660003B812617370788F48B016F5F7F4F0E940D
:10067000690B009761F0998388831B830A832C811F
:100680003D81232B11F4FC01108281E001C080E048
:10069000DF91CF911F910F9108957F928F929F923A
:1006A000AF92BF92CF92DF92EF92FF920F931F9380
:1006B000CF93DF9300D0CDB7DEB78C01FC01118260
:1006C0001082138212821582148260E070E00E9410
:1006D0002603F8012081318181110EC021153105D9
:1006E00019F0C9010E94E00AF801118210821582F6
:1006F00014821382128208C0F801158214826AE102
:1007000071E0C9010E943D0C87E292E00E94E30083
:1007100018161906CCF787E292E00E94E30018163B
:1007200019060CF067C087E292E00E94C100782EA3
:100730000E945F004B015C0184E0C82ED12CE12CAB
:10074000F12C0E945F00DC01CB0188199909AA09EC
:10075000BB09883E9340A105B10598F3F1E0CF1A9B
:10076000D108E108F10828EE820E23E0921EA11CB8
:10077000B11CC114D104E104F10419F7F801E480BB
:10078000F580FAE07F16E1F079821A822FEFE21A03
:10079000F20AB701C8010E942603882309F4BBCFDF
:1007A000F8012081318184819581BE016F5F7F4F87
:1007B000820F931F0E943D0CF801F582E482ABCFBB
:1007C00019821A82FFEFEF1AFF0AB701C8010E94CF
:1007D0002603882379F0F801208131818481958175
:1007E000BE016F5F7F4F820F931F0E943D0CF80187
:1007F000F582E482C8010F900F90DF91CF911F9195
:100800000F91FF90EF90DF90CF90BF90AF909F90AF
:100810008F907F9008951F920F920FB60F92112420
:100820002F933F938F939F93AF93BF9380911F021A
:1008300090912002A0912102B091220230911E02DB
:1008400023E0230F2D3720F40196A11DB11D05C013
:1008500026E8230F0296A11DB11D20931E0280934E
:100860001F0290932002A0932102B0932202809154
:10087000230290912402A0912502B09126020196B4
:10088000A11DB11D8093230290932402A093250201
:10089000B0932602BF91AF919F918F913F912F917D
:1008A0000F900FBE0F901F9018951F920F920FB6CA
:1008B0000F9211242F933F934F935F936F937F93E6
:1008C0008F939F93AF93BF93EF93FF9387E292E051
:1008D0000E94F900FF91EF91BF91AF919F918F918D
:1008E0007F916F915F914F913F912F910F900FBE2C
:1008F0000F901F9018951F920F920FB60F92112410
:100900002F938F939F93EF93FF93E0913702F09192
:1009100038028081E0913D02F0913E0282FD12C0DA
:100920009081809140028F5F8F73209141028217E6
:1009300051F0E0914002F0E0E95DFD4F958F80932A
:10094000400201C08081FF91EF919F918F912F9183
:100950000F900FBE0F901F901895E7E2F2E0138200
:10096000128288EE93E0A0E0B0E084839583A683B2
:10097000B7838AE091E09183808385EC90E095874E
:10098000848784EC90E09787868780EC90E0918B59
:10099000808B81EC90E0938B828B82EC90E0958B46
:1009A000848B86EC90E0978B868B118E128E138E43
:1009B000148E0895CF93DF93CDB7DEB764970FB64B
:1009C000F894DEBF0FBECDBF789484B5826084BD3D
:1009D00084B5816084BD85B5826085BD85B5816043
:1009E00085BD80916E00816080936E0010928100C1
:1009F000809181008260809381008091810081607C
:100A0000809381008091800081608093800080913C
:100A1000B10084608093B1008091B00081608093C8
:100A2000B00080917A00846080937A0080917A008F
:100A3000826080937A0080917A00816080937A004E
:100A400080917A00806880937A001092C100E091D2
:100A50003702F091380282E08083E0913302F09116
:100A600034021082E0913502F09136028FEC8083DF
:100A700010923F02E0913B02F0913C0286E08083BD
:100A8000E0913902F0913A02808180618083E091A7
:100A90003902F0913A02808188608083E0913902C6
:100AA000F0913A02808180688083E0913902F09170
:100AB0003A0280818F7D808380911C0290911D027B
:100AC000892B09F00BC24DB75EB7588B4F878CE26C
:100AD00091E00E94AA01CE0101960E944D03CE0131
:100AE00001960E941B036B017C0170931B026093B3
:100AF0001A0289819A810E94E00ACC0CDD1CCC0C80
:100B0000DD1C8DB79EB78C199D090FB6F8949EBF5A
:100B10000FBE8DBFADB7BEB711965D010E94A60195
:100B200088E491E00E94AA0185017501412C512CB5
:100B30003201439420911A0230911B02C2010197A5
:100B40008217930764F585E891E00E9494014AE0DA
:100B5000C301B2010E94B6018EE891E00E949401A7
:100B6000CE0101960E944D03CE0101960E941B0307
:100B70000E94B407F70161937193819391937F0170
:100B800042E00E9418020E94A60189819A810E9477
:100B9000E00AFFEF4F1A5F0A6F0A7F0ACBCF83E9A3
:100BA00091E00E94AA01CE0101960E944D03CE0160
:100BB00001960E941B036B017C01709319026093E4
:100BC000180289819A810E94E00ACC0CDD1CCC0CB1
:100BD000DD1C4DB75EB74C195D090FB6F8945EBFCA
:100BE0000FBE4DBF8DB79EB701966C010E94A60146
:100BF0008FEA91E00E94AA0176014601412C512C16
:100C0000320143942091180230911902C2010197D8
:100C10008217930764F58CEE91E00E9494014AE0FC
:100C2000C301B2010E94B6018EE891E00E949401D6
:100C3000CE0101960E944D03CE0101960E941B0336
:100C40000E94B407D4016D937D938D939D934D01C4
:100C500042E00E9418020E94A60189819A810E94A6
:100C6000E00ABFEF4B1A5B0A6B0A7B0ACBCF85EF1A
:100C700091E00E94AA0160911A0270911B02C501C5
:100C80000E94EA0280E092E00E94AA0160911802AC
:100C900070911902C6010E94EA020E94A6012091E9
:100CA00018023091190220901A0230901B02B101F3
:100CB00061507109F101EE0FFF1FEE0FFF1FFC875E
:100CC000EB874DB75EB74E1B5F0B0FB6F8945EBF58
:100CD0000FBE4DBF8DB79EB701969E878D87C90108
:100CE000880F991F880F991FADB7BEB7A81BB90B06
:100CF0000FB6F894BEBF0FBEADBFEDB7FEB73196CD
:100D00003F012901420C531CF1E04F1A5108C20166
:100D1000880F991F880F991F4DB75EB7481B590B55
:100D20000FB6F8945EBF0FBE4DBF8DB79EB701964C
:100D30009A878987AB01440F551F420F531FCA0181
:100D4000880F991F880F991FADB7BEB7A81BB90BA5
:100D50000FB6F894BEBF0FBEADBFEDB7FEB731966C
:100D6000FA8BE98B89859A8598878F837C8A6B8A31
:100D7000ED85FE856C0180E090E08415950574F5A5
:100D8000821593054CF4D8018D909D90AD90BC9048
:100D900080829182A282B3828217930764F4D70182
:100DA0008D909D90AD90BC90AB89BC898D929D92A9
:100DB000AD92BC921397D6011D921D921D921D9269
:100DC0006D010196B4E0EB0EF11CAB89BC89149661
:100DD000BC8BAB8B0C5F1F4F3496CFCF09891A8920
:100DE000F80180E090E020E030E084179507FCF403
:100DF00086179707ACF08415950594F4D901AA0FCE
:100E0000BB1FAA0FBB1FA60DB71DCD90DD90ED90A7
:100E1000FC90C082D182E282F3822F5F3F4F04C0F8
:100E2000108211821282138201963496DECF6D8475
:100E30007E84EB85FC856E0E7F1EE12CF12CE41484
:100E4000F504B4F548015301C12CD12CF4E0AF1ADC
:100E5000B108C214D3040CF5D4016D917D918D912C
:100E60009D914D01F50120813181428153810E9484
:100E700013089B01AC01AF81B8856D917D918D9177
:100E80009C910E940909EF81F885608371838283B8
:100E90009383FFEFCF1ADF0AD9CF4FEFE41AF40A9A
:100EA0000C5F1F4F8F819885049698878F83C7CFDB
:100EB0008AE092E00E949401B20189859A850E949D
:100EC000EA02AF85B8890FB6F894BEBF0FBEADBFBA
:100ED000E1E0F0E0F0931D02E0931C020E948A0121
:100EE000EBCD1F93FC0199278827BC01E894119151
:100EF0001032E9F3193010F01E30C8F31B3251F0F4
:100F00001D3249F4689406C00E949807610F711D54
:100F1000811D911D119110531A30B0F33EF490953C
:100F20008095709561957F4F8F4F9F4F1F910895CA
:100F3000592F482F372F262F660F771F881F991F8D
:100F4000660F771F881F991F620F731F841F951FDD
:100F5000660F771F881F991F08950E94EF0708F4F6
:100F600081E00895E89409C097FB3EF49095809540
:100F7000709561957F4F8F4F9F4F9923A9F0F92F5F
:100F800096E9BB279395F695879577956795B795DD
:100F9000F111F8CFFAF4BB0F11F460FF1BC06F5FC3
:100FA0007F4F8F4F9F4F16C0882311F096E911C0D5
:100FB000772321F09EE8872F762F05C0662371F0F6
:100FC00096E8862F70E060E02AF09A95660F771F0A
:100FD000881FDAF7880F9695879597F90895990FE6
:100FE0000008550FAA0BE0E8FEEF16161706E807F3
:100FF000F907C0F012161306E407F50798F0621B14
:10100000730B840B950B39F40A2661F0232B242BE8
:10101000252B21F408950A2609F4A140A6958FEF07
:10102000811D811D08950E9426080C9497080E9436
:10103000890838F00E94900820F0952311F00C9454
:1010400080080C94860811240C94CB080E94A808F0
:1010500070F3959FC1F3950F50E0551F629FF0010B
:10106000729FBB27F00DB11D639FAA27F00DB11D24
:10107000AA1F649F6627B00DA11D661F829F2227AD
:10108000B00DA11D621F739FB00DA11D621F839F34
:10109000A00D611D221F749F3327A00D611D231F0A
:1010A000849F600D211D822F762F6A2F11249F5758
:1010B00050409AF0F1F088234AF0EE0FFF1FBB1F5B
:1010C000661F771F881F91505040A9F79E3F51051A
:1010D00080F00C9480080C94CB085F3FE4F3983EBA
:1010E000D4F3869577956795B795F795E7959F5FC4
:1010F000C1F7FE2B880F911D9695879597F9089556
:1011000097F99F6780E870E060E008959FEF80ECBA
:10111000089500240A94161617061806090608955D
:1011200000240A9412161306140605060895092EC3
:101130000394000C11F4882352F0BB0F40F4BF2B32
:1011400011F460FF04C06F5F7F4F8F4F9F4F089572
:1011500057FD9058440F551F59F05F3F71F0479568
:10116000880F97FB991F61F09F3F79F0879508954D
:10117000121613061406551FF2CF4695F1DF08C06C
:10118000161617061806991FF1CF86957105610589
:1011900008940895E894BB2766277727CB0197F931
:1011A00008952F923F924F925F926F927F928F920B
:1011B0009F92AF92BF92CF92DF92EF92FF920F93E6
:1011C0001F93CF93DF93CDB7DEB7CA1BDB0B0FB6F0
:1011D000F894DEBF0FBECDBF09942A8839884888AD
:1011E0005F846E847D848C849B84AA84B984C88443
:1011F000DF80EE80FD800C811B81AA81B981CE0F3A
:10120000D11D0FB6F894DEBF0FBECDBFED0108951E
:101210005058BB27AA270E9420090C9497080E94C7
:10122000890838F00E94900820F039F49F3F19F4A3
:1012300026F40C9486080EF4E095E7FB0C948008E5
:10124000E92F0E94A80858F3BA17620773078407AA
:10125000950720F079F4A6F50C94CA080EF4E095F1
:101260000B2EBA2FA02D0B01B90190010C01CA0160
:10127000A0011124FF27591B99F0593F50F4503E0B
:1012800068F11A16F040A22F232F342F4427585FFD
:10129000F3CF469537952795A795F0405395C9F715
:1012A0007EF41F16BA0B620B730B840BBAF09150CD
:1012B000A1F0FF0FBB1F661F771F881FC2F70EC06C
:1012C000BA0F621F731F841F48F48795779567953F
:1012D000B795F7959E3F08F0B0CF9395880F08F02B
:1012E0009927EE0F9795879508950E9489090C9488
:1012F00097080E94900858F00E94890840F029F44D
:101300005F3F29F00C94800851110C94CB080C9489
:1013100086080E94A80868F39923B1F3552391F336
:10132000951B550BBB27AA2762177307840738F054
:101330009F5F5F4F220F331F441FAA1FA9F335D0B1
:101340000E2E3AF0E0E832D091505040E695001C65
:10135000CAF72BD0FE2F29D0660F771F881FBB1F1F
:10136000261737074807AB07B0E809F0BB0B802DFD
:10137000BF01FF2793585F4F3AF09E3F510578F029
:101380000C9480080C94CB085F3FE4F3983ED4F3B0
:10139000869577956795B795F7959F5FC9F7880FFD
:1013A000911D9695879597F90895E1E0660F771F4F
:1013B000881FBB1F621773078407BA0720F0621BE0
:1013C000730B840BBA0BEE1F88F7E09508950E940B
:1013D000B00888F09F5798F0B92F9927B751B0F00F
:1013E000E1F0660F771F881F991F1AF0BA95C9F7A9
:1013F00014C0B13091F00E94CA08B1E008950C9475
:10140000CA08672F782F8827B85F39F0B93FCCF327
:10141000869577956795B395D9F73EF49095809525
:10142000709561957F4F8F4F9F4F08950E94EF07F2
:1014300008F48FEF08950E94EF07880B990B089529
:10144000A1E21A2EAA1BBB1BFD010DC0AA1FBB1FC8
:10145000EE1FFF1FA217B307E407F50720F0A21B3A
:10146000B30BE40BF50B661F771F881F991F1A94A7
:1014700069F760957095809590959B01AC01BD01D1
:10148000CF010895EE0FFF1F0590F491E02D099410
:101490000F931F93CF93DF938230910510F482E076
:1014A00090E0E091C602F091C70220E030E0A0E0B9
:1014B000B0E0309719F140815181028113814817C2
:1014C0005907C8F08417950769F4109731F0129600
:1014D0000C93129713961C9327C00093C602109387
:1014E000C70222C02115310519F04217530718F41D
:1014F0009A01BD01EF01DF01F801DBCF21153105B4
:10150000F9F0281B390B2430310580F48A819B8146
:101510006115710521F0FB019383828304C09093D0
:10152000C7028093C602FE01329644C0FE01E20F5C
:10153000F31F8193919322503109398328833AC054
:101540002091C4023091C502232B41F42091020165
:10155000309103013093C5022093C4022091000111
:10156000309101012115310541F42DB73EB740916D
:10157000040150910501241B350BE091C402F09148
:10158000C502E217F307A0F42E1B3F0B28173907FB
:1015900078F0AC014E5F5F4F2417350748F04E0FCF
:1015A0005F1F5093C5024093C4028193919302C080
:1015B000E0E0F0E0CF01DF91CF911F910F9108950E
:1015C000CF93DF93009709F481C0FC013297138217
:1015D0001282A091C602B091C702109781F42081B7
:1015E0003181820F931F2091C4023091C5022817C8
:1015F000390751F5F093C502E093C40267C0ED01CD
:1016000020E030E0CE17DF0740F44A815B819E0185
:1016100041155105F1F0EA01F5CFD383C283408132
:101620005181840F951FC817D90759F48881998172
:10163000840F951F0296918380838A819B81938377
:1016400082832115310529F4F093C702E093C60285
:101650003DC0E901FB83EA8349915991C40FD51F2D
:10166000EC17FD0761F480819181840F951F02962C
:10167000E90199838883828193819B838A83E0E057
:10168000F0E012968D919C911397009719F0FD014F
:10169000DC01F7CF8D919C9111979D012E5F3F4FFB
:1016A000820F931F2091C4023091C5022817390779
:1016B00069F4309729F41092C7021092C60202C052
:1016C00013821282B093C502A093C402DF91CF911E
:1016D0000895A0E0B0E0EFE6FBE00C94D508EC0143
:1016E000009721F4CB010E94480AB4C0FC01E60F28
:1016F000F71F9C0122503109E217F30708F4A8C034
:10170000D9010D911C91119706171707B0F00530FC
:10171000110508F49BC0C80104978617970708F4C1
:1017200095C002501109061B170B019311936D937D
:101730007C93CF010E94E00A89C05B01A01AB10A24
:101740004C01800E911EA091C602B091C702612C7F
:10175000712CE12CF12C109709F446C08D919C91CD
:101760001197A815B905B1F56C0142E0C40ED11C62
:10177000CA14DB0478F14C018A189B08640142E02A
:10178000C40ED11C1296BC9012971396AC91B5E082
:10179000CB16D10440F0B282A38391828082D9011A
:1017A0006D937C9309C00E5F1F4F800F911FF9014D
:1017B00091838083EB2DFA2FE114F10431F0D701EE
:1017C0001396FC93EE93129741C0F093C702E093F7
:1017D000C6023CC06816790608F43C017D011296E9
:1017E0000D90BC91A02DB7CF8091C4029091C502FD
:1017F00088169906E1F466167706C8F48091000110
:1018000090910101009741F48DB79EB7409104017A
:1018100050910501841B950BE817F907C8F4F09364
:10182000C502E093C402F901718360830FC0CB014C
:101830000E94480A7C01009759F0A801BE010E944D
:10184000340CCE010E94E00AC70104C0CE0102C0E0
:1018500080E090E0CDB7DEB7EEE00C94F10881E0D7
:1018600090E0F8940C94440CFB01DC0102C0019060
:101870000D9241505040D8F70895FB01DC010190D2
:0C1880000D920020E1F70895F894FFCFCE
:10188C000000C8028000000000001B018400B200B0
:10189C006801E300C100D5000D0A006E616E00699D
:1018AC006E66006F7666002C00205D00496E7369D1
:1018BC007261206F2074616D616E686F20646F209F
:1018CC007665746F72204100496E73697261206F86
:1018DC00732076616C6F72657320646F207665740B
:1018EC006F7220412C20656E747261646120746982
:1018FC00706F20312C322C332C342C352C2E2E2E78
:10190C002E2C6E20007665746F72415B2000205D7A
:10191C003A2000496E73697261206F2074616D61A9
:10192C006E686F20646F207665746F722042004978
:10193C006E73697261206F732076616C6F72657360
:10194C0020646F207665746F7220422C20656E7453
:10195C0072616461207469706F20312C322C332CCD
:10196C00342C352C2E2E2E2E2C6D20007665746F7B
:10197C0072425B2000205665746F7241203D20003E
:10198C005665746F7242203D20005665746F724329
:08199C006F6E76203D20000073
:00000001FF
