:100000000C945D000C9485000C9485000C94850084
:100010000C9485000C9485000C9485000C9485004C
:100020000C9485000C9485000C9485000C9485003C
:100030000C9485000C9485000C9485000C9485002C
:100040000C9499030C9485000C9409040C94E3031C
:100050000C9485000C9485000C9485000C9485000C
:100060000C943B040C948500000000002400270041
:100070002A0000000000250028002B0004040404CE
:100080000404040402020202020203030303030342
:10009000010204081020408001020408102001021F
:1000A00004081020000000080002010000030407FB
:1000B0000000000000000000690511241FBECFEF02
:1000C000D8E0DEBFCDBF11E0A0E0B1E0E0E9FDE0A7
:1000D00002C005900D92A833B107D9F722E0A8E33A
:1000E000B1E001C01D92A238B207E1F710E0CDE502
:1000F000D0E004C02197FE010E94BB06CC35D10799
:10010000C9F70E94A2050C94C6060C94000090E06A
:10011000FC01EC55FF4F2491FC01E057FF4F349157
:10012000FC01E458FF4FE491EE2309F43CC0222384
:1001300039F1233091F038F42130A9F0223001F563
:1001400084B58F7D12C0273091F02830A1F0243083
:10015000B9F4809180008F7D03C0809180008F77FB
:10016000809380000DC084B58F7784BD09C08091D5
:10017000B0008F7703C08091B0008F7D8093B00076
:10018000F0E0EE0FFF1FEE58FF4FA591B4919FB71F
:10019000F894611104C08C913095382302C0EC9121
:1001A0003E2B3C939FBF08953FB7F8948091D501B3
:1001B0009091D601A091D701B091D80126B5A89B06
:1001C00005C02F3F19F00196A11DB11D3FBFBA2FE9
:1001D000A92F982F8827820F911DA11DB11DBC0149
:1001E000CD0142E0660F771F881F991F4A95D1F70E
:1001F00008958F929F92AF92BF92CF92DF92EF922B
:10020000FF926B017C010E94D4004B015C01C11480
:10021000D104E104F104F1F00E94D400DC01CB012F
:1002200088199909AA09BB09883E9340A105B1051F
:1002300070F321E0C21AD108E108F10888EE880EB7
:1002400083E0981EA11CB11CC114D104E104F10487
:1002500019F7DDCFFF90EF90DF90CF90BF90AF9078
:100260009F908F9008950895CF93DF93AC01E09114
:10027000CA01F091CB013097F1F09091C9018091C2
:10028000C8019817C0F090E0292F30E026173707F3
:1002900054F4D901A85CBE4FEA01C20FD31F2881D4
:1002A0002C939F5FF1CF1092C9016093C801CB01DD
:1002B000DF91CF910994DF91CF910895CF92DF9292
:1002C000EF92FF920F931F93CF93DF936C017A010C
:1002D0008B01C0E0D0E0CE15DF0581F0D8016D9133
:1002E0008D01D601ED91FC910190F081E02DC601C8
:1002F0000995892B11F02196EECF7E01C701DF9180
:10030000CF911F910F91FF90EF90DF90CF900895C4
:10031000FC01538D448D252F30E0842F90E0821B0B
:10032000930B541710F0CF96089501970895FC0190
:10033000918D828D981761F0828DDF01A80FB11D1C
:100340005D968C91928D9F5F9F73928F90E0089540
:100350008FEF9FEF0895FC01918D828D981731F0FA
:10036000828DE80FF11D858D90E008958FEF9FEF4E
:100370000895FC01918D228D892F90E0805C9F4F24
:10038000821B91098F739927089589ED91E00E944E
:10039000B90121E0892B09F420E0822F0895FC01A6
:1003A000848DDF01A80FB11DA35ABF4F2C91848DFE
:1003B00090E001968F739927848FA689B7892C9333
:1003C000A089B1898C91837080648C93938D848D86
:1003D000981306C00288F389E02D80818F7D808389
:1003E0000895EF92FF920F931F93CF93DF93EC0149
:1003F00081E0888F9B8D8C8D981305C0E889F989E1
:10040000808185FD26C0F62E0B8D10E00F5F1F4FFB
:100410000F731127E02E8C8DE8120CC00FB607FC6D
:10042000FACFE889F989808185FFF5CFCE010E9456
:10043000CF01F1CF8B8DFE01E80FF11DE35AFF4F85
:10044000F0829FB7F8940B8FEA89FB8980818062E4
:100450000AC09FB7F894EE89FF896083E889F9891B
:1004600080818370806480839FBF81E090E0DF9112
:10047000CF911F910F91FF90EF900895CF93DF934D
:10048000EC01888D8823C9F0EA89FB89808185FD8C
:1004900005C0A889B9898C9186FD0FC00FB607FCED
:1004A000F5CF808185FFF2CFA889B9898C9185FF2E
:1004B000EDCFCE010E94CF01E7CFDF91CF9108951C
:1004C00080E090E0892B29F00E94C50181110C94F5
:1004D0000000089585ED8093BC008091BC0084FDF0
:1004E000FCCF1092C501089540917801262F30E08D
:1004F000240F311D21323105DCF42091C501243057
:10050000C9F4FC0180E090E0861758F4309178013E
:100510002191DC01A85ABE4FA30FB11D2C93019667
:10052000F3CF80917801680F6093780180E008959F
:1005300081E0089582E008950895E091C9018091D5
:10054000C801E81730F4F0E0E85CFE4F808190E0ED
:1005500008958FEF9FEF08959091C9018091C80190
:10056000981750F4E92FF0E0E85CFE4F208130E06E
:100570009F5F9093C90102C02FEF3FEFC90108951B
:100580008091C80190E02091C901821B91090895D2
:10059000CF93DF93CB01EA01642F0E947402CE0156
:1005A000DF91CF910895CF93DF931F92CDB7DEB740
:1005B000698361E0CE0101960E94740281E090E0BF
:1005C0000F90DF91CF910895089580E090E0089515
:1005D000009769F0FC0101900020E9F73197AF0125
:1005E000481B590BBC0189ED91E00C945E0180E041
:1005F00090E008950E94C1068F929F92AF92BF92A1
:10060000CF92DF92EF92FF920F931F93CF93DF93DE
:10061000CDB7DEB7A1970FB6F894DEBF0FBECDBF42
:1006200084E291E00E94E8028091C80190E020916C
:10063000C901821B9109029754F086E792E00E945B
:10064000AC02682F89ED91E00E94F101EDCF86E7C1
:1006500092E00E94AC028C016C01990FEE08FF0839
:10066000F7FE25C06DE289ED91E00E94F10122279D
:100670003327A9012C193D094E095F0919A2CE01A2
:1006800081967C019AE0892E912CA12CB12CCA0173
:10069000B901A50194010E949906605DF70162937A
:1006A0007F01211531054105510589F71AC0A701C0
:1006B000960119A2CE0181967C018AE0882E912CA8
:1006C000A12CB12CCA01B901A50194010E9499067F
:1006D000605DF70162937F012115310541055105E8
:1006E00089F7C7010E94E80280E391E00E94E802D6
:1006F00084E391E00E94E80281E090E09093CF01D2
:100700008093CE011093CD010093CC01A1960FB63A
:10071000F894DEBF0FBECDBFDF91CF911F910F9137
:10072000FF90EF90DF90CF90BF90AF909F908F9011
:1007300008951F920F920FB60F9211242F933F939B
:100740008F939F93AF93BF938091D1019091D201EA
:10075000A091D301B091D4013091D00123E0230FB7
:100760002D3720F40196A11DB11D05C026E8230FE9
:100770000296A11DB11D2093D0018093D1019093C9
:10078000D201A093D301B093D4018091D50190916F
:10079000D601A091D701B091D8010196A11DB11D3C
:1007A0008093D5019093D601A093D701B093D8013F
:1007B000BF91AF919F918F913F912F910F900FBE5D
:1007C0000F901F9018951F920F920FB60F92112441
:1007D0002F933F934F935F936F937F938F939F9349
:1007E000AF93BF93EF93FF9389ED91E00E94CF0108
:1007F000FF91EF91BF91AF919F918F917F916F91F9
:100800005F914F913F912F910F900FBE0F901F90CE
:1008100018951F920F920FB60F9211242F938F935A
:100820009F93EF93FF93E091E901F091EA018081BA
:10083000E091EF01F091F00182FD12C09081809172
:10084000F2018F5F8F732091F301821751F0E091D5
:10085000F201F0E0E752FE4F958F8093F20101C064
:100860008081FF91EF919F918F912F910F900FBEFB
:100870000F901F9018951F920F920FB60F92112490
:100880002F933F934F935F936F937F938F939F9398
:10089000AF93BF93EF93FF938091B900887F803629
:1008A00009F49CC068F5883209F45BC090F480318B
:1008B00009F454C038F4882309F4F6C0883009F4E8
:1008C0004DC0F6C0883109F44CC0803209F45DC0D7
:1008D000EFC0803409F468C048F4803309F455C08F
:1008E000883309F0E5C080939B01D8C0803509F4B6
:1008F0004FC0883509F45DC0883409F0D9C0D6C02E
:10090000883909F4C7C0A8F4883709F467C038F4F7
:10091000883609F463C0803709F460C0C9C08838DC
:1009200009F4B8C0803909F45FC0803809F0C0C04C
:100930005BC0803B09F486C038F4803A09F466C095
:10094000883A09F47FC0B4C0803C09F4A7C0883C51
:1009500009F4A4C0883B09F48AC0AAC08091BE01F2
:1009600010C09091BD018091BC01981770F5E09185
:10097000BD0181E08E0F8093BD01F0E0E456FE4F93
:1009800080818093BB0085EC86C080939B018EC0E4
:10099000E091BD0181E08E0F8093BD018091BB008D
:1009A000F0E0E456FE4F80839091BD018091BC0140
:1009B0006EC0E091BD0181E08E0F8093BD018091FA
:1009C000BB00F0E0E456FE4F80838091C4018111AA
:1009D0006DC081E08093C30184EA61C083E08093AD
:1009E000C50110929A01CFCF80919A01803208F010
:1009F00051C0E0919A0181E08E0F80939A0180911D
:100A0000BB00F0E0E658FE4F8083BDCF85EC8093BD
:100A1000BC001092C50180919A01803230F4E091BF
:100A20009A01F0E0E658FE4F108260919A0170E062
:100A3000E091BF01F091C0018AE791E00995109221
:100A40009A0136C084E08093C5011092790110921A
:100A50007801E091C101F091C2010995809178017E
:100A6000811105C081E08093780110925801E091D6
:100A7000790181E08E0F80937901F0E0E85AFE4F12
:100A800080818093BB0090917901809178019817C3
:100A900008F479CF85E88093BC000AC085EC809388
:100AA000BC001092C50104C010929B010E946A0212
:100AB000FF91EF91BF91AF919F918F917F916F9136
:100AC0005F914F913F912F910F900FBE0F901F900C
:100AD0001895E9EDF1E01382128288EE93E0A0E030
:100AE000B0E084839583A683B78324E031E031832B
:100AF000208325EC30E03587248724EC30E03787ED
:100B0000268720EC30E0318B208B21EC30E0338BDA
:100B1000228B22EC30E0358B248B26EC30E0378BB7
:100B2000268B118E128E138E148EE6E7F2E013825E
:100B3000128284839583A683B78386E191E09183B3
:100B400080830895789484B5826084BD84B5816083
:100B500084BD85B5826085BD85B5816085BD809188
:100B60006E00816080936E00109281008091810000
:100B700082608093810080918100816080938100F8
:100B8000809180008160809380008091B1008460BA
:100B90008093B1008091B00081608093B00080911B
:100BA0007A00846080937A0080917A0082608093DA
:100BB0007A0080917A00816080937A0080917A0037
:100BC000806880937A001092C1001092C90110923F
:100BD000C8011092C7011092C6011092C50181E0B0
:100BE0008093C4011092C30161E082E10E948700FA
:100BF00061E083E10E9487008091B9008E7F80933D
:100C0000B9008091B9008D7F8093B90088E480930A
:100C1000B80085E48093BC0083E391E09093C20127
:100C20008093C10184E391E09093C0018093BF0160
:100C300082E08093BA002CEF32E03093CB01209316
:100C4000CA01E091E901F091EA018083E091E501B8
:100C5000F091E6011082E091E701F091E8018FEC5C
:100C600080831092F101E091ED01F091EE0186E0B8
:100C70008083E091EB01F091EC01808180618083C1
:100C8000E091EB01F091EC01808188608083E0913C
:100C9000EB01F091EC01808180688083E091EB01B1
:100CA000F091EC0180818F7D8083ECE9F0E024916C
:100CB000E8E8F0E08491882399F090E0880F991F8C
:100CC000FC01E859FF4FA591B491FC01EE58FF4F8C
:100CD000859194918FB7F894EC91E22BEC938FBFB0
:100CE0008091CE019091CF01019701F561E08CE0F8
:100CF0000E948700C090CC01D090CD010D2C000C3B
:100D0000EE08FF08C701B6010E94F90060E08CE020
:100D10000E948700C701B6010E94F9001092CF011E
:100D20001092CE011092CD011092CC010E9460026F
:100D3000D7CFA1E21A2EAA1BBB1BFD010DC0AA1F13
:100D4000BB1FEE1FFF1FA217B307E407F50720F034
:100D5000A21BB30BE40BF50B661F771F881F991FAF
:100D60001A9469F760957095809590959B01AC01F8
:100D7000BD01CF010895EE0FFF1F0590F491E02D06
:100D8000099481E090E0F8940C94C606F894FFCFA3
:100D900000000000F1015E0188013E02B9019701E7
:100DA000AB0100000000D302C802E5029C02C002B1
:100DB000AC029D026573637261766F20313A200048
:080DC0006D7320000D0A000014
:00000001FF
