:100000000C9453000C947B000C947B000C947B00AC
:100010000C947B000C947B000C947B000C947B0074
:100020000C947B000C947B000C947B000C947B0064
:100030000C947B000C9403040C947B000C947B00C8
:100040000C9461030C947B000C94D1030C94AB03CF
:100050000C947B000C947B000C947B000C947B0034
:100060000C947B000C947B0000000000250028000D
:100070002B0000000000240027002A0004040404D0
:100080000404040402020202020203030303030342
:10009000010204081020408001020408102001021F
:1000A00004081020FC0411241FBECFEFD8E0DEBFEF
:1000B000CDBF11E0A0E0B1E0E4E4FEE002C00590B5
:1000C0000D92A235B107D9F722E0A2E5B1E001C057
:1000D0001D92AE32B207E1F710E0C3E5D0E004C0F4
:1000E0002197FE010E941507C235D107C9F70E946A
:1000F0002A040C9420070C940000CF92DF92EF9218
:10010000FF920F931F93CF93DF936C017A018B01C2
:10011000C0E0D0E0CE15DF0581F0D8016D918D01F2
:10012000D601ED91FC910190F081E02DC601099579
:10013000892B11F02196EECF7E01C701DF91CF917F
:100140001F910F91FF90EF90DF90CF900895089549
:1001500080E090E00895FC01538D448D252F30E020
:10016000842F90E0821B930B541710F0CF960895C4
:1001700001970895FC01918D828D981761F0828D11
:10018000DF01A80FB11D5D968C91928D9F5F9F73CB
:10019000928F90E008958FEF9FEF0895FC01918D6D
:1001A000828D981731F0828DE80FF11D858D90E0DA
:1001B00008958FEF9FEF0895FC01918D228D892F77
:1001C00090E0805C9F4F821B91098F73992708955F
:1001D00081E991E00E94DC0021E0892B09F420E014
:1001E000822F0895FC01848DDF01A80FB11DA35A51
:1001F000BF4F2C91848D90E001968F739927848F47
:10020000A689B7892C93A089B1898C918370806469
:100210008C93938D848D981306C00288F389E02D0A
:1002200080818F7D80830895EF92FF920F931F93BB
:10023000CF93DF93EC0181E0888F9B8D8C8D981399
:1002400005C0E889F989808185FD26C0F62E0B8DD1
:1002500010E00F5F1F4F0F731127E02E8C8DE812F7
:100260000CC00FB607FCFACFE889F989808185FFB9
:10027000F5CFCE010E94F200F1CF8B8DFE01E80F89
:10028000F11DE35AFF4FF0829FB7F8940B8FEA8974
:10029000FB89808180620AC09FB7F894EE89FF894C
:1002A0006083E889F98980818370806480839FBF3F
:1002B00081E090E0DF91CF911F910F91FF90EF903F
:1002C0000895CF93DF93EC01888D8823C9F0EA89E4
:1002D000FB89808185FD05C0A889B9898C9186FD3F
:1002E0000FC00FB607FCF5CF808185FFF2CFA8893C
:1002F000B9898C9185FFEDCFCE010E94F200E7CF46
:10030000DF91CF91089580E090E0892B29F00E9441
:10031000E80081110C9400000895009769F0FC0139
:1003200001900020E9F73197AF01481B590BBC0140
:1003300081E991E00C947D0080E090E008952F9297
:100340003F924F925F926F927F928F929F92AF9265
:10035000BF92CF92DF92EF92FF920F931F93CF93B2
:10036000DF93CDB7DEB7EF970FB6F894DEBF0FBEC1
:10037000CDBF80E480937C0080917A00806480937C
:100380007A0080917A0086FDFCCF609178008091A0
:10039000790070E0782B072E000C880B990B0E94D7
:1003A000CC052AE038E240EA5BE30E94810628E1BE
:1003B000E0E0F1E0DE01929601900D922A95E1F7DE
:1003C00028E1E8E1F1E0DE01119601900D922A9515
:1003D000E1F7EEE7F1E0A6E6B1E02AE631E0F290DF
:1003E000E290D290C290C482D582E682F782FE90DB
:1003F000EE90DE90CE901496CD92DD92ED92FC922E
:1004000017972E173F0759F760936A0170936B0196
:1004100080936C0190936D012CEC3CEA47EA5AE31F
:100420000E9481066093520170935301809354019E
:10043000909355018E010A5D1F4F8EE691E09FAFAC
:100440008EAFFE013596FBAFEAAF86E591E09DAF3A
:100450008CAF1E019AE3290E311CF8016191719154
:10046000819191918F01EEADFFAD2191319141913B
:100470005191FFAFEEAFEAADFBAD81909190A190AD
:10048000B190FBAFEAAFECADFDAD41905190619002
:100490007190FDAFECAF0E9481066B017C01A3015E
:1004A0009201C501B4010E9481069B01AC01C70104
:1004B000B6010E94290520915201309153014091CB
:1004C0005401509155010E942A056B017C014B019A
:1004D0005C01609352017093530180935401909397
:1004E00055012016310609F0B8CF9B01AC010E94DE
:1004F000EE06882319F082E491E01AC02601370144
:10050000E89477F82FEF3FEF4FE75FE7C301B201C1
:100510000E94EE0681110FC02FEF3FEF4FE75FE71C
:10052000C301B2010E94960518162CF486E491E0EE
:100530000E948D01A7C02FEF3FEF4FE75FE4C70197
:10054000B6010E947C0618161CF48AE491E0F0CFF4
:100550002FEF3FEF4FE75FECC701B6010E94960512
:1005600087FDF3CF20E030E0A901C701B6010E946A
:10057000960587FF0BC06DE281E991E00E941401AE
:1005800046015701B7FAB094B7F8B0942CEB37E3B3
:1005900046E055E3C501B4010E942A054B015C0108
:1005A0000E949B056B017C010E94CA059B01AC0166
:1005B000C501B4010E9429054B015C0119A28E01FD
:1005C0000F5D1F4F0AAF612E2AE0222E312C412CE5
:1005D000512CC701B601A20191010E94F3066901E5
:1005E0007A01605DF80162938F01232B242B252B68
:1005F00081F7CF010E948D016EE281E991E00E94B6
:10060000140187E0F82E9AE0292E312C412C512C30
:10061000FA94FF20B9F120E030E040E251E4C50156
:10062000B4010E9481064B015C010E949B059B0165
:1006300040E050E019A20AAD162D762EC32ED42E1E
:10064000E52ECA01B901A20191010E94F306605D85
:10065000F80162938F01211531054105510589F794
:10066000CF010E948D01672D7C2D8D2D9E2D0E9426
:10067000CA059B01AC01C501B4010E9429054B01CB
:100680005C01C6CF8EE491E00E948D01EF960FB61B
:10069000F894DEBF0FBECDBFDF91CF911F910F91B8
:1006A000FF90EF90DF90CF90BF90AF909F908F9092
:1006B0007F906F905F904F903F902F9008950E9491
:1006C0001B071F920F920FB60F9211242F933F9387
:1006D0008F939F93AF93BF9380918D0190918E01E3
:1006E000A0918F01B091900130918C0123E0230FF4
:1006F0002D3720F40196A11DB11D05C026E8230F5A
:100700000296A11DB11D20938C0180938D019093C1
:100710008E01A0938F01B0939001809188019091F8
:100720008901A0918A01B0918B010196A11DB11D93
:100730008093880190938901A0938A01B0938B01E3
:10074000BF91AF919F918F913F912F910F900FBECD
:100750000F901F9018951F920F920FB60F921124B1
:100760002F933F934F935F936F937F938F939F93B9
:10077000AF93BF93EF93FF9381E991E00E94F20062
:10078000FF91EF91BF91AF919F918F917F916F9169
:100790005F914F913F912F910F900FBE0F901F903F
:1007A00018951F920F920FB60F9211242F938F93CB
:1007B0009F93EF93FF93E091A101F091A2018081BB
:1007C000E091A701F091A80182FD12C09081809173
:1007D000AA018F5F8F732091AB01821751F0E091D6
:1007E000AA01F0E0EF56FE4F958F8093AA0101C059
:1007F0008081FF91EF919F918F912F910F900FBE6C
:100800000F901F9018951F920F920FB60F92112400
:100810002F933F934F935F936F937F938F939F9308
:10082000AF93BF93EF93FF93E0918601F09187011F
:100830000995FF91EF91BF91AF919F918F917F911A
:100840006F915F914F913F912F910F900FBE0F903D
:100850001F901895789484B5826084BD84B58160BA
:1008600084BD85B5826085BD85B5816085BD80917B
:100870006E00816080936E001092810080918100F3
:1008800082608093810080918100816080938100EB
:10089000809180008160809380008091B1008460AD
:1008A0008093B1008091B00081608093B00080910E
:1008B0007A00846080937A0080917A0082608093CD
:1008C0007A0080917A00816080937A0080917A002A
:1008D000806880937A001092C100E091A101F091AC
:1008E000A20192E09083E0919D01F0919E0110821F
:1008F000E0919F01F091A0018FEC80831092A901FB
:10090000E091A501F091A60186E08083E091A3012A
:10091000F091A401808180618083E091A301F09136
:10092000A401808188608083E091A301F091A401FB
:10093000808180688083E091A301F091A40180818F
:100940008F7D808380917A00887F80937A001092D7
:10095000800080E180938100909384018FB7809321
:100960008501F89480E197E290938301809382015E
:100970009093870080938600809185018FBF80913E
:100980008100887F80938100909181008091840113
:10099000982B909381002FE931E0309387012093C9
:1009A000860191E090936F0090918100892B809354
:1009B0008100EEE9F0E02491EAE8F0E084918823F8
:1009C000C1F090E0880F991FFC01EE58FF4FC591D0
:1009D000D491FC01E859FF4FA591B4919FB7F894C9
:1009E0008881E22FE0958E2388838C91E823EC9315
:1009F0009FBF0E948301FDCFE1E9F1E013821282E3
:100A000088EE93E0A0E0B0E084839583A683B7836B
:100A100084E391E09183808385EC90E095878487DF
:100A200084EC90E09787868780EC90E0918B808BB8
:100A300081EC90E0938B828B82EC90E0958B848BA1
:100A400086EC90E0978B868B118E128E138E148E0F
:100A500008955058BB27AA270E9441050C944206CE
:100A60000E94340638F00E943B0620F039F49F3F84
:100A700019F426F40C9431060EF4E095E7FB0C947F
:100A80002B06E92F0E94530658F3BA176207730723
:100A90008407950720F079F4A6F50C9475060EF4FA
:100AA000E0950B2EBA2FA02D0B01B90190010C017E
:100AB000CA01A0011124FF27591B99F0593F50F496
:100AC000503E68F11A16F040A22F232F342F4427EE
:100AD000585FF3CF469537952795A795F0405395E6
:100AE000C9F77EF41F16BA0B620B730B840BBAF0B6
:100AF0009150A1F0FF0FBB1F661F771F881FC2F721
:100B00000EC0BA0F621F731F841F48F48795779534
:100B10006795B795F7959E3F08F0B0CF9395880FEE
:100B200008F09927EE0F9795879508950E9407067C
:100B300008F481E008950E945B0688F09F5798F0C2
:100B4000B92F9927B751B0F0E1F0660F771F881FD2
:100B5000991F1AF0BA95C9F714C0B13091F00E94EC
:100B60007506B1E008950C947506672F782F8827D5
:100B7000B85F39F0B93FCCF3869577956795B39513
:100B8000D9F73EF490958095709561957F4F8F4F82
:100B90009F4F0895E89409C097FB3EF49095809587
:100BA000709561957F4F8F4F9F4F9923A9F0F92F33
:100BB00096E9BB279395F695879577956795B795B1
:100BC000F111F8CFFAF4BB0F11F460FF1BC06F5F97
:100BD0007F4F8F4F9F4F16C0882311F096E911C0A9
:100BE000772321F09EE8872F762F05C0662371F0CA
:100BF00096E8862F70E060E02AF09A95660F771FDE
:100C0000881FDAF7880F9695879597F90895990FB9
:100C10000008550FAA0BE0E8FEEF16161706E807C6
:100C2000F907C0F012161306E407F50798F0621BE7
:100C3000730B840B950B39F40A2661F0232B242BBC
:100C4000252B21F408950A2609F4A140A6958FEFDB
:100C5000811D811D089597F99F6780E870E060E02D
:100C600008959FEF80EC089500240A941616170645
:100C700018060906089500240A941216130614068D
:100C800005060895092E0394000C11F4882352F0F0
:100C9000BB0F40F4BF2B11F460FF04C06F5F7F4FA8
:100CA0008F4F9F4F089557FD9058440F551F59F08F
:100CB0005F3F71F04795880F97FB991F61F09F3F49
:100CC00079F087950895121613061406551FF2CF72
:100CD0004695F1DF08C0161617061806991FF1CFC2
:100CE00086957105610508940895E894BB276627E9
:100CF0007727CB0197F908950E94070608F48FEF34
:100D000008950E9494060C9442060E94340638F01E
:100D10000E943B0620F0952311F00C942B060C94B6
:100D2000310611240C9476060E94530670F3959FA9
:100D3000C1F3950F50E0551F629FF001729FBB27D2
:100D4000F00DB11D639FAA27F00DB11DAA1F649F6E
:100D50006627B00DA11D661F829F2227B00DA11D21
:100D6000621F739FB00DA11D621F839FA00D611DA7
:100D7000221F749F3327A00D611D231F849F600DC8
:100D8000211D822F762F6A2F11249F5750409AF0F1
:100D9000F1F088234AF0EE0FFF1FBB1F661F771F7D
:100DA000881F91505040A9F79E3F510580F00C9448
:100DB0002B060C9476065F3FE4F3983ED4F38695B9
:100DC00077956795B795F795E7959F5FC1F7FE2BE8
:100DD000880F911D9695879597F908950E940706AB
:100DE000880B990B0895A1E21A2EAA1BBB1BFD01CB
:100DF0000DC0AA1FBB1FEE1FFF1FA217B307E407FA
:100E0000F50720F0A21BB30BE40BF50B661F771F51
:100E1000881F991F1A9469F7609570958095909531
:100E20009B01AC01BD01CF010895EE0FFF1F05909E
:100E3000F491E02D099481E090E0F8940C9420075F
:040E4000F894FFCF54
:100E4400CCACA73AFF97D13BFF97513CFF97513C5D
:100E5400FF97D13BCCACA73A0000803F516D3EC018
:100E6400CD9573406CE522C0BE91613FE37000BE36
:100E74000000000014017D00AB006101DC00BA0039
:100E8400CE006E616E00696E66006F7666000D0AB4
:020E940000005C
:00000001FF
