:100000000C9458000C9480000C9480000C94800098
:100010000C9480000C9480000C9480000C94800060
:100020000C9480000C9480000C9480000C94800050
:100030000C9480000C9480000C9480000C94800040
:100040000C9490030C9480000C9400040C94DA033C
:100050000C9480000C9480000C9480000C94800020
:100060000C9432040C94800000000000250028004D
:100070002B00040404040404040402020202020229
:10008000030303030303010204081020408001025C
:1000900004081020010204081020000000080002DB
:1000A00001000003040700000000000000006005DC
:1000B00011241FBECFEFD8E0DEBFCDBF11E0A0E01E
:1000C000B1E0E4E9FEE002C005900D92A433B1076F
:1000D000D9F722E0A4E3B1E001C01D92AE39B20726
:1000E000E1F710E0C8E5D0E004C02197FE010E94CE
:1000F0003D07C735D107C9F70E9499050C944807F9
:100100000C940000282F3091F401313208F04AC0DD
:100110008091D0018111FCCF9091F30142E0409396
:10012000D0012093CF012FEF2093CE011092CD016B
:100130003093CC01E3EDF1E0ACEAB1E020E032171E
:1001400021F041914D932F5FFACF1092AB01209196
:10015000AB01990F922B9093AB019091AA01913032
:1001600061F41092AA019091AB019093BB00909121
:10017000BC0093FDF8CF95EC01C095EE9093BC00C8
:100180009091D0019230E1F39091CE019F3F79F0B0
:100190008091CE01803241F08091CE01803331F0E8
:1001A00084E005C081E003C082E001C083E01092DA
:1001B000D2011092F4011092D101089590E0FC0157
:1001C000E656FF4F2491FC01EA57FF4F3491FC01A2
:1001D000EE58FF4FE491EE23B1F1222339F12330A1
:1001E00091F038F42130A9F0223001F584B58F7DEB
:1001F00012C0273091F02830A1F02430B9F480915A
:1002000080008F7D03C0809180008F778093800075
:100210000DC084B58F7784BD09C08091B0008F7701
:1002200003C08091B0008F7D8093B000F0E0EE0FAE
:10023000FF1FE859FF4FA591B4918FB7F894EC9147
:10024000E32BEC938FBF08953FB7F8948091A601FC
:100250009091A701A091A801B091A90126B5A89BF2
:1002600005C02F3F19F00196A11DB11D3FBFBA2F48
:10027000A92F982F8827820F911DA11DB11DBC01A8
:10028000CD0142E0660F771F881F991F4A95D1F76D
:10029000089580919C0190E020919B01821B91091F
:1002A000089508950895CF92DF92EF92FF920F93F1
:1002B0001F93CF93DF936C017A018B01C0E0D0E0F4
:1002C000CE15DF0581F0D8016D918D01D601ED913C
:1002D000FC910190F081E02DC6010995892B11F068
:1002E0002196EECF7E01C701DF91CF911F910F9133
:1002F000FF90EF90DF90CF900895FC01538D448DD7
:10030000252F30E0842F90E0821B930B541710F0C0
:10031000CF96089501970895FC01918D828D9817CD
:1003200061F0828DDF01A80FB11D5D968C91928DD9
:100330009F5F9F73928F90E008958FEF9FEF0895D6
:10034000FC01918D828D981731F0828DE80FF11D9F
:10035000858D90E008958FEF9FEF0895FC01918DBA
:10036000228D892F90E0805C9F4F821B91098F73B3
:100370009927089585EF91E00E94AE0121E0892B35
:1003800009F420E0822F0895FC01848DDF01A80F7D
:10039000B11DA35ABF4F2C91848D90E001968F73AD
:1003A0009927848FA689B7892C93A089B1898C91CC
:1003B000837080648C93938D848D981306C002881B
:1003C000F389E02D80818F7D80830895EF92FF92E5
:1003D0000F931F93CF93DF93EC0181E0888F9B8D68
:1003E0008C8D981305C0E889F989808185FD26C028
:1003F000F62E0B8D10E00F5F1F4F0F731127E02EAD
:100400008C8DE8120CC00FB607FCFACFE889F98989
:10041000808185FFF5CFCE010E94C401F1CF8B8D85
:10042000FE01E80FF11DE35AFF4FF0829FB7F894E9
:100430000B8FEA89FB89808180620AC09FB7F8949C
:10044000EE89FF896083E889F989808183708064FF
:1004500080839FBF81E090E0DF91CF911F910F914A
:10046000FF90EF900895CF93DF93EC01888D882360
:10047000C9F0EA89FB89808185FD05C0A889B98911
:100480008C9186FD0FC00FB607FCF5CF808185FFEC
:10049000F2CFA889B9898C9185FFEDCFCE010E945A
:1004A000C401E7CFDF91CF91089580E090E0892BE0
:1004B00029F00E94BA0181110C940000089585ED85
:1004C0008093BC008091BC0084FDFCCF1092D001D1
:1004D000089540915401262F30E0240F311D213220
:1004E0003105DCF42091D0012430C9F4FC0180E016
:1004F00090E0861758F4309154012191DC01AC5CF6
:10050000BE4FA30FB11D2C930196F3CF80915401E0
:10051000680F6093540180E0089581E0089582E0BF
:1005200008950895E0919B0180919C01E81730F4B3
:10053000F0E0E558FE4F808190E008958FEF9FEF47
:10054000089590919B0180919C01981750F4E92F98
:10055000F0E0E558FE4F208130E09F5F90939B01D3
:1005600002C02FEF3FEFC9010895CF92DF92EF92C3
:10057000FF920F931F93CF93DF937C01CB018A01EE
:100580002091D101222389F0EB016B01C40ED51E0D
:10059000CC15DD0569F06991D701ED91FC910190D1
:1005A000F081E02DC7010995F3CF642F0E94690205
:1005B000C801DF91CF911F910F91FF90EF90DF90D5
:1005C000CF900895CF93DF931F92CDB7DEB76983A5
:1005D0002091D1012223D1F02091F401203240F06A
:1005E00021E030E0FC013383228380E090E015C0FD
:1005F0008091D201E82FF0E0ED52FE4F9981908377
:100600008F5F8093D2018093F40105C061E0CE0139
:1006100001960E94690281E090E00F90DF91CF91F6
:100620000895682F82E992E00C94E202089580E038
:1006300090E00895009769F0FC0101900020E9F72F
:100640003197AF01481B590BBC0185EF91E00C9429
:10065000530180E090E008958F929F92AF92BF92F5
:100660000F931F93CF93DF93CDB7DEB7A1970FB64C
:10067000F894DEBF0FBECDBF19A2423008F44AE0A5
:100680008E010F5D1F4F842E912CA12CB12CA50142
:1006900094010E941B07E62FB901CA0101501109FC
:1006A000EA3014F4E05D01C0E95CD801EC93232B3F
:1006B000242B252B61F7C8010E941A03A1960FB6BF
:1006C000F894DEBF0FBECDBFDF91CF911F910F9188
:1006D000BF90AF909F908F900895CF92DF92EF924E
:1006E000FF92CF93DF936B017C016DE285EF91E088
:1006F0000E94E601EC0166277727CB016C197D0982
:100700008E099F094AE00E942C038C0F9D1FDF91E8
:10071000CF91FF90EF90DF90CF9008950E94430714
:100720001F920F920FB60F9211242F933F938F9326
:100730009F93AF93BF938091A2019091A301A09149
:10074000A401B091A5013091A10123E0230F2D3721
:1007500020F40196A11DB11D05C026E8230F0296C5
:10076000A11DB11D2093A1018093A2019093A3012B
:10077000A093A401B093A5018091A6019091A70137
:10078000A091A801B091A9010196A11DB11D80936E
:10079000A6019093A701A093A801B093A901BF91CE
:1007A000AF919F918F913F912F910F900FBE0F901E
:1007B0001F9018951F920F920FB60F9211242F932E
:1007C0003F934F935F936F937F938F939F93AF93D9
:1007D000BF93EF93FF9385EF91E00E94C401FF91D7
:1007E000EF91BF91AF919F918F917F916F915F91A9
:1007F0004F913F912F910F900FBE0F901F90189522
:100800001F920F920FB60F9211242F938F939F93E5
:10081000EF93FF93E0910502F09106028081E09151
:100820000B02F0910C0282FD12C0908180910E02A9
:100830008F5F8F7320910F02821751F0E0910E02AB
:10084000F0E0EB50FE4F958F80930E0201C0808147
:10085000FF91EF919F918F912F910F900FBE0F906D
:100860001F9018951F920F920FB60F9211242F937D
:100870003F934F935F936F937F938F939F93AF9328
:10088000BF93EF93FF938091B900887F803609F47E
:100890009CC068F5883209F45BC090F4803109F49B
:1008A00054C038F4882309F4F6C0883009F44DC0E8
:1008B000F6C0883109F44CC0803209F45DC0EFC045
:1008C000803409F468C048F4803309F455C0883393
:1008D00009F0E5C08093CE01D8C0803509F44FC03F
:1008E000883509F45DC0883409F0D9C0D6C088398C
:1008F00009F4C7C0A8F4883709F467C038F488360B
:1009000009F463C0803709F460C0C9C0883809F4AD
:10091000B8C0803909F45FC0803809F0C0C05BC03E
:10092000803B09F486C038F4803A09F466C0883AFE
:1009300009F47FC0B4C0803C09F4A7C0883C09F426
:10094000A4C0883B09F48AC0AAC08091AB0110C042
:100950009091CD018091CC01981770F5E091CD0177
:1009600081E08E0F8093CD01F0E0E455FE4F808151
:100970008093BB0085EC86C08093CE018EC0E09151
:10098000CD0181E08E0F8093CD018091BB00F0E01E
:10099000E455FE4F80839091CD018091CC016EC0D3
:1009A000E091CD0181E08E0F8093CD018091BB005D
:1009B000F0E0E455FE4F80838091CF0181116DC03E
:1009C00081E08093AA0184EA61C083E08093D00132
:1009D00010927601CFCF80917601803208F051C01D
:1009E000E091760181E08E0F809376018091BB00CB
:1009F000F0E0EA5AFE4F8083BDCF85EC8093BC00C7
:100A00001092D00180917601803230F4E09176012D
:100A1000F0E0EA5AFE4F10826091760170E0E091BA
:100A20007701F091780186E591E0099510927601C1
:100A300036C084E08093D001109255011092540189
:100A4000E0917901F0917A01099580915401811129
:100A500005C081E08093540110923401E09155016A
:100A600081E08E0F80935501F0E0EC5CFE4F8081B9
:100A70008093BB009091550180915401981708F420
:100A800079CF85E88093BC000AC085EC8093BC00D8
:100A90001092D00104C01092CE010E945F02FF911B
:100AA000EF91BF91AF919F918F917F916F915F91E6
:100AB0004F913F912F910F900FBE0F901F9018955F
:100AC000E5EFF1E01382128288EE93E0A0E0B0E05F
:100AD00084839583A683B78324E031E03183208328
:100AE00025EC30E03587248724EC30E037872687F3
:100AF00020EC30E0318B208B21EC30E0338B228BEB
:100B000022EC30E0358B248B26EC30E0378B268BC3
:100B1000118E128E138E148EE2E9F2E0138212828D
:100B200084839583A683B78386E191E09183808354
:100B30000895789484B5826084BD84B5816084BD55
:100B400085B5826085BD85B5816085BD80916E006B
:100B5000816080936E00109281008091810082609C
:100B600080938100809181008160809381008091D9
:100B700080008160809380008091B10084608093C8
:100B8000B1008091B00081608093B00080917A00C4
:100B9000846080937A0080917A00826080937A00EA
:100BA00080917A00816080937A0080917A008068D9
:100BB00080937A001092C10010929B0110929C01C8
:100BC0001092D2011092F4011092D00181E0809332
:100BD000CF011092AA0182E10E94DE0083E10E940F
:100BE000DE008091B9008E7F8093B9008091B900BA
:100BF0008D7F8093B90088E48093B80085E480936A
:100C0000BC0081E591E090937A018093790182E5BF
:100C100091E09093780180937701E0910502F09143
:100C2000060282E08083E0910102F09102021082CC
:100C3000E0910302F09104028FEC808310920D0288
:100C4000E0910902F0910A0286E08083E0910702B8
:100C5000F0910802808180618083E0910702F09129
:100C60000802808188608083E0910702F091080289
:100C7000808180688083E0910702F0910802808182
:100C80008F7D80830E9424016B017C0194E6892E74
:100C9000912CA12CB12C0E942401DC01CB018C19D8
:100CA0009D09AE09BF09883E9340A105B10598F39F
:100CB00021E0821A9108A108B10888EEC80E83E0ED
:100CC000D81EE11CF11C81149104A104B10419F790
:100CD00081E08093D10183E58093F3011092D201EA
:100CE0001092F4018DE290E00E94110388E090E000
:100CF0000E94110381E00E948200C1E0D3E51FEF52
:100D000005EE85ECF82EC093D101D093F30110923B
:100D1000D2011092F40182E390E00E94110383E378
:100D200090E00E94110381E00E9482008091D00136
:100D30008111FCCFC093D001C093CF011093CE019D
:100D40001092CD01C093CC01C093AB018091AB0157
:100D5000866A8093AB018091AA01813069F4109278
:100D6000AA018091AB018093BB008091BC0083FD00
:100D7000F8CFF092BC0002C00093BC008091D0017B
:100D80008130E1F38091CD01823018F49091CD0152
:100D900001C092E0ACEAB1E0EBE7F1E080E0891756
:100DA00021F02D9121938F5FFACF10929B018093B8
:100DB0009C0190E0039784F482E992E00E94A102F2
:100DC0009093A00180939F0182E992E00E94A1028A
:100DD00090939E0180939D0184E291E00E941A030A
:100DE00060919F017091A001072E000C880B990B58
:100DF00097FF03C00E946D0303C04AE00E942C03CA
:100E000089E291E00E941A0360919D0170919E0118
:100E1000072E000C880B990B97FF03C00E946D03EF
:100E200003C04AE00E942C0381E391E00E941A0370
:100E30000E94550268CFA1E21A2EAA1BBB1BFD011E
:100E40000DC0AA1FBB1FEE1FFF1FA217B307E407A9
:100E5000F50720F0A21BB30BE40BF50B661F771F01
:100E6000881F991F1A9469F76095709580959095E1
:100E70009B01AC01BD01CF010895EE0FFF1F05904E
:100E8000F491E02D099481E090E0F8940C944807E7
:040E9000F894FFCF04
:100E940000000000E60153017D013302AE018C0124
:100EA400A00100000000E202B5021703910249010B
:100EB400A102920258303D200020202058313D20CC
:040EC400000D0A0013
:00000001FF
