:100000000C9458000C9480000C9480000C94800098
:100010000C9480000C9480000C9480000C94800060
:100020000C9480000C9480000C9480000C94800050
:100030000C9480000C9480000C9480000C94800040
:100040000C9441030C9480000C94B1030C948B032A
:100050000C9480000C9480000C9480000C94800020
:100060000C94E3030C94800000000000250028009D
:100070002B00040404040404040402020202020229
:10008000030303030303010204081020408001025C
:1000900004081020010204081020000000080002DB
:1000A000010000030407000000000000000011052B
:1000B00011241FBECFEFD8E0DEBFCDBF11E0A0E01E
:1000C000B1E0E8EAFCE002C005900D92A833B10768
:1000D000D9F722E0A8E3B1E001C01D92AE37B20724
:1000E000E1F710E0C8E5D0E004C02197FE010E94CE
:1000F0004706C735D107C9F70E944A050C94520636
:100100000C94000090E0FC01E656FF4F2491FC01A6
:10011000EA57FF4F3491FC01EE58FF4FE491EE2374
:10012000B1F1222339F1233091F038F42130A9F0D4
:10013000223001F584B58F7D12C0273091F0283030
:10014000A1F02430B9F4809180008F7D03C08091AC
:1001500080008F77809380000DC084B58F7784BD39
:1001600009C08091B0008F7703C08091B0008F7D6F
:100170008093B000F0E0EE0FFF1FE859FF4FA5910C
:10018000B4918FB7F894EC91E32BEC938FBF089563
:100190003FB7F8948091D1019091D201A091D30101
:1001A000B091D40126B5A89B05C02F3F19F0019648
:1001B000A11DB11D3FBFBA2FA92F982F8827820FED
:1001C000911DA11DB11DBC01CD0142E0660F771F3D
:1001D000881F991F4A95D1F708950895CF93DF930B
:1001E000AC01E091CA01F091CB013097F1F0909110
:1001F000C9018091C8019817C0F090E0292F30E024
:100200002617370754F4D901A85CBE4FEA01C20F84
:10021000D31F28812C939F5FF1CF1092C901609367
:10022000C801CB01DF91CF910994DF91CF9108955F
:10023000CF92DF92EF92FF920F931F93CF93DF93B2
:100240006C017A018B01C0E0D0E0CE15DF0581F0B2
:10025000D8016D918D01D601ED91FC910190F08155
:10026000E02DC6010995892B11F02196EECF7E0174
:10027000C701DF91CF911F910F91FF90EF90DF9019
:10028000CF900895FC01538D448D252F30E0842FAD
:1002900090E0821B930B541710F0CF9608950197AE
:1002A0000895FC01918D828D981761F0828DDF0198
:1002B000A80FB11D5D968C91928D9F5F9F73928F59
:1002C00090E008958FEF9FEF0895FC01918D828D4E
:1002D000981731F0828DE80FF11D858D90E008951B
:1002E0008FEF9FEF0895FC01918D228D892F90E073
:1002F000805C9F4F821B91098F739927089585ED2C
:1003000091E00E94730121E0892B09F420E0822F03
:100310000895FC01848DDF01A80FB11DA35ABF4FC2
:100320002C91848D90E001968F739927848FA689F4
:10033000B7892C93A089B1898C91837080648C9348
:10034000938D848D981306C00288F389E02D8081F7
:100350008F7D80830895EF92FF920F931F93CF9329
:10036000DF93EC0181E0888F9B8D8C8D981305C005
:10037000E889F989808185FD26C0F62E0B8D10E075
:100380000F5F1F4F0F731127E02E8C8DE8120CC0EA
:100390000FB607FCFACFE889F989808185FFF5CF90
:1003A000CE010E948901F1CF8B8DFE01E80FF11D76
:1003B000E35AFF4FF0829FB7F8940B8FEA89FB89CD
:1003C000808180620AC09FB7F894EE89FF896083BC
:1003D000E889F98980818370806480839FBF81E090
:1003E00090E0DF91CF911F910F91FF90EF900895D2
:1003F000CF93DF93EC01888D8823C9F0EA89FB89CC
:10040000808185FD05C0A889B9898C9186FD0FC0C2
:100410000FB607FCF5CF808185FFF2CFA889B98997
:100420008C9185FFEDCFCE010E948901E7CFDF914E
:10043000CF91089580E090E0892B29F00E947F0100
:1004400081110C940000089585ED8093BC0080918B
:10045000BC0084FDFCCF1092C50108954091780145
:10046000262F30E0240F311D21323105DCF420919C
:10047000C5012430C9F4FC0180E090E0861758F4EF
:10048000309178012191DC01A85ABE4FA30FB11D14
:100490002C930196F3CF80917801680F60937801D7
:1004A00080E0089581E0089582E008950895E09144
:1004B000C9018091C801E81730F4F0E0E85CFE4F14
:1004C000808190E008958FEF9FEF08959091C9018A
:1004D0008091C801981750F4E92FF0E0E85CFE4FD6
:1004E000208130E09F5F9093C90102C02FEF3FEF62
:1004F000C90108958091C80190E02091C901821B33
:1005000091090895CF93DF93CB01EA01642F0E94F4
:100510002E02CE01DF91CF910895CF93DF931F92EA
:10052000CDB7DEB7698361E0CE0101960E942E024D
:1005300081E090E00F90DF91CF910895089580E0E1
:1005400090E00895009769F0FC0101900020E9F720
:100550003197AF01481B590BBC0185ED91E00C941C
:10056000180180E090E008950E944D068F929F92BE
:10057000AF92BF92CF92DF92EF92FF92CF93DF9331
:10058000CDB7DEB7A1970FB6F894DEBF0FBECDBFD3
:100590008091C80190E02091C901821B91090297C6
:1005A00054F082E792E00E946602682F85ED91E0A8
:1005B0000E94AB01EDCF82E792E00E9466026C01DF
:1005C00084E291E00E94A2020D2C000CEE08FF08CC
:1005D000F7FE25C06DE285ED91E00E94AB01222778
:1005E0003327A9012C193D094E095F0919A2CE0133
:1005F00081967C019AE0892E912CA12CB12CCA0104
:10060000B901A50194010E942506605DF70162937E
:100610007F01211531054105510589F71AC0A70150
:10062000960119A2CE0181967C018AE0882E912C38
:10063000A12CB12CCA01B901A50194010E94250683
:10064000605DF70162937F01211531054105510578
:1006500089F7C7010E94A20285E391E00E94A202ED
:10066000A1960FB6F894DEBF0FBECDBFDF91CF913C
:10067000FF90EF90DF90CF90BF90AF909F908F90C2
:1006800008951F920F920FB60F9211242F933F934C
:100690008F939F93AF93BF938091CD019091CE01A3
:1006A000A091CF01B091D0013091CC0123E0230F74
:1006B0002D3720F40196A11DB11D05C026E8230F9A
:1006C0000296A11DB11D2093CC018093CD01909382
:1006D000CE01A093CF01B093D0018091D101909130
:1006E000D201A091D301B091D4010196A11DB11DF9
:1006F0008093D1019093D201A093D301B093D40100
:10070000BF91AF919F918F913F912F910F900FBE0D
:100710000F901F9018951F920F920FB60F921124F1
:100720002F933F934F935F936F937F938F939F93F9
:10073000AF93BF93EF93FF9385ED91E00E94890102
:10074000FF91EF91BF91AF919F918F917F916F91A9
:100750005F914F913F912F910F900FBE0F901F907F
:1007600018951F920F920FB60F9211242F938F930B
:100770009F93EF93FF93E091E501F091E601808173
:10078000E091EB01F091EC0182FD12C0908180912B
:10079000EE018F5F8F732091EF01821751F0E0918E
:1007A000EE01F0E0EB52FE4F958F8093EE0101C019
:1007B0008081FF91EF919F918F912F910F900FBEAC
:1007C0000F901F9018951F920F920FB60F92112441
:1007D0002F933F934F935F936F937F938F939F9349
:1007E000AF93BF93EF93FF938091B900887F8036DA
:1007F00009F49CC068F5883209F45BC090F480313C
:1008000009F454C038F4882309F4F6C0883009F498
:100810004DC0F6C0883109F44CC0803209F45DC087
:10082000EFC0803409F468C048F4803309F455C03F
:10083000883309F0E5C080939B01D8C0803509F466
:100840004FC0883509F45DC0883409F0D9C0D6C0DE
:10085000883909F4C7C0A8F4883709F467C038F4A8
:10086000883609F463C0803709F460C0C9C088388D
:1008700009F4B8C0803909F45FC0803809F0C0C0FD
:100880005BC0803B09F486C038F4803A09F466C046
:10089000883A09F47FC0B4C0803C09F4A7C0883C02
:1008A00009F4A4C0883B09F48AC0AAC08091BE01A3
:1008B00010C09091BD018091BC01981770F5E09136
:1008C000BD0181E08E0F8093BD01F0E0E456FE4F44
:1008D00080818093BB0085EC86C080939B018EC095
:1008E000E091BD0181E08E0F8093BD018091BB003E
:1008F000F0E0E456FE4F80839091BD018091BC01F1
:100900006EC0E091BD0181E08E0F8093BD018091AA
:10091000BB00F0E0E456FE4F80838091C40181115A
:100920006DC081E08093C30184EA61C083E080935D
:10093000C50110929A01CFCF80919A01803208F0C0
:1009400051C0E0919A0181E08E0F80939A018091CD
:10095000BB00F0E0E658FE4F8083BDCF85EC80936E
:10096000BC001092C50180919A01803230F4E09170
:100970009A01F0E0E658FE4F108260919A0170E013
:10098000E091BF01F091C0018AE791E009951092D2
:100990009A0136C084E08093C501109279011092CB
:1009A0007801E091C101F091C2010995809178012F
:1009B000811105C081E08093780110925801E09187
:1009C000790181E08E0F80937901F0E0E85AFE4FC3
:1009D00080818093BB009091790180917801981774
:1009E00008F479CF85E88093BC000AC085EC809339
:1009F000BC001092C50104C010929B010E94240209
:100A0000FF91EF91BF91AF919F918F917F916F91E6
:100A10005F914F913F912F910F900FBE0F901F90BC
:100A20001895E5EDF1E01382128288EE93E0A0E0E4
:100A3000B0E084839583A683B78324E031E03183DB
:100A4000208325EC30E03587248724EC30E037879D
:100A5000268720EC30E0318B208B21EC30E0338B8B
:100A6000228B22EC30E0358B248B26EC30E0378B68
:100A7000268B118E128E138E148EE2E7F2E0138213
:100A8000128284839583A683B78386E191E0918364
:100A900080830895789484B5826084BD84B5816034
:100AA00084BD85B5826085BD85B5816085BD809139
:100AB0006E00816080936E001092810080918100B1
:100AC00082608093810080918100816080938100A9
:100AD000809180008160809380008091B10084606B
:100AE0008093B1008091B00081608093B0008091CC
:100AF0007A00846080937A0080917A00826080938B
:100B00007A0080917A00816080937A0080917A00E7
:100B1000806880937A001092C1001092C9011092EF
:100B2000C8011092C7011092C6011092C50181E060
:100B30008093C4011092C30182E10E94820083E18C
:100B40000E9482008091B9008E7F8093B9008091CD
:100B5000B9008D7F8093B90088E48093B80085E464
:100B60008093BC008DEE90E09093C2018093C10110
:100B70008EEE90E09093C0018093BF0184E080935B
:100B8000BA0086EB92E09093CB018093CA01E0918A
:100B9000E501F091E60182E08083E091E101F091CE
:100BA000E2011082E091E301F091E4018FEC808397
:100BB0001092ED01E091E901F091EA0186E0808375
:100BC000E091E701F091E801808180618083E0910C
:100BD000E701F091E801808188608083E091E7017E
:100BE000F091E801808180688083E091E701F091D5
:100BF000E80180818F7D80830E94C8006B017C01A9
:100C000084E6882E912CA12CB12C0E94C800DC0116
:100C1000CB018C199D09AE09BF09883E9340A105FF
:100C2000B10598F321E0821A9108A108B10888EE75
:100C3000C80E83E0D81EE11CF11C81149104A104AC
:100C4000B10419F70E941A02D7CFA1E21A2EAA1BEB
:100C5000BB1BFD010DC0AA1FBB1FEE1FFF1FA2176C
:100C6000B307E407F50720F0A21BB30BE40BF50B69
:100C7000661F771F881F991F1A9469F760957095F2
:100C8000809590959B01AC01BD01CF010895EE0FB9
:100C9000FF1F0590F491E02D099481E090E0F89415
:080CA0000C945206F894FFCFFA
:100CA80000000000AB0118014201F8017301510175
:100CB8006501000000008D0282029F0256027A023E
:100CC80066025702736C61766520726573706F6E89
:080CD80073653A20000D0A00CB
:00000001FF
