:100000000C945D000C9485000C9485000C94850084
:100010000C9485000C9485000C9485000C9485004C
:100020000C9485000C9485000C9485000C9485003C
:100030000C9485000C9485000C9485000C9485002C
:100040000C9453020C9485000C94C3020C949D02F2
:100050000C9485000C9485000C9485000C9485000C
:100060000C9485000C9485000000000024002700FB
:100070002A0000000000250028002B0004040404CE
:100080000404040402020202020203030303030342
:10009000010204081020408001020408102001021F
:1000A00004081020000000080002010000030407FB
:1000B0000000000000000000B60411241FBECFEFB6
:1000C000D8E0DEBFCDBF11E0A0E0B1E0E8EBFDE09D
:1000D00002C005900D92A232B107D9F721E0A2E249
:1000E000B1E001C01D92A83CB207E1F710E0CDE5F8
:1000F000D0E004C02197FE010E94CF06CC35D10785
:10010000C9F70E94F5020C94DA060C940000E1EBAA
:10011000F0E09491EDE9F0E02491E9E8F0E0E49179
:10012000EE2309F43CC0992339F1933091F038F46F
:100130009130A9F0923001F594B59F7D12C09730AF
:1001400091F09830A1F09430B9F4909180009F7DA7
:1001500003C0909180009F77909380000DC094B56C
:100160009F7794BD09C09091B0009F7703C0909194
:10017000B0009F7D9093B000F0E0EE0FFF1FEE58AF
:10018000FF4FA591B4919FB7F894811104C08C9151
:100190002095282302C0EC912E2B2C939FBF08950D
:1001A0003FB7F8948091270190912801A0912901EF
:1001B000B0912A0126B5A89B05C02F3F19F00196E2
:1001C000A11DB11D3FBFBA2FA92F982F8827820FDD
:1001D000911DA11DB11DBC01CD0142E0660F771F2D
:1001E000881F991F4A95D1F708958F929F92AF92D9
:1001F000BF92CF92DF92EF92FF926B017C010E943F
:10020000D0004B015C01C114D104E104F104F1F010
:100210000E94D000DC01CB0188199909AA09BB0909
:10022000883E9340A105B10570F321E0C21AD108C0
:10023000E108F10888EE880E83E0981EA11CB11C2D
:10024000C114D104E104F10419F7DDCFFF90EF9060
:10025000DF90CF90BF90AF909F908F900895CF92F6
:10026000DF92EF92FF920F931F93CF93DF936C0176
:100270007A018B01C0E0D0E0CE15DF0581F0D80116
:100280006D918D01D601ED91FC910190F081E02DF1
:10029000C6010995892B11F02196EECF7E01C70189
:1002A000DF91CF911F910F91FF90EF90DF90CF9052
:1002B0000895089580E090E00895FC01538D448DE9
:1002C000252F30E0842F90E0821B930B541710F001
:1002D000CF96089501970895FC01918D828D98170E
:1002E00061F0828DDF01A80FB11D5D968C91928D1A
:1002F0009F5F9F73928F90E008958FEF9FEF089517
:10030000FC01918D828D981731F0828DE80FF11DDF
:10031000858D90E008958FEF9FEF0895FC01918DFA
:10032000228D892F90E0805C9F4F821B91098F73F3
:10033000992708958BE291E00E948E0121E0892B9C
:1003400009F420E0822F0895FC01848DDF01A80FBD
:10035000B11DA35ABF4F2C91848D90E001968F73ED
:100360009927848FA689B7892C93A089B1898C910C
:10037000837080648C93938D848D981306C002885B
:10038000F389E02D80818F7D80830895EF92FF9225
:100390000F931F93CF93DF93EC0181E0888F9B8DA8
:1003A0008C8D981305C0E889F989808185FD26C068
:1003B000F62E0B8D10E00F5F1F4F0F731127E02EED
:1003C0008C8DE8120CC00FB607FCFACFE889F989CA
:1003D000808185FFF5CFCE010E94A401F1CF8B8DE6
:1003E000FE01E80FF11DE35AFF4FF0829FB7F8942A
:1003F0000B8FEA89FB89808180620AC09FB7F894DD
:10040000EE89FF896083E889F9898081837080643F
:1004100080839FBF81E090E0DF91CF911F910F918A
:10042000FF90EF900895CF93DF93EC01888D8823A0
:10043000C9F0EA89FB89808185FD05C0A889B98951
:100440008C9186FD0FC00FB607FCF5CF808185FF2C
:10045000F2CFA889B9898C9185FFEDCFCE010E949A
:10046000A401E7CFDF91CF91089580E090E0892B40
:1004700029F00E949A0181110C94000008950097C0
:1004800069F0FC0101900020E9F73197AF01481BAA
:10049000590BBC018BE291E00C942F0180E090E0BD
:1004A00008950E94D5061F920F920FB60F92112445
:1004B0002F933F938F939F93AF93BF93809123018B
:1004C00090912401A0912501B09126013091220143
:1004D00023E0230F2D3720F40196A11DB11D05C087
:1004E00026E8230F0296A11DB11D209322018093BF
:1004F000230190932401A0932501B09326018091BC
:10050000270190912801A0912901B0912A0101961B
:10051000A11DB11D8093270190932801A09329016B
:10052000B0932A01BF91AF919F918F913F912F91ED
:100530000F900FBE0F901F9018951F920F920FB63D
:100540000F9211242F933F934F935F936F937F9359
:100550008F939F93AF93BF93EF93FF938BE291E0C1
:100560000E94A401FF91EF91BF91AF919F918F9154
:100570007F916F915F914F913F912F910F900FBE9F
:100580000F901F9018951F920F920FB60F92112483
:100590002F938F939F93EF93FF93E0913B01F09103
:1005A0003C018081E0914101F091420182FD12C045
:1005B0009081809144018F5F8F7320914501821754
:1005C00051F0E0914401F0E0E55DFE4F958F80939E
:1005D000440101C08081FF91EF919F918F912F91F4
:1005E0000F900FBE0F901F901895CF93DF93CDB74C
:1005F000DEB7A1970FB6F894DEBF0FBECDBF7894DB
:1006000084B5826084BD84B5816084BD85B5826017
:1006100085BD85B5816085BD80916E0081608093C8
:100620006E00109281008091810082608093810031
:100630008091810081608093810080918000816041
:10064000809380008091B10084608093B10080919C
:10065000B00081608093B00080917A0084608093C4
:100660007A0080917A00826080937A0080917A008B
:10067000816080937A0080917A00806880937A000C
:100680001092C100E0913B01F0913C0182E0808337
:10069000E0913701F09138011082E0913901F09139
:1006A0003A018FEC808310924301E0913F01F09179
:1006B000400186E08083E0913D01F0913E01808120
:1006C00080618083E0913D01F0913E0180818860EE
:1006D0008083E0913D01F0913E01808180688083BC
:1006E000E0913D01F0913E0180818F7D8083EEE9B4
:1006F000F0E02491EAE8F0E084918823C9F090E0EA
:10070000880F991FFC01E859FF4F45915491FC0156
:10071000EE58FF4FA591B4919FB7F894FA018081EC
:100720002095822380838C91E22FE823EC939FBF56
:10073000EDE9F0E02491E9E8F0E08491882399F074
:1007400090E0880F991FFC01E859FF4FA591B491E3
:10075000FC01EE58FF4F859194918FB7F894EC917E
:10076000E22BEC938FBF80E4382E30927C00809196
:100770007A00806480937A0080917A0086FDFCCFB5
:10078000609178008091790070E08B01182B81E0F6
:100790000E9487006AE070E080E090E00E94F5002F
:1007A000B801110F880B990B0E9486052AE038E2E8
:1007B00040EA5BE30E943B066B017C014B015C015C
:1007C0009B01AC010E94A806882319F082E191E008
:1007D0001AC026013701E89477F82FEF3FEF4FE773
:1007E0005FE7C301B2010E94A80681110FC02FEF7D
:1007F0003FEF4FE75FE7C301B2010E9450051816B3
:100800002CF486E191E00E943F02A0C02FEF3FEF61
:100810004FE75FE4C701B6010E94360618161CF4C4
:100820008AE191E0F0CF2FEF3FEF4FE75FECC70198
:10083000B6010E94500587FDF3CF20E030E0A9010A
:10084000C701B6010E94500587FF0BC06DE28BE225
:1008500091E00E94C60146015701B7FAB094B7F87B
:10086000B0942AE037ED43EA5BE3C501B4010E948E
:10087000E4046B017C010E9455054B015C010E9460
:1008800084059B01AC01C701B6010E94E3042B0162
:100890003C0119A27E01F1E2EF0EF11C0E2DDF2CBE
:1008A000C501B4012AE030E040E050E00E94AD060E
:1008B00049015A01605DF70162937F01232B242BCC
:1008C000252B71F7CF010E943F026EE28BE291E08F
:1008D0000E94C60113E01150C9F120E030E040E26F
:1008E00051E4C301B2010E943B064B015C010E942E
:1008F00055059B0140E050E019A2E02EFD2C562E3C
:10090000632E742EC52ECA01B9012AE030E040E002
:1009100050E00E94AD06605DF70162937F012115F2
:1009200031054105510579F7CF010E943F02652D40
:10093000762D872D9C2D0E9484059B01AC01C5015D
:10094000B4010E94E3042B013C01C5CF8EE191E08C
:100950000E943F0280E00E94870061E070E080E03A
:1009600090E00E94F5000E943502FFCEEBE2F1E03C
:100970001382128288EE93E0A0E0B0E08483958336
:10098000A683B78384E091E09183808385EC90E037
:100990009587848784EC90E09787868780EC90E049
:1009A000918B808B81EC90E0938B828B82EC90E03A
:1009B000958B848B86EC90E0978B868B118E128EB4
:1009C000138E148E08955058BB27AA270E94FB044B
:1009D0000C94FC050E94EE0538F00E94F50520F00D
:1009E00039F49F3F19F426F40C94EB050EF4E095CE
:1009F000E7FB0C94E505E92F0E940D0658F3BA17A2
:100A0000620773078407950720F079F4A6F50C9424
:100A10002F060EF4E0950B2EBA2FA02D0B01B90175
:100A200090010C01CA01A0011124FF27591B99F064
:100A3000593F50F4503E68F11A16F040A22F232F70
:100A4000342F4427585FF3CF469537952795A795C0
:100A5000F0405395C9F77EF41F16BA0B620B730B67
:100A6000840BBAF09150A1F0FF0FBB1F661F771FD8
:100A7000881FC2F70EC0BA0F621F731F841F48F48D
:100A8000879577956795B795F7959E3F08F0B0CF16
:100A90009395880F08F09927EE0F979587950895FD
:100AA0000E94C10508F481E008950E94150688F0AF
:100AB0009F5798F0B92F9927B751B0F0E1F0660F22
:100AC000771F881F991F1AF0BA95C9F714C0B13063
:100AD00091F00E942F06B1E008950C942F06672F25
:100AE000782F8827B85F39F0B93FCCF38695779592
:100AF0006795B395D9F73EF490958095709561957B
:100B00007F4F8F4F9F4F0895E89409C097FB3EF4A5
:100B100090958095709561957F4F8F4F9F4F99234A
:100B2000A9F0F92F96E9BB279395F69587957795C8
:100B30006795B795F111F8CFFAF4BB0F11F460FF88
:100B40001BC06F5F7F4F8F4F9F4F16C0882311F0E0
:100B500096E911C0772321F09EE8872F762F05C0F4
:100B6000662371F096E8862F70E060E02AF09A958F
:100B7000660F771F881FDAF7880F9695879597F984
:100B80000895990F0008550FAA0BE0E8FEEF16161E
:100B90001706E807F907C0F012161306E407F50771
:100BA00098F0621B730B840B950B39F40A2661F0E5
:100BB000232B242B252B21F408950A2609F4A14088
:100BC000A6958FEF811D811D089597F99F6780E895
:100BD00070E060E008959FEF80EC089500240A948F
:100BE0001616170618060906089500240A94121608
:100BF0001306140605060895092E0394000C11F43B
:100C0000882352F0BB0F40F4BF2B11F460FF04C0E7
:100C10006F5F7F4F8F4F9F4F089557FD9058440F40
:100C2000551F59F05F3F71F04795880F97FB991F4B
:100C300061F09F3F79F08795089512161306140608
:100C4000551FF2CF4695F1DF08C016161706180695
:100C5000991FF1CF86957105610508940895E89470
:100C6000BB2766277727CB0197F908950E94C10516
:100C700008F48FEF08950E944E060C94FC050E9424
:100C8000EE0538F00E94F50520F0952311F00C9444
:100C9000E5050C94EB0511240C9430060E940D061A
:100CA00070F3959FC1F3950F50E0551F629FF001BF
:100CB000729FBB27F00DB11D639FAA27F00DB11DD8
:100CC000AA1F649F6627B00DA11D661F829F222761
:100CD000B00DA11D621F739FB00DA11D621F839FE8
:100CE000A00D611D221F749F3327A00D611D231FBE
:100CF000849F600D211D822F762F6A2F11249F570C
:100D000050409AF0F1F088234AF0EE0FFF1FBB1F0E
:100D1000661F771F881F91505040A9F79E3F5105CD
:100D200080F00C94E5050C9430065F3FE4F3983EA8
:100D3000D4F3869577956795B795F795E7959F5F77
:100D4000C1F7FE2B880F911D9695879597F9089509
:100D50000E94C105880B990B0895A1E21A2EAA1BC7
:100D6000BB1BFD010DC0AA1FBB1FEE1FFF1FA2175B
:100D7000B307E407F50720F0A21BB30BE40BF50B58
:100D8000661F771F881F991F1A9469F760957095E1
:100D9000809590959B01AC01BD01CF010895EE0FA8
:100DA000FF1F0590F491E02D099481E090E0F89404
:080DB0000C94DA06F894FFCF61
:100DB80000000000C6012F015D0113028E016C01C5
:100DC80080016E616E00696E66006F7666000D0ABE
:020DD800000019
:107E0000112484B714BE81FFF0D085E080938100F7
:107E100082E08093C00088E18093C10086E0809377
:107E2000C20080E18093C4008EE0C9D0259A86E02C
:107E300020E33CEF91E0309385002093840096BBD3
:107E4000B09BFECF1D9AA8958150A9F7CC24DD24C4
:107E500088248394B5E0AB2EA1E19A2EF3E0BF2EE7
:107E6000A2D0813461F49FD0082FAFD0023811F036
:107E7000013811F484E001C083E08DD089C08234E0
:107E800011F484E103C0853419F485E0A6D080C0E4
:107E9000853579F488D0E82EFF2485D0082F10E0AE
:107EA000102F00270E291F29000F111F8ED06801E7
:107EB0006FC0863521F484E090D080E0DECF843638
:107EC00009F040C070D06FD0082F6DD080E0C81688
:107ED00080E7D80618F4F601B7BEE895C0E0D1E017
:107EE00062D089930C17E1F7F0E0CF16F0E7DF06D8
:107EF00018F0F601B7BEE89568D007B600FCFDCFD4
:107F0000A601A0E0B1E02C9130E011968C91119780
:107F100090E0982F8827822B932B1296FA010C0160
:107F200087BEE89511244E5F5F4FF1E0A038BF0790
:107F300051F7F601A7BEE89507B600FCFDCF97BE46
:107F4000E89526C08437B1F42ED02DD0F82E2BD052
:107F50003CD0F601EF2C8F010F5F1F4F84911BD097
:107F6000EA94F801C1F70894C11CD11CFA94CF0C13
:107F7000D11C0EC0853739F428D08EE10CD085E9AC
:107F80000AD08FE07ACF813511F488E018D01DD067
:107F900080E101D065CF982F8091C00085FFFCCF94
:107FA0009093C60008958091C00087FFFCCF809118
:107FB000C00084FD01C0A8958091C6000895E0E648
:107FC000F0E098E1908380830895EDDF803219F02E
:107FD00088E0F5DFFFCF84E1DECF1F93182FE3DFCA
:107FE0001150E9F7F2DF1F91089580E0E8DFEE27F6
:047FF000FF270994CA
:027FFE00040479
:0400000300007E007B
:00000001FF
