:100000000C9458000C9480000C9480000C94800098
:100010000C9480000C9480000C9480000C94800060
:100020000C9480000C9480000C9480000C94800050
:100030000C9480000C9480000C9480000C94800040
:100040000C942C030C9480000C949C030C94760369
:100050000C9480000C9480000C9480000C94800020
:100060000C94CE030C9480000000000025002800B2
:100070002B00040404040404040402020202020229
:10008000030303030303010204081020408001025C
:1000900004081020010204081020000000080002DB
:1000A0000100000304070000000000000000FC0441
:1000B00011241FBECFEFD8E0DEBFCDBF11E0A0E01E
:1000C000B1E0ECE4FDE002C005900D92A234B1076E
:1000D000D9F722E0A2E4B1E001C01D92A93AB2072B
:1000E000E1F710E0C8E5D0E004C02197FE010E94CE
:1000F0009906C735D107C9F70E9435050C94A406A7
:100100000C94000090E0FC01E656FF4F2491FC01A6
:10011000EA57FF4F3491FC01EE58FF4FE491EE2374
:10012000B1F1222339F1233091F038F42130A9F0D4
:10013000223001F584B58F7D12C0273091F0283030
:10014000A1F02430B9F4809180008F7D03C08091AC
:1001500080008F77809380000DC084B58F7784BD39
:1001600009C08091B0008F7703C08091B0008F7D6F
:100170008093B000F0E0EE0FFF1FE859FF4FA5910C
:10018000B4918FB7F894EC91E32BEC938FBF089563
:100190003091FF01313208F04BC08091DB018111B9
:1001A000FCCF9091FE0122E02093DB0121E020931F
:1001B000DA012FEF2093D9011092D8013093D701A3
:1001C000EEEDF1E0A7EBB1E020E0321721F0419134
:1001D0004D932F5FFACF1092B6012091B601990F7F
:1001E000922B9093B6019091B501913061F41092E9
:1001F000B5019091B6019093BB009091BC0093FD26
:10020000F8CF95EC01C095EE9093BC009091DB0186
:100210009230E1F39091D9019F3F79F08091D9011B
:10022000803241F08091D901803331F084E005C003
:1002300081E003C082E001C083E01092DD011092F2
:10024000FF011092DC0108953FB7F8948091B1014D
:100250009091B201A091B301B091B40126B5A89BD1
:1002600005C02F3F19F00196A11DB11D3FBFBA2F48
:10027000A92F982F8827820F911DA11DB11DBC01A8
:10028000CD0142E0660F771F881F991F4A95D1F76D
:10029000089508950895CF92DF92EF92FF920F9301
:1002A0001F93CF93DF936C017A018B01C0E0D0E004
:1002B000CE15DF0581F0D8016D918D01D601ED914C
:1002C000FC910190F081E02DC6010995892B11F078
:1002D0002196EECF7E01C701DF91CF911F910F9143
:1002E000FF90EF90DF90CF900895FC01538D448DE7
:1002F000252F30E0842F90E0821B930B541710F0D1
:10030000CF96089501970895FC01918D828D9817DD
:1003100061F0828DDF01A80FB11D5D968C91928DE9
:100320009F5F9F73928F90E008958FEF9FEF0895E6
:10033000FC01918D828D981731F0828DE80FF11DAF
:10034000858D90E008958FEF9FEF0895FC01918DCA
:10035000228D892F90E0805C9F4F821B91098F73C3
:100360009927089580E092E00E94A60121E0892B60
:1003700009F420E0822F0895FC01848DDF01A80F8D
:10038000B11DA35ABF4F2C91848D90E001968F73BD
:100390009927848FA689B7892C93A089B1898C91DC
:1003A000837080648C93938D848D981306C002882B
:1003B000F389E02D80818F7D80830895EF92FF92F5
:1003C0000F931F93CF93DF93EC0181E0888F9B8D78
:1003D0008C8D981305C0E889F989808185FD26C038
:1003E000F62E0B8D10E00F5F1F4F0F731127E02EBD
:1003F0008C8DE8120CC00FB607FCFACFE889F9899A
:10040000808185FFF5CFCE010E94BC01F1CF8B8D9D
:10041000FE01E80FF11DE35AFF4FF0829FB7F894F9
:100420000B8FEA89FB89808180620AC09FB7F894AC
:10043000EE89FF896083E889F9898081837080640F
:1004400080839FBF81E090E0DF91CF911F910F915A
:10045000FF90EF900895CF93DF93EC01888D882370
:10046000C9F0EA89FB89808185FD05C0A889B98921
:100470008C9186FD0FC00FB607FCF5CF808185FFFC
:10048000F2CFA889B9898C9185FFEDCFCE010E946A
:10049000BC01E7CFDF91CF91089580E090E0892BF8
:1004A00029F00E94B20181110C940000089585ED9D
:1004B0008093BC008091BC0084FDFCCF1092DB01D6
:1004C000089540918201262F30E0240F311D213202
:1004D0003105DCF42091DB012430C9F4FC0180E01B
:1004E00090E0861758F4309182012191DC01AE59D9
:1004F000BE4FA30FB11D2C930196F3CF80918201C3
:10050000680F6093820180E0089581E0089582E0A1
:1005100008950895E091AA018091A901E81730F4A7
:10052000F0E0EE5BFE4F808190E008958FEF9FEF4B
:1005300008959091AA018091A901981750F4E92F8C
:10054000F0E0EE5BFE4F208130E09F5F9093AA01C8
:1005500002C02FEF3FEFC90108958091A90190E0FB
:100560002091AA01821B91090895CF92DF92EF9208
:10057000FF920F931F93CF93DF937C01CB018A01EE
:100580002091DC01222389F0EB016B01C40ED51E02
:10059000CC15DD0569F06991D701ED91FC910190D1
:1005A000F081E02DC7010995F3CF642F0E9461020D
:1005B000C801DF91CF911F910F91FF90EF90DF90D5
:1005C000CF900895CF93DF931F92CDB7DEB76983A5
:1005D0002091DC012223D1F02091FF01203240F054
:1005E00021E030E0FC013383228380E090E015C0FD
:1005F0008091DD01E82FF0E0E252FE4F9981908377
:100600008F5F8093DD018093FF0105C061E0CE0123
:1006100001960E94610281E090E00F90DF91CF91FE
:100620000895089580E090E008950E949F06611566
:10063000710579F0FB0101900020E9F73197AF01D6
:10064000461B570BDC01ED91FC910280F381E02DFC
:10065000099480E090E008951F920F920FB60F92D8
:1006600011242F933F938F939F93AF93BF938091C8
:10067000AD019091AE01A091AF01B091B001309168
:10068000AC0123E0230F2D3720F40196A11DB11DED
:1006900005C026E8230F0296A11DB11D2093AC01D1
:1006A0008093AD019093AE01A093AF01B093B001E0
:1006B0008091B1019091B201A091B301B091B401C8
:1006C0000196A11DB11D8093B1019093B201A09339
:1006D000B301B093B401BF91AF919F918F913F91BE
:1006E0002F910F900FBE0F901F9018951F920F9291
:1006F0000FB60F9211242F933F934F935F936F93F5
:100700007F938F939F93AF93BF93EF93FF9380E07B
:1007100092E00E94BC01FF91EF91BF91AF919F9138
:100720008F917F916F915F914F913F912F910F909A
:100730000FBE0F901F9018951F920F920FB60F9239
:1007400011242F938F939F93EF93FF93E0911002C7
:10075000F09111028081E0911602F091170282FD62
:1007600012C09081809119028F5F8F7320911A02BD
:10077000821751F0E0911902F0E0E050FE4F958FA2
:100780008093190201C08081FF91EF919F918F9119
:100790002F910F900FBE0F901F9018951F920F92E0
:1007A0000FB60F9211242F933F934F935F936F9344
:1007B0007F938F939F93AF93BF93EF93FF9380911A
:1007C000B900887F803609F49CC068F5883209F446
:1007D0005BC090F4803109F454C038F4882309F4E4
:1007E000F6C0883009F44DC0F6C0883109F44CC019
:1007F000803209F45DC0EFC0803409F468C048F469
:10080000803309F455C0883309F0E5C08093D901DD
:10081000D8C0803509F44FC0883509F45DC08834EC
:1008200009F0D9C0D6C0883909F4C7C0A8F4883700
:1008300009F467C038F4883609F463C0803709F4D6
:1008400060C0C9C0883809F4B8C0803909F45FC0F5
:10085000803809F0C0C05BC0803B09F486C038F422
:10086000803A09F466C0883A09F47FC0B4C0803C7D
:1008700009F4A7C0883C09F4A4C0883B09F48AC0E5
:10088000AAC08091B60110C09091D8018091D70183
:10089000981770F5E091D80181E08E0F8093D80110
:1008A000F0E0E954FE4F80818093BB0085EC86C068
:1008B0008093D9018EC0E091D80181E08E0F8093A2
:1008C000D8018091BB00F0E0E954FE4F8083909105
:1008D000D8018091D7016EC0E091D80181E08E0FE0
:1008E0008093D8018091BB00F0E0E954FE4F8083F3
:1008F0008091DA0181116DC081E08093B50184EAB5
:1009000061C083E08093DB011092A401CFCF80917E
:10091000A401803208F051C0E091A40181E08E0F63
:100920008093A4018091BB00F0E0EC57FE4F8083E0
:10093000BDCF85EC8093BC001092DB018091A401B7
:10094000803230F4E091A401F0E0EC57FE4F1082C9
:100950006091A40170E0E091A501F091A60184E806
:1009600091E009951092A40136C084E08093DB01E8
:100970001092830110928201E091A701F091A801E9
:10098000099580918201811105C081E080938201E7
:1009900010926201E091830181E08E0F80938301C8
:1009A000F0E0EE59FE4F80818093BB00909183016F
:1009B00080918201981708F479CF85E88093BC0074
:1009C0000AC085EC8093BC001092DB0104C0109239
:1009D000D9010E945702FF91EF91BF91AF919F9172
:1009E0008F917F916F915F914F913F912F910F90D8
:1009F0000FBE0F901F901895E0E0F2E01382128274
:100A000088EE93E0A0E0B0E084839583A683B7836B
:100A100024E031E03183208325EC30E035872487E2
:100A200024EC30E03787268720EC30E0318B208BB8
:100A300021EC30E0338B228B22EC30E0358B248BA1
:100A400026EC30E0378B268B118E128E138E148E8F
:100A5000EDE9F2E01382128284839583A683B78343
:100A600086E191E0918380830895CF93DF93CDB7A2
:100A7000DEB7A1970FB6F894DEBF0FBECDBF789456
:100A800084B5826084BD84B5816084BD85B5826093
:100A900085BD85B5816085BD80916E008160809344
:100AA0006E001092810080918100826080938100AD
:100AB00080918100816080938100809180008160BD
:100AC000809380008091B10084608093B100809118
:100AD000B00081608093B00080917A008460809340
:100AE0007A0080917A00826080937A0080917A0007
:100AF000816080937A0080917A00806880937A0088
:100B00001092C1001092AA011092A9011092DD0169
:100B10001092FF011092DB0181E08093DA011092C4
:100B2000B50182E10E94820083E10E9482008091EF
:100B3000B9008E7F8093B9008091B9008D7F80933A
:100B4000B90088E48093B80085E48093BC0089E410
:100B500091E09093A8018093A7018AE491E090939B
:100B6000A6018093A501E0911002F091110282E0AC
:100B70008083E0910C02F0910D021082E0910E0250
:100B8000F0910F028FEC808310921802E091140212
:100B9000F091150286E08083E0911202F091130239
:100BA000808180618083E0911202F0911302808144
:100BB00088608083E0911202F09113028081806846
:100BC0008083E0911202F091130280818F7D8083F7
:100BD00011E002E09AE0892E912CA12CB12C109307
:100BE000DC011093FE011092DD011092FF0164E21E
:100BF00071E08DE992E00E9417036091AB018DE9ED
:100C000092E00E94E2020E94C8001093DC0100936F
:100C1000FE011092DD011092FF0164E271E08DE9A6
:100C200092E00E9417036091AB0170E06F5F7F4F0D
:100C30008DE992E00E94E2020E94C8006AE271E03F
:100C400080E092E00E9417032091AB0130E040E089
:100C500050E019A27E0181E2E80EF11CCA01B9013F
:100C6000A50194010E947706605DF70162937F0100
:100C7000211531054105510589F7BF0180E092E05A
:100C80000E9417036EE371E080E092E00E94170378
:100C90008091AB018F5F8093AB010E9424012B01F7
:100CA0003C0184EFC82EDD24D394E12CF12C0E946A
:100CB0002401DC01CB0184199509A609B709883EF6
:100CC0009340A105B10598F3F1E0CF1AD108E108EE
:100CD000F10828EE420E23E0521E611C711CC11463
:100CE000D104E104F10419F70E944D0278CFA1E28A
:100CF0001A2EAA1BBB1BFD010DC0AA1FBB1FEE1F96
:100D0000FF1FA217B307E407F50720F0A21BB30BE0
:100D1000E40BF50B661F771F881F991F1A9469F75C
:100D200060957095809590959B01AC01BD01CF01B8
:100D30000895EE0FFF1F0590F491E02D099481E0D6
:0C0D400090E0F8940C94A406F894FFCF07
:100D4C0000000000DE014B0175012B02A60184019D
:100D5C00980100000000E202B50212038902AD0204
:100D6C0099028A02782069732000546865206D61AD
:100D7C00737465722073656E642E2E2E20000D0A1E
:020D8C00000065
:00000001FF
